{
    "_format": "hh-sol-artifact-1",
    "contractName": "AOTA",
    "sourceName": "contracts/AOTA.sol",
    "abi": [
        {
            "inputs": [
                {
                    "internalType": "string",
                    "name": "baseURI",
                    "type": "string"
                }
            ],
            "stateMutability": "nonpayable",
            "type": "constructor"
        },
        {
            "anonymous": false,
            "inputs": [
                {
                    "indexed": true,
                    "internalType": "address",
                    "name": "owner",
                    "type": "address"
                },
                {
                    "indexed": true,
                    "internalType": "address",
                    "name": "approved",
                    "type": "address"
                },
                {
                    "indexed": true,
                    "internalType": "uint256",
                    "name": "tokenId",
                    "type": "uint256"
                }
            ],
            "name": "Approval",
            "type": "event"
        },
        {
            "anonymous": false,
            "inputs": [
                {
                    "indexed": true,
                    "internalType": "address",
                    "name": "owner",
                    "type": "address"
                },
                {
                    "indexed": true,
                    "internalType": "address",
                    "name": "operator",
                    "type": "address"
                },
                {
                    "indexed": false,
                    "internalType": "bool",
                    "name": "approved",
                    "type": "bool"
                }
            ],
            "name": "ApprovalForAll",
            "type": "event"
        },
        {
            "anonymous": false,
            "inputs": [
                {
                    "indexed": true,
                    "internalType": "address",
                    "name": "previousOwner",
                    "type": "address"
                },
                {
                    "indexed": true,
                    "internalType": "address",
                    "name": "newOwner",
                    "type": "address"
                }
            ],
            "name": "OwnershipTransferred",
            "type": "event"
        },
        {
            "anonymous": false,
            "inputs": [
                {
                    "indexed": true,
                    "internalType": "address",
                    "name": "from",
                    "type": "address"
                },
                {
                    "indexed": true,
                    "internalType": "address",
                    "name": "to",
                    "type": "address"
                },
                {
                    "indexed": true,
                    "internalType": "uint256",
                    "name": "tokenId",
                    "type": "uint256"
                }
            ],
            "name": "Transfer",
            "type": "event"
        },
        {
            "inputs": [],
            "name": "MAX_PER_MINT",
            "outputs": [
                {
                    "internalType": "uint256",
                    "name": "",
                    "type": "uint256"
                }
            ],
            "stateMutability": "view",
            "type": "function"
        },
        {
            "inputs": [],
            "name": "MAX_SUPPLY",
            "outputs": [
                {
                    "internalType": "uint256",
                    "name": "",
                    "type": "uint256"
                }
            ],
            "stateMutability": "view",
            "type": "function"
        },
        {
            "inputs": [],
            "name": "PRI_PRICE",
            "outputs": [
                {
                    "internalType": "uint256",
                    "name": "",
                    "type": "uint256"
                }
            ],
            "stateMutability": "view",
            "type": "function"
        },
        {
            "inputs": [],
            "name": "PUB_PRICE",
            "outputs": [
                {
                    "internalType": "uint256",
                    "name": "",
                    "type": "uint256"
                }
            ],
            "stateMutability": "view",
            "type": "function"
        },
        {
            "inputs": [
                {
                    "internalType": "address",
                    "name": "to",
                    "type": "address"
                },
                {
                    "internalType": "uint256",
                    "name": "tokenId",
                    "type": "uint256"
                }
            ],
            "name": "approve",
            "outputs": [],
            "stateMutability": "nonpayable",
            "type": "function"
        },
        {
            "inputs": [
                {
                    "internalType": "address",
                    "name": "owner",
                    "type": "address"
                }
            ],
            "name": "balanceOf",
            "outputs": [
                {
                    "internalType": "uint256",
                    "name": "",
                    "type": "uint256"
                }
            ],
            "stateMutability": "view",
            "type": "function"
        },
        {
            "inputs": [],
            "name": "baseTokenURI",
            "outputs": [
                {
                    "internalType": "string",
                    "name": "",
                    "type": "string"
                }
            ],
            "stateMutability": "view",
            "type": "function"
        },
        {
            "inputs": [
                {
                    "internalType": "uint256",
                    "name": "tokenId",
                    "type": "uint256"
                }
            ],
            "name": "getApproved",
            "outputs": [
                {
                    "internalType": "address",
                    "name": "",
                    "type": "address"
                }
            ],
            "stateMutability": "view",
            "type": "function"
        },
        {
            "inputs": [],
            "name": "getMyNFTs",
            "outputs": [
                {
                    "internalType": "string[]",
                    "name": "",
                    "type": "string[]"
                }
            ],
            "stateMutability": "view",
            "type": "function"
        },
        {
            "inputs": [
                {
                    "internalType": "address",
                    "name": "owner",
                    "type": "address"
                },
                {
                    "internalType": "address",
                    "name": "operator",
                    "type": "address"
                }
            ],
            "name": "isApprovedForAll",
            "outputs": [
                {
                    "internalType": "bool",
                    "name": "",
                    "type": "bool"
                }
            ],
            "stateMutability": "view",
            "type": "function"
        },
        {
            "inputs": [
                {
                    "internalType": "uint256",
                    "name": "_count",
                    "type": "uint256"
                }
            ],
            "name": "mintPriNFTs",
            "outputs": [],
            "stateMutability": "payable",
            "type": "function"
        },
        {
            "inputs": [
                {
                    "internalType": "uint256",
                    "name": "_count",
                    "type": "uint256"
                }
            ],
            "name": "mintPubNFTs",
            "outputs": [],
            "stateMutability": "payable",
            "type": "function"
        },
        {
            "inputs": [],
            "name": "name",
            "outputs": [
                {
                    "internalType": "string",
                    "name": "",
                    "type": "string"
                }
            ],
            "stateMutability": "view",
            "type": "function"
        },
        {
            "inputs": [],
            "name": "owner",
            "outputs": [
                {
                    "internalType": "address",
                    "name": "",
                    "type": "address"
                }
            ],
            "stateMutability": "view",
            "type": "function"
        },
        {
            "inputs": [
                {
                    "internalType": "uint256",
                    "name": "tokenId",
                    "type": "uint256"
                }
            ],
            "name": "ownerOf",
            "outputs": [
                {
                    "internalType": "address",
                    "name": "",
                    "type": "address"
                }
            ],
            "stateMutability": "view",
            "type": "function"
        },
        {
            "inputs": [],
            "name": "priPrice",
            "outputs": [
                {
                    "internalType": "uint256",
                    "name": "",
                    "type": "uint256"
                }
            ],
            "stateMutability": "pure",
            "type": "function"
        },
        {
            "inputs": [],
            "name": "pubPrice",
            "outputs": [
                {
                    "internalType": "uint256",
                    "name": "",
                    "type": "uint256"
                }
            ],
            "stateMutability": "pure",
            "type": "function"
        },
        {
            "inputs": [],
            "name": "renounceOwnership",
            "outputs": [],
            "stateMutability": "nonpayable",
            "type": "function"
        },
        {
            "inputs": [],
            "name": "reserveNFTs",
            "outputs": [],
            "stateMutability": "nonpayable",
            "type": "function"
        },
        {
            "inputs": [
                {
                    "internalType": "address",
                    "name": "to",
                    "type": "address"
                },
                {
                    "internalType": "uint256",
                    "name": "tokenId",
                    "type": "uint256"
                }
            ],
            "name": "safeTransfer",
            "outputs": [],
            "stateMutability": "nonpayable",
            "type": "function"
        },
        {
            "inputs": [
                {
                    "internalType": "address",
                    "name": "from",
                    "type": "address"
                },
                {
                    "internalType": "address",
                    "name": "to",
                    "type": "address"
                },
                {
                    "internalType": "uint256",
                    "name": "tokenId",
                    "type": "uint256"
                }
            ],
            "name": "safeTransferFrom",
            "outputs": [],
            "stateMutability": "nonpayable",
            "type": "function"
        },
        {
            "inputs": [
                {
                    "internalType": "address",
                    "name": "from",
                    "type": "address"
                },
                {
                    "internalType": "address",
                    "name": "to",
                    "type": "address"
                },
                {
                    "internalType": "uint256",
                    "name": "tokenId",
                    "type": "uint256"
                },
                {
                    "internalType": "bytes",
                    "name": "_data",
                    "type": "bytes"
                }
            ],
            "name": "safeTransferFrom",
            "outputs": [],
            "stateMutability": "nonpayable",
            "type": "function"
        },
        {
            "inputs": [
                {
                    "internalType": "address",
                    "name": "operator",
                    "type": "address"
                },
                {
                    "internalType": "bool",
                    "name": "approved",
                    "type": "bool"
                }
            ],
            "name": "setApprovalForAll",
            "outputs": [],
            "stateMutability": "nonpayable",
            "type": "function"
        },
        {
            "inputs": [
                {
                    "internalType": "string",
                    "name": "_baseTokenURI",
                    "type": "string"
                }
            ],
            "name": "setBaseURI",
            "outputs": [],
            "stateMutability": "nonpayable",
            "type": "function"
        },
        {
            "inputs": [
                {
                    "internalType": "bytes4",
                    "name": "interfaceId",
                    "type": "bytes4"
                }
            ],
            "name": "supportsInterface",
            "outputs": [
                {
                    "internalType": "bool",
                    "name": "",
                    "type": "bool"
                }
            ],
            "stateMutability": "view",
            "type": "function"
        },
        {
            "inputs": [],
            "name": "symbol",
            "outputs": [
                {
                    "internalType": "string",
                    "name": "",
                    "type": "string"
                }
            ],
            "stateMutability": "view",
            "type": "function"
        },
        {
            "inputs": [
                {
                    "internalType": "uint256",
                    "name": "index",
                    "type": "uint256"
                }
            ],
            "name": "tokenByIndex",
            "outputs": [
                {
                    "internalType": "uint256",
                    "name": "",
                    "type": "uint256"
                }
            ],
            "stateMutability": "view",
            "type": "function"
        },
        {
            "inputs": [
                {
                    "internalType": "address",
                    "name": "owner",
                    "type": "address"
                },
                {
                    "internalType": "uint256",
                    "name": "index",
                    "type": "uint256"
                }
            ],
            "name": "tokenOfOwnerByIndex",
            "outputs": [
                {
                    "internalType": "uint256",
                    "name": "",
                    "type": "uint256"
                }
            ],
            "stateMutability": "view",
            "type": "function"
        },
        {
            "inputs": [
                {
                    "internalType": "uint256",
                    "name": "tokenId",
                    "type": "uint256"
                }
            ],
            "name": "tokenURI",
            "outputs": [
                {
                    "internalType": "string",
                    "name": "",
                    "type": "string"
                }
            ],
            "stateMutability": "view",
            "type": "function"
        },
        {
            "inputs": [],
            "name": "totalSupply",
            "outputs": [
                {
                    "internalType": "uint256",
                    "name": "",
                    "type": "uint256"
                }
            ],
            "stateMutability": "view",
            "type": "function"
        },
        {
            "inputs": [
                {
                    "internalType": "address",
                    "name": "from",
                    "type": "address"
                },
                {
                    "internalType": "address",
                    "name": "to",
                    "type": "address"
                },
                {
                    "internalType": "uint256",
                    "name": "tokenId",
                    "type": "uint256"
                }
            ],
            "name": "transferFrom",
            "outputs": [],
            "stateMutability": "nonpayable",
            "type": "function"
        },
        {
            "inputs": [
                {
                    "internalType": "address",
                    "name": "newOwner",
                    "type": "address"
                }
            ],
            "name": "transferOwnership",
            "outputs": [],
            "stateMutability": "nonpayable",
            "type": "function"
        }
    ],
    "bytecode": "0x60806040523480156200001157600080fd5b5060405162004a9038038062004a908339818101604052810190620000379190620003d4565b6040518060400160405280601181526020017f416c69656e73204f6e20546865204176650000000000000000000000000000008152506040518060400160405280600481526020017f414f5441000000000000000000000000000000000000000000000000000000008152508160009080519060200190620000bb929190620002b2565b508060019080519060200190620000d4929190620002b2565b505050620000f7620000eb6200010f60201b60201c565b6200011760201b60201c565b6200010881620001dd60201b60201c565b506200060c565b600033905090565b6000600a60009054906101000a900473ffffffffffffffffffffffffffffffffffffffff16905081600a60006101000a81548173ffffffffffffffffffffffffffffffffffffffff021916908373ffffffffffffffffffffffffffffffffffffffff1602179055508173ffffffffffffffffffffffffffffffffffffffff168173ffffffffffffffffffffffffffffffffffffffff167f8be0079c531659141344cd1fd0a4f28419497f9722a3daafe3b4186f6b6457e060405160405180910390a35050565b620001ed6200010f60201b60201c565b73ffffffffffffffffffffffffffffffffffffffff16620002136200028860201b60201c565b73ffffffffffffffffffffffffffffffffffffffff16146200026c576040517f08c379a0000000000000000000000000000000000000000000000000000000008152600401620002639062000440565b60405180910390fd5b80600c908051906020019062000284929190620002b2565b5050565b6000600a60009054906101000a900473ffffffffffffffffffffffffffffffffffffffff16905090565b828054620002c09062000508565b90600052602060002090601f016020900481019282620002e4576000855562000330565b82601f10620002ff57805160ff191683800117855562000330565b8280016001018555821562000330579182015b828111156200032f57825182559160200191906001019062000312565b5b5090506200033f919062000343565b5090565b5b808211156200035e57600081600090555060010162000344565b5090565b60006200037962000373846200048b565b62000462565b9050828152602081018484840111156200039257600080fd5b6200039f848285620004d2565b509392505050565b600082601f830112620003b957600080fd5b8151620003cb84826020860162000362565b91505092915050565b600060208284031215620003e757600080fd5b600082015167ffffffffffffffff8111156200040257600080fd5b6200041084828501620003a7565b91505092915050565b600062000428602083620004c1565b91506200043582620005e3565b602082019050919050565b600060208201905081810360008301526200045b8162000419565b9050919050565b60006200046e62000481565b90506200047c82826200053e565b919050565b6000604051905090565b600067ffffffffffffffff821115620004a957620004a8620005a3565b5b620004b482620005d2565b9050602081019050919050565b600082825260208201905092915050565b60005b83811015620004f2578082015181840152602081019050620004d5565b8381111562000502576000848401525b50505050565b600060028204905060018216806200052157607f821691505b6020821081141562000538576200053762000574565b5b50919050565b6200054982620005d2565b810181811067ffffffffffffffff821117156200056b576200056a620005a3565b5b80604052505050565b7f4e487b7100000000000000000000000000000000000000000000000000000000600052602260045260246000fd5b7f4e487b7100000000000000000000000000000000000000000000000000000000600052604160045260246000fd5b6000601f19601f8301169050919050565b7f4f776e61626c653a2063616c6c6572206973206e6f7420746865206f776e6572600082015250565b614474806200061c6000396000f3fe6080604052600436106101e35760003560e01c8063634ccdfe11610102578063b7cca2d411610095578063d547cfb711610064578063d547cfb7146106d5578063e985e9c514610700578063eba1ce981461073d578063f2fde38b14610759576101e3565b8063b7cca2d414610619578063b88d4fde14610644578063bddb7be71461066d578063c87b56dd14610698576101e3565b80638da5cb5b116100d15780638da5cb5b1461056f57806395d89b411461059a578063a22cb465146105c5578063b472070f146105ee576101e3565b8063634ccdfe146104c25780636352211e146104de57806370a082311461051b578063715018a614610558576101e3565b806323b872dd1161017a57806342842e0e1161014957806342842e0e146104085780634f6ccce71461043157806355f804b31461046e578063629cb2e414610497576101e3565b806323b872dd1461034e5780632f745c591461037757806332cb6b0c146103b4578063423f6cef146103df576101e3565b806309d42b30116101b657806309d42b30146102b6578063144100c7146102e157806318160ddd146102f85780631e5f5dc014610323576101e3565b806301ffc9a7146101e857806306fdde0314610225578063081812fc14610250578063095ea7b31461028d575b600080fd5b3480156101f457600080fd5b5061020f600480360381019061020a919061301a565b610782565b60405161021c91906135fd565b60405180910390f35b34801561023157600080fd5b5061023a6107fc565b6040516102479190613618565b60405180910390f35b34801561025c57600080fd5b50610277600480360381019061027291906130ad565b61088e565b6040516102849190613574565b60405180910390f35b34801561029957600080fd5b506102b460048036038101906102af9190612fde565b610913565b005b3480156102c257600080fd5b506102cb610a2b565b6040516102d8919061391a565b60405180910390f35b3480156102ed57600080fd5b506102f6610a30565b005b34801561030457600080fd5b5061030d610b3c565b60405161031a919061391a565b60405180910390f35b34801561032f57600080fd5b50610338610b49565b604051610345919061391a565b60405180910390f35b34801561035a57600080fd5b5061037560048036038101906103709190612ed8565b610b55565b005b34801561038357600080fd5b5061039e60048036038101906103999190612fde565b610bb5565b6040516103ab919061391a565b60405180910390f35b3480156103c057600080fd5b506103c9610c5a565b6040516103d6919061391a565b60405180910390f35b3480156103eb57600080fd5b5061040660048036038101906104019190612fde565b610c60565b005b34801561041457600080fd5b5061042f600480360381019061042a9190612ed8565b610ccf565b005b34801561043d57600080fd5b50610458600480360381019061045391906130ad565b610cef565b604051610465919061391a565b60405180910390f35b34801561047a57600080fd5b506104956004803603810190610490919061306c565b610d86565b005b3480156104a357600080fd5b506104ac610e1c565b6040516104b991906135db565b60405180910390f35b6104dc60048036038101906104d791906130ad565b610fcd565b005b3480156104ea57600080fd5b50610505600480360381019061050091906130ad565b611157565b6040516105129190613574565b60405180910390f35b34801561052757600080fd5b50610542600480360381019061053d9190612e73565b611209565b60405161054f919061391a565b60405180910390f35b34801561056457600080fd5b5061056d6112c1565b005b34801561057b57600080fd5b50610584611349565b6040516105919190613574565b60405180910390f35b3480156105a657600080fd5b506105af611373565b6040516105bc9190613618565b60405180910390f35b3480156105d157600080fd5b506105ec60048036038101906105e79190612fa2565b611405565b005b3480156105fa57600080fd5b5061060361141b565b604051610610919061391a565b60405180910390f35b34801561062557600080fd5b5061062e611426565b60405161063b919061391a565b60405180910390f35b34801561065057600080fd5b5061066b60048036038101906106669190612f27565b611436565b005b34801561067957600080fd5b50610682611498565b60405161068f919061391a565b60405180910390f35b3480156106a457600080fd5b506106bf60048036038101906106ba91906130ad565b6114a7565b6040516106cc9190613618565b60405180910390f35b3480156106e157600080fd5b506106ea61154e565b6040516106f79190613618565b60405180910390f35b34801561070c57600080fd5b5061072760048036038101906107229190612e9c565b6115dc565b60405161073491906135fd565b60405180910390f35b610757600480360381019061075291906130ad565b611670565b005b34801561076557600080fd5b50610780600480360381019061077b9190612e73565b6117fb565b005b60007f780e9d63000000000000000000000000000000000000000000000000000000007bffffffffffffffffffffffffffffffffffffffffffffffffffffffff1916827bffffffffffffffffffffffffffffffffffffffffffffffffffffffff191614806107f557506107f4826118f3565b5b9050919050565b60606000805461080b90613c03565b80601f016020809104026020016040519081016040528092919081815260200182805461083790613c03565b80156108845780601f1061085957610100808354040283529160200191610884565b820191906000526020600020905b81548152906001019060200180831161086757829003601f168201915b5050505050905090565b6000610899826119d5565b6108d8576040517f08c379a00000000000000000000000000000000000000000000000000000000081526004016108cf9061385a565b60405180910390fd5b6004600083815260200190815260200160002060009054906101000a900473ffffffffffffffffffffffffffffffffffffffff169050919050565b600061091e82611157565b90508073ffffffffffffffffffffffffffffffffffffffff168373ffffffffffffffffffffffffffffffffffffffff16141561098f576040517f08c379a0000000000000000000000000000000000000000000000000000000008152600401610986906138ba565b60405180910390fd5b8073ffffffffffffffffffffffffffffffffffffffff166109ae611a41565b73ffffffffffffffffffffffffffffffffffffffff1614806109dd57506109dc816109d7611a41565b6115dc565b5b610a1c576040517f08c379a0000000000000000000000000000000000000000000000000000000008152600401610a13906137ba565b60405180910390fd5b610a268383611a49565b505050565b602881565b610a38611a41565b73ffffffffffffffffffffffffffffffffffffffff16610a56611349565b73ffffffffffffffffffffffffffffffffffffffff1614610aac576040517f08c379a0000000000000000000000000000000000000000000000000000000008152600401610aa39061387a565b60405180910390fd5b6000610ab8600b611b02565b9050611bea610ad1602883611b1090919063ffffffff16565b10610b11576040517f08c379a0000000000000000000000000000000000000000000000000000000008152600401610b089061363a565b60405180910390fd5b60005b6028811015610b3857610b25611b26565b8080610b3090613c66565b915050610b14565b5050565b6000600880549050905090565b67013fbe85edc9000081565b610b66610b60611a41565b82611b4b565b610ba5576040517f08c379a0000000000000000000000000000000000000000000000000000000008152600401610b9c906138da565b60405180910390fd5b610bb0838383611c29565b505050565b6000610bc083611209565b8210610c01576040517f08c379a0000000000000000000000000000000000000000000000000000000008152600401610bf89061365a565b60405180910390fd5b600660008473ffffffffffffffffffffffffffffffffffffffff1673ffffffffffffffffffffffffffffffffffffffff168152602001908152602001600020600083815260200190815260200160002054905092915050565b611bea81565b610c71610c6b611a41565b82611b4b565b610cb0576040517f08c379a0000000000000000000000000000000000000000000000000000000008152600401610ca7906137da565b60405180910390fd5b610ccb33838360405180602001604052806000815250611e90565b5050565b610cea83838360405180602001604052806000815250611436565b505050565b6000610cf9610b3c565b8210610d3a576040517f08c379a0000000000000000000000000000000000000000000000000000000008152600401610d31906138fa565b60405180910390fd5b60088281548110610d74577f4e487b7100000000000000000000000000000000000000000000000000000000600052603260045260246000fd5b90600052602060002001549050919050565b610d8e611a41565b73ffffffffffffffffffffffffffffffffffffffff16610dac611349565b73ffffffffffffffffffffffffffffffffffffffff1614610e02576040517f08c379a0000000000000000000000000000000000000000000000000000000008152600401610df99061387a565b60405180910390fd5b80600c9080519060200190610e18929190612c97565b5050565b60606000806000905060005b610e32600b611b02565b811015610e97573373ffffffffffffffffffffffffffffffffffffffff16610e5982611157565b73ffffffffffffffffffffffffffffffffffffffff161415610e84578280610e8090613c66565b9350505b8080610e8f90613c66565b915050610e28565b5060008267ffffffffffffffff811115610eda577f4e487b7100000000000000000000000000000000000000000000000000000000600052604160045260246000fd5b604051908082528060200260200182016040528015610f085781602001602082028036833780820191505090505b50905060005b610f18600b611b02565b811015610fc3573373ffffffffffffffffffffffffffffffffffffffff16610f3f82611157565b73ffffffffffffffffffffffffffffffffffffffff161415610fb05780828481518110610f95577f4e487b7100000000000000000000000000000000000000000000000000000000600052603260045260246000fd5b6020026020010181815250508280610fac90613c66565b9350505b8080610fbb90613c66565b915050610f0e565b5080935050505090565b6000610fd9600b611b02565b9050611bea610ff18383611b1090919063ffffffff16565b1115611032576040517f08c379a00000000000000000000000000000000000000000000000000000000081526004016110299061375a565b60405180910390fd5b600082118015611043575060288211155b611082576040517f08c379a00000000000000000000000000000000000000000000000000000000081526004016110799061377a565b60405180910390fd5b61109c8266f8b0a10e470000611eec90919063ffffffff16565b3410156110de576040517f08c379a00000000000000000000000000000000000000000000000000000000081526004016110d59061373a565b60405180910390fd5b6110e6611349565b73ffffffffffffffffffffffffffffffffffffffff166108fc349081150290604051600060405180830381858888f1935050505015801561112b573d6000803e3d6000fd5b5060005b828110156111525761113f611b26565b808061114a90613c66565b91505061112f565b505050565b6000806002600084815260200190815260200160002060009054906101000a900473ffffffffffffffffffffffffffffffffffffffff169050600073ffffffffffffffffffffffffffffffffffffffff168173ffffffffffffffffffffffffffffffffffffffff161415611200576040517f08c379a00000000000000000000000000000000000000000000000000000000081526004016111f79061381a565b60405180910390fd5b80915050919050565b60008073ffffffffffffffffffffffffffffffffffffffff168273ffffffffffffffffffffffffffffffffffffffff16141561127a576040517f08c379a0000000000000000000000000000000000000000000000000000000008152600401611271906137fa565b60405180910390fd5b600360008373ffffffffffffffffffffffffffffffffffffffff1673ffffffffffffffffffffffffffffffffffffffff168152602001908152602001600020549050919050565b6112c9611a41565b73ffffffffffffffffffffffffffffffffffffffff166112e7611349565b73ffffffffffffffffffffffffffffffffffffffff161461133d576040517f08c379a00000000000000000000000000000000000000000000000000000000081526004016113349061387a565b60405180910390fd5b6113476000611f02565b565b6000600a60009054906101000a900473ffffffffffffffffffffffffffffffffffffffff16905090565b60606001805461138290613c03565b80601f01602080910402602001604051908101604052809291908181526020018280546113ae90613c03565b80156113fb5780601f106113d0576101008083540402835291602001916113fb565b820191906000526020600020905b8154815290600101906020018083116113de57829003601f168201915b5050505050905090565b611417611410611a41565b8383611fc8565b5050565b66f8b0a10e47000081565b600067013fbe85edc90000905090565b611447611441611a41565b83611b4b565b611486576040517f08c379a000000000000000000000000000000000000000000000000000000000815260040161147d906138da565b60405180910390fd5b61149284848484611e90565b50505050565b600066f8b0a10e470000905090565b60606114b2826119d5565b6114f1576040517f08c379a00000000000000000000000000000000000000000000000000000000081526004016114e89061389a565b60405180910390fd5b60006114fb612135565b9050600081511161151b5760405180602001604052806000815250611546565b80611525846121c7565b604051602001611536929190613550565b6040516020818303038152906040525b915050919050565b600c805461155b90613c03565b80601f016020809104026020016040519081016040528092919081815260200182805461158790613c03565b80156115d45780601f106115a9576101008083540402835291602001916115d4565b820191906000526020600020905b8154815290600101906020018083116115b757829003601f168201915b505050505081565b6000600560008473ffffffffffffffffffffffffffffffffffffffff1673ffffffffffffffffffffffffffffffffffffffff16815260200190815260200160002060008373ffffffffffffffffffffffffffffffffffffffff1673ffffffffffffffffffffffffffffffffffffffff16815260200190815260200160002060009054906101000a900460ff16905092915050565b600061167c600b611b02565b9050611bea6116948383611b1090919063ffffffff16565b11156116d5576040517f08c379a00000000000000000000000000000000000000000000000000000000081526004016116cc9061375a565b60405180910390fd5b6000821180156116e6575060288211155b611725576040517f08c379a000000000000000000000000000000000000000000000000000000000815260040161171c9061377a565b60405180910390fd5b6117408267013fbe85edc90000611eec90919063ffffffff16565b341015611782576040517f08c379a00000000000000000000000000000000000000000000000000000000081526004016117799061373a565b60405180910390fd5b61178a611349565b73ffffffffffffffffffffffffffffffffffffffff166108fc349081150290604051600060405180830381858888f193505050501580156117cf573d6000803e3d6000fd5b5060005b828110156117f6576117e3611b26565b80806117ee90613c66565b9150506117d3565b505050565b611803611a41565b73ffffffffffffffffffffffffffffffffffffffff16611821611349565b73ffffffffffffffffffffffffffffffffffffffff1614611877576040517f08c379a000000000000000000000000000000000000000000000000000000000815260040161186e9061387a565b60405180910390fd5b600073ffffffffffffffffffffffffffffffffffffffff168173ffffffffffffffffffffffffffffffffffffffff1614156118e7576040517f08c379a00000000000000000000000000000000000000000000000000000000081526004016118de9061369a565b60405180910390fd5b6118f081611f02565b50565b60007f80ac58cd000000000000000000000000000000000000000000000000000000007bffffffffffffffffffffffffffffffffffffffffffffffffffffffff1916827bffffffffffffffffffffffffffffffffffffffffffffffffffffffff191614806119be57507f5b5e139f000000000000000000000000000000000000000000000000000000007bffffffffffffffffffffffffffffffffffffffffffffffffffffffff1916827bffffffffffffffffffffffffffffffffffffffffffffffffffffffff1916145b806119ce57506119cd82612374565b5b9050919050565b60008073ffffffffffffffffffffffffffffffffffffffff166002600084815260200190815260200160002060009054906101000a900473ffffffffffffffffffffffffffffffffffffffff1673ffffffffffffffffffffffffffffffffffffffff1614159050919050565b600033905090565b816004600083815260200190815260200160002060006101000a81548173ffffffffffffffffffffffffffffffffffffffff021916908373ffffffffffffffffffffffffffffffffffffffff160217905550808273ffffffffffffffffffffffffffffffffffffffff16611abc83611157565b73ffffffffffffffffffffffffffffffffffffffff167f8c5be1e5ebec7d5bd14f71427d1e84f3dd0314c0f7b2291e5b200ac8c7c3b92560405160405180910390a45050565b600081600001549050919050565b60008183611b1e9190613a38565b905092915050565b6000611b32600b611b02565b9050611b3e33826123de565b611b48600b6123fc565b50565b6000611b56826119d5565b611b95576040517f08c379a0000000000000000000000000000000000000000000000000000000008152600401611b8c9061379a565b60405180910390fd5b6000611ba083611157565b90508073ffffffffffffffffffffffffffffffffffffffff168473ffffffffffffffffffffffffffffffffffffffff161480611be25750611be181856115dc565b5b80611c2057508373ffffffffffffffffffffffffffffffffffffffff16611c088461088e565b73ffffffffffffffffffffffffffffffffffffffff16145b91505092915050565b8273ffffffffffffffffffffffffffffffffffffffff16611c4982611157565b73ffffffffffffffffffffffffffffffffffffffff1614611c9f576040517f08c379a0000000000000000000000000000000000000000000000000000000008152600401611c96906136ba565b60405180910390fd5b600073ffffffffffffffffffffffffffffffffffffffff168273ffffffffffffffffffffffffffffffffffffffff161415611d0f576040517f08c379a0000000000000000000000000000000000000000000000000000000008152600401611d06906136fa565b60405180910390fd5b611d1a838383612412565b611d25600082611a49565b6001600360008573ffffffffffffffffffffffffffffffffffffffff1673ffffffffffffffffffffffffffffffffffffffff1681526020019081526020016000206000828254611d759190613b19565b925050819055506001600360008473ffffffffffffffffffffffffffffffffffffffff1673ffffffffffffffffffffffffffffffffffffffff1681526020019081526020016000206000828254611dcc9190613a38565b92505081905550816002600083815260200190815260200160002060006101000a81548173ffffffffffffffffffffffffffffffffffffffff021916908373ffffffffffffffffffffffffffffffffffffffff160217905550808273ffffffffffffffffffffffffffffffffffffffff168473ffffffffffffffffffffffffffffffffffffffff167fddf252ad1be2c89b69c2b068fc378daa952ba7f163c4a11628f55a4df523b3ef60405160405180910390a4611e8b838383612526565b505050565b611e9b848484611c29565b611ea78484848461252b565b611ee6576040517f08c379a0000000000000000000000000000000000000000000000000000000008152600401611edd9061367a565b60405180910390fd5b50505050565b60008183611efa9190613abf565b905092915050565b6000600a60009054906101000a900473ffffffffffffffffffffffffffffffffffffffff16905081600a60006101000a81548173ffffffffffffffffffffffffffffffffffffffff021916908373ffffffffffffffffffffffffffffffffffffffff1602179055508173ffffffffffffffffffffffffffffffffffffffff168173ffffffffffffffffffffffffffffffffffffffff167f8be0079c531659141344cd1fd0a4f28419497f9722a3daafe3b4186f6b6457e060405160405180910390a35050565b8173ffffffffffffffffffffffffffffffffffffffff168373ffffffffffffffffffffffffffffffffffffffff161415612037576040517f08c379a000000000000000000000000000000000000000000000000000000000815260040161202e9061371a565b60405180910390fd5b80600560008573ffffffffffffffffffffffffffffffffffffffff1673ffffffffffffffffffffffffffffffffffffffff16815260200190815260200160002060008473ffffffffffffffffffffffffffffffffffffffff1673ffffffffffffffffffffffffffffffffffffffff16815260200190815260200160002060006101000a81548160ff0219169083151502179055508173ffffffffffffffffffffffffffffffffffffffff168373ffffffffffffffffffffffffffffffffffffffff167f17307eab39ab6107e8899845ad3d59bd9653f200f220920489ca2b5937696c318360405161212891906135fd565b60405180910390a3505050565b6060600c805461214490613c03565b80601f016020809104026020016040519081016040528092919081815260200182805461217090613c03565b80156121bd5780601f10612192576101008083540402835291602001916121bd565b820191906000526020600020905b8154815290600101906020018083116121a057829003601f168201915b5050505050905090565b6060600082141561220f576040518060400160405280600181526020017f3000000000000000000000000000000000000000000000000000000000000000815250905061236f565b600082905060005b6000821461224157808061222a90613c66565b915050600a8261223a9190613a8e565b9150612217565b60008167ffffffffffffffff811115612283577f4e487b7100000000000000000000000000000000000000000000000000000000600052604160045260246000fd5b6040519080825280601f01601f1916602001820160405280156122b55781602001600182028036833780820191505090505b5090505b60008514612368576001826122ce9190613b19565b9150600a856122dd9190613caf565b60306122e99190613a38565b60f81b818381518110612325577f4e487b7100000000000000000000000000000000000000000000000000000000600052603260045260246000fd5b60200101907effffffffffffffffffffffffffffffffffffffffffffffffffffffffffffff1916908160001a905350600a856123619190613a8e565b94506122b9565b8093505050505b919050565b60007f01ffc9a7000000000000000000000000000000000000000000000000000000007bffffffffffffffffffffffffffffffffffffffffffffffffffffffff1916827bffffffffffffffffffffffffffffffffffffffffffffffffffffffff1916149050919050565b6123f88282604051806020016040528060008152506126c2565b5050565b6001816000016000828254019250508190555050565b61241d83838361271d565b600073ffffffffffffffffffffffffffffffffffffffff168373ffffffffffffffffffffffffffffffffffffffff1614156124605761245b81612722565b61249f565b8173ffffffffffffffffffffffffffffffffffffffff168373ffffffffffffffffffffffffffffffffffffffff161461249e5761249d838261276b565b5b5b600073ffffffffffffffffffffffffffffffffffffffff168273ffffffffffffffffffffffffffffffffffffffff1614156124e2576124dd816128d8565b612521565b8273ffffffffffffffffffffffffffffffffffffffff168273ffffffffffffffffffffffffffffffffffffffff16146125205761251f8282612a1b565b5b5b505050565b505050565b600061254c8473ffffffffffffffffffffffffffffffffffffffff16612a9a565b156126b5578373ffffffffffffffffffffffffffffffffffffffff1663150b7a02612575611a41565b8786866040518563ffffffff1660e01b8152600401612597949392919061358f565b602060405180830381600087803b1580156125b157600080fd5b505af19250505080156125e257506040513d601f19601f820116820180604052508101906125df9190613043565b60015b612665573d8060008114612612576040519150601f19603f3d011682016040523d82523d6000602084013e612617565b606091505b5060008151141561265d576040517f08c379a00000000000000000000000000000000000000000000000000000000081526004016126549061367a565b60405180910390fd5b805181602001fd5b63150b7a0260e01b7bffffffffffffffffffffffffffffffffffffffffffffffffffffffff1916817bffffffffffffffffffffffffffffffffffffffffffffffffffffffff1916149150506126ba565b600190505b949350505050565b6126cc8383612abd565b6126d9600084848461252b565b612718576040517f08c379a000000000000000000000000000000000000000000000000000000000815260040161270f9061367a565b60405180910390fd5b505050565b505050565b6008805490506009600083815260200190815260200160002081905550600881908060018154018082558091505060019003906000526020600020016000909190919091505550565b6000600161277884611209565b6127829190613b19565b9050600060076000848152602001908152602001600020549050818114612867576000600660008673ffffffffffffffffffffffffffffffffffffffff1673ffffffffffffffffffffffffffffffffffffffff168152602001908152602001600020600084815260200190815260200160002054905080600660008773ffffffffffffffffffffffffffffffffffffffff1673ffffffffffffffffffffffffffffffffffffffff168152602001908152602001600020600084815260200190815260200160002081905550816007600083815260200190815260200160002081905550505b6007600084815260200190815260200160002060009055600660008573ffffffffffffffffffffffffffffffffffffffff1673ffffffffffffffffffffffffffffffffffffffff16815260200190815260200160002060008381526020019081526020016000206000905550505050565b600060016008805490506128ec9190613b19565b9050600060096000848152602001908152602001600020549050600060088381548110612942577f4e487b7100000000000000000000000000000000000000000000000000000000600052603260045260246000fd5b90600052602060002001549050806008838154811061298a577f4e487b7100000000000000000000000000000000000000000000000000000000600052603260045260246000fd5b9060005260206000200181905550816009600083815260200190815260200160002081905550600960008581526020019081526020016000206000905560088054806129ff577f4e487b7100000000000000000000000000000000000000000000000000000000600052603160045260246000fd5b6001900381819060005260206000200160009055905550505050565b6000612a2683611209565b905081600660008573ffffffffffffffffffffffffffffffffffffffff1673ffffffffffffffffffffffffffffffffffffffff168152602001908152602001600020600083815260200190815260200160002081905550806007600084815260200190815260200160002081905550505050565b6000808273ffffffffffffffffffffffffffffffffffffffff163b119050919050565b600073ffffffffffffffffffffffffffffffffffffffff168273ffffffffffffffffffffffffffffffffffffffff161415612b2d576040517f08c379a0000000000000000000000000000000000000000000000000000000008152600401612b249061383a565b60405180910390fd5b612b36816119d5565b15612b76576040517f08c379a0000000000000000000000000000000000000000000000000000000008152600401612b6d906136da565b60405180910390fd5b612b8260008383612412565b6001600360008473ffffffffffffffffffffffffffffffffffffffff1673ffffffffffffffffffffffffffffffffffffffff1681526020019081526020016000206000828254612bd29190613a38565b92505081905550816002600083815260200190815260200160002060006101000a81548173ffffffffffffffffffffffffffffffffffffffff021916908373ffffffffffffffffffffffffffffffffffffffff160217905550808273ffffffffffffffffffffffffffffffffffffffff16600073ffffffffffffffffffffffffffffffffffffffff167fddf252ad1be2c89b69c2b068fc378daa952ba7f163c4a11628f55a4df523b3ef60405160405180910390a4612c9360008383612526565b5050565b828054612ca390613c03565b90600052602060002090601f016020900481019282612cc55760008555612d0c565b82601f10612cde57805160ff1916838001178555612d0c565b82800160010185558215612d0c579182015b82811115612d0b578251825591602001919060010190612cf0565b5b509050612d199190612d1d565b5090565b5b80821115612d36576000816000905550600101612d1e565b5090565b6000612d4d612d488461395a565b613935565b905082815260208101848484011115612d6557600080fd5b612d70848285613bc1565b509392505050565b6000612d8b612d868461398b565b613935565b905082815260208101848484011115612da357600080fd5b612dae848285613bc1565b509392505050565b600081359050612dc5816143e2565b92915050565b600081359050612dda816143f9565b92915050565b600081359050612def81614410565b92915050565b600081519050612e0481614410565b92915050565b600082601f830112612e1b57600080fd5b8135612e2b848260208601612d3a565b91505092915050565b600082601f830112612e4557600080fd5b8135612e55848260208601612d78565b91505092915050565b600081359050612e6d81614427565b92915050565b600060208284031215612e8557600080fd5b6000612e9384828501612db6565b91505092915050565b60008060408385031215612eaf57600080fd5b6000612ebd85828601612db6565b9250506020612ece85828601612db6565b9150509250929050565b600080600060608486031215612eed57600080fd5b6000612efb86828701612db6565b9350506020612f0c86828701612db6565b9250506040612f1d86828701612e5e565b9150509250925092565b60008060008060808587031215612f3d57600080fd5b6000612f4b87828801612db6565b9450506020612f5c87828801612db6565b9350506040612f6d87828801612e5e565b925050606085013567ffffffffffffffff811115612f8a57600080fd5b612f9687828801612e0a565b91505092959194509250565b60008060408385031215612fb557600080fd5b6000612fc385828601612db6565b9250506020612fd485828601612dcb565b9150509250929050565b60008060408385031215612ff157600080fd5b6000612fff85828601612db6565b925050602061301085828601612e5e565b9150509250929050565b60006020828403121561302c57600080fd5b600061303a84828501612de0565b91505092915050565b60006020828403121561305557600080fd5b600061306384828501612df5565b91505092915050565b60006020828403121561307e57600080fd5b600082013567ffffffffffffffff81111561309857600080fd5b6130a484828501612e34565b91505092915050565b6000602082840312156130bf57600080fd5b60006130cd84828501612e5e565b91505092915050565b60006130e28383613532565b60208301905092915050565b6130f781613b4d565b82525050565b6000613108826139cc565b61311281856139fa565b935061311d836139bc565b8060005b8381101561314e57815161313588826130d6565b9750613140836139ed565b925050600181019050613121565b5085935050505092915050565b61316481613b5f565b82525050565b6000613175826139d7565b61317f8185613a0b565b935061318f818560208601613bd0565b61319881613d9c565b840191505092915050565b60006131ae826139e2565b6131b88185613a1c565b93506131c8818560208601613bd0565b6131d181613d9c565b840191505092915050565b60006131e7826139e2565b6131f18185613a2d565b9350613201818560208601613bd0565b80840191505092915050565b600061321a601f83613a1c565b915061322582613dad565b602082019050919050565b600061323d602b83613a1c565b915061324882613dd6565b604082019050919050565b6000613260603283613a1c565b915061326b82613e25565b604082019050919050565b6000613283602683613a1c565b915061328e82613e74565b604082019050919050565b60006132a6602583613a1c565b91506132b182613ec3565b604082019050919050565b60006132c9601c83613a1c565b91506132d482613f12565b602082019050919050565b60006132ec602483613a1c565b91506132f782613f3b565b604082019050919050565b600061330f601983613a1c565b915061331a82613f8a565b602082019050919050565b6000613332602283613a1c565b915061333d82613fb3565b604082019050919050565b6000613355601583613a1c565b915061336082614002565b602082019050919050565b6000613378602583613a1c565b91506133838261402b565b604082019050919050565b600061339b602c83613a1c565b91506133a68261407a565b604082019050919050565b60006133be603883613a1c565b91506133c9826140c9565b604082019050919050565b60006133e1603083613a1c565b91506133ec82614118565b604082019050919050565b6000613404602a83613a1c565b915061340f82614167565b604082019050919050565b6000613427602983613a1c565b9150613432826141b6565b604082019050919050565b600061344a602083613a1c565b915061345582614205565b602082019050919050565b600061346d602c83613a1c565b91506134788261422e565b604082019050919050565b6000613490602083613a1c565b915061349b8261427d565b602082019050919050565b60006134b3602f83613a1c565b91506134be826142a6565b604082019050919050565b60006134d6602183613a1c565b91506134e1826142f5565b604082019050919050565b60006134f9603183613a1c565b915061350482614344565b604082019050919050565b600061351c602c83613a1c565b915061352782614393565b604082019050919050565b61353b81613bb7565b82525050565b61354a81613bb7565b82525050565b600061355c82856131dc565b915061356882846131dc565b91508190509392505050565b600060208201905061358960008301846130ee565b92915050565b60006080820190506135a460008301876130ee565b6135b160208301866130ee565b6135be6040830185613541565b81810360608301526135d0818461316a565b905095945050505050565b600060208201905081810360008301526135f581846130fd565b905092915050565b6000602082019050613612600083018461315b565b92915050565b6000602082019050818103600083015261363281846131a3565b905092915050565b600060208201905081810360008301526136538161320d565b9050919050565b6000602082019050818103600083015261367381613230565b9050919050565b6000602082019050818103600083015261369381613253565b9050919050565b600060208201905081810360008301526136b381613276565b9050919050565b600060208201905081810360008301526136d381613299565b9050919050565b600060208201905081810360008301526136f3816132bc565b9050919050565b60006020820190508181036000830152613713816132df565b9050919050565b6000602082019050818103600083015261373381613302565b9050919050565b6000602082019050818103600083015261375381613325565b9050919050565b6000602082019050818103600083015261377381613348565b9050919050565b600060208201905081810360008301526137938161336b565b9050919050565b600060208201905081810360008301526137b38161338e565b9050919050565b600060208201905081810360008301526137d3816133b1565b9050919050565b600060208201905081810360008301526137f3816133d4565b9050919050565b60006020820190508181036000830152613813816133f7565b9050919050565b600060208201905081810360008301526138338161341a565b9050919050565b600060208201905081810360008301526138538161343d565b9050919050565b6000602082019050818103600083015261387381613460565b9050919050565b6000602082019050818103600083015261389381613483565b9050919050565b600060208201905081810360008301526138b3816134a6565b9050919050565b600060208201905081810360008301526138d3816134c9565b9050919050565b600060208201905081810360008301526138f3816134ec565b9050919050565b600060208201905081810360008301526139138161350f565b9050919050565b600060208201905061392f6000830184613541565b92915050565b600061393f613950565b905061394b8282613c35565b919050565b6000604051905090565b600067ffffffffffffffff82111561397557613974613d6d565b5b61397e82613d9c565b9050602081019050919050565b600067ffffffffffffffff8211156139a6576139a5613d6d565b5b6139af82613d9c565b9050602081019050919050565b6000819050602082019050919050565b600081519050919050565b600081519050919050565b600081519050919050565b6000602082019050919050565b600082825260208201905092915050565b600082825260208201905092915050565b600082825260208201905092915050565b600081905092915050565b6000613a4382613bb7565b9150613a4e83613bb7565b9250827fffffffffffffffffffffffffffffffffffffffffffffffffffffffffffffffff03821115613a8357613a82613ce0565b5b828201905092915050565b6000613a9982613bb7565b9150613aa483613bb7565b925082613ab457613ab3613d0f565b5b828204905092915050565b6000613aca82613bb7565b9150613ad583613bb7565b9250817fffffffffffffffffffffffffffffffffffffffffffffffffffffffffffffffff0483118215151615613b0e57613b0d613ce0565b5b828202905092915050565b6000613b2482613bb7565b9150613b2f83613bb7565b925082821015613b4257613b41613ce0565b5b828203905092915050565b6000613b5882613b97565b9050919050565b60008115159050919050565b60007fffffffff0000000000000000000000000000000000000000000000000000000082169050919050565b600073ffffffffffffffffffffffffffffffffffffffff82169050919050565b6000819050919050565b82818337600083830152505050565b60005b83811015613bee578082015181840152602081019050613bd3565b83811115613bfd576000848401525b50505050565b60006002820490506001821680613c1b57607f821691505b60208210811415613c2f57613c2e613d3e565b5b50919050565b613c3e82613d9c565b810181811067ffffffffffffffff82111715613c5d57613c5c613d6d565b5b80604052505050565b6000613c7182613bb7565b91507fffffffffffffffffffffffffffffffffffffffffffffffffffffffffffffffff821415613ca457613ca3613ce0565b5b600182019050919050565b6000613cba82613bb7565b9150613cc583613bb7565b925082613cd557613cd4613d0f565b5b828206905092915050565b7f4e487b7100000000000000000000000000000000000000000000000000000000600052601160045260246000fd5b7f4e487b7100000000000000000000000000000000000000000000000000000000600052601260045260246000fd5b7f4e487b7100000000000000000000000000000000000000000000000000000000600052602260045260246000fd5b7f4e487b7100000000000000000000000000000000000000000000000000000000600052604160045260246000fd5b6000601f19601f8301169050919050565b7f4e6f7420656e6f756768204e465473206c65667420746f207265736572766500600082015250565b7f455243373231456e756d657261626c653a206f776e657220696e646578206f7560008201527f74206f6620626f756e6473000000000000000000000000000000000000000000602082015250565b7f4552433732313a207472616e7366657220746f206e6f6e20455243373231526560008201527f63656976657220696d706c656d656e7465720000000000000000000000000000602082015250565b7f4f776e61626c653a206e6577206f776e657220697320746865207a65726f206160008201527f6464726573730000000000000000000000000000000000000000000000000000602082015250565b7f4552433732313a207472616e736665722066726f6d20696e636f72726563742060008201527f6f776e6572000000000000000000000000000000000000000000000000000000602082015250565b7f4552433732313a20746f6b656e20616c7265616479206d696e74656400000000600082015250565b7f4552433732313a207472616e7366657220746f20746865207a65726f2061646460008201527f7265737300000000000000000000000000000000000000000000000000000000602082015250565b7f4552433732313a20617070726f766520746f2063616c6c657200000000000000600082015250565b7f4e6f7420656e6f75676820657468657220746f207075726368617365204e465460008201527f732e000000000000000000000000000000000000000000000000000000000000602082015250565b7f4e6f7420656e6f756768204e465473206c656674210000000000000000000000600082015250565b7f43616e6e6f74206d696e7420737065636966696564206e756d626572206f662060008201527f4e4654732e000000000000000000000000000000000000000000000000000000602082015250565b7f4552433732313a206f70657261746f7220717565727920666f72206e6f6e657860008201527f697374656e7420746f6b656e0000000000000000000000000000000000000000602082015250565b7f4552433732313a20617070726f76652063616c6c6572206973206e6f74206f7760008201527f6e6572206e6f7220617070726f76656420666f7220616c6c0000000000000000602082015250565b7f414f54413a3a536166655472616e736665723a207472616e736665722063616c60008201527f6c6572206973206e6f74206f776e657200000000000000000000000000000000602082015250565b7f4552433732313a2062616c616e636520717565727920666f7220746865207a6560008201527f726f206164647265737300000000000000000000000000000000000000000000602082015250565b7f4552433732313a206f776e657220717565727920666f72206e6f6e657869737460008201527f656e7420746f6b656e0000000000000000000000000000000000000000000000602082015250565b7f4552433732313a206d696e7420746f20746865207a65726f2061646472657373600082015250565b7f4552433732313a20617070726f76656420717565727920666f72206e6f6e657860008201527f697374656e7420746f6b656e0000000000000000000000000000000000000000602082015250565b7f4f776e61626c653a2063616c6c6572206973206e6f7420746865206f776e6572600082015250565b7f4552433732314d657461646174613a2055524920717565727920666f72206e6f60008201527f6e6578697374656e7420746f6b656e0000000000000000000000000000000000602082015250565b7f4552433732313a20617070726f76616c20746f2063757272656e74206f776e6560008201527f7200000000000000000000000000000000000000000000000000000000000000602082015250565b7f4552433732313a207472616e736665722063616c6c6572206973206e6f74206f60008201527f776e6572206e6f7220617070726f766564000000000000000000000000000000602082015250565b7f455243373231456e756d657261626c653a20676c6f62616c20696e646578206f60008201527f7574206f6620626f756e64730000000000000000000000000000000000000000602082015250565b6143eb81613b4d565b81146143f657600080fd5b50565b61440281613b5f565b811461440d57600080fd5b50565b61441981613b6b565b811461442457600080fd5b50565b61443081613bb7565b811461443b57600080fd5b5056fea264697066735822122013d602906823bab39956f5f2ba96f5a6ee9e2c6f428c05b33a64dba4a2c1b58464736f6c63430008040033",
    "linkReferences": {},
    "deployedLinkReferences": {}
}