{
  "_format": "hh-sol-artifact-1",
  "contractName": "AOTAUpgraded",
  "sourceName": "contracts/AOTA.sol",
  "abi": [
    {
      "inputs": [
        {
          "internalType": "string",
          "name": "baseURI",
          "type": "string"
        },
        {
          "internalType": "string",
          "name": "mockImageLink",
          "type": "string"
        }
      ],
      "stateMutability": "nonpayable",
      "type": "constructor"
    },
    {
      "anonymous": false,
      "inputs": [
        {
          "indexed": true,
          "internalType": "address",
          "name": "owner",
          "type": "address"
        },
        {
          "indexed": true,
          "internalType": "address",
          "name": "approved",
          "type": "address"
        },
        {
          "indexed": true,
          "internalType": "uint256",
          "name": "tokenId",
          "type": "uint256"
        }
      ],
      "name": "Approval",
      "type": "event"
    },
    {
      "anonymous": false,
      "inputs": [
        {
          "indexed": true,
          "internalType": "address",
          "name": "owner",
          "type": "address"
        },
        {
          "indexed": true,
          "internalType": "address",
          "name": "operator",
          "type": "address"
        },
        {
          "indexed": false,
          "internalType": "bool",
          "name": "approved",
          "type": "bool"
        }
      ],
      "name": "ApprovalForAll",
      "type": "event"
    },
    {
      "anonymous": false,
      "inputs": [
        {
          "indexed": true,
          "internalType": "address",
          "name": "previousOwner",
          "type": "address"
        },
        {
          "indexed": true,
          "internalType": "address",
          "name": "newOwner",
          "type": "address"
        }
      ],
      "name": "OwnershipTransferred",
      "type": "event"
    },
    {
      "anonymous": false,
      "inputs": [
        {
          "indexed": true,
          "internalType": "address",
          "name": "from",
          "type": "address"
        },
        {
          "indexed": true,
          "internalType": "address",
          "name": "to",
          "type": "address"
        },
        {
          "indexed": true,
          "internalType": "uint256",
          "name": "tokenId",
          "type": "uint256"
        }
      ],
      "name": "Transfer",
      "type": "event"
    },
    {
      "inputs": [],
      "name": "MAX_PER_MINT",
      "outputs": [
        {
          "internalType": "uint256",
          "name": "",
          "type": "uint256"
        }
      ],
      "stateMutability": "view",
      "type": "function"
    },
    {
      "inputs": [],
      "name": "MAX_SUPPLY",
      "outputs": [
        {
          "internalType": "uint256",
          "name": "",
          "type": "uint256"
        }
      ],
      "stateMutability": "view",
      "type": "function"
    },
    {
      "inputs": [],
      "name": "PRI_PRICE",
      "outputs": [
        {
          "internalType": "uint256",
          "name": "",
          "type": "uint256"
        }
      ],
      "stateMutability": "view",
      "type": "function"
    },
    {
      "inputs": [],
      "name": "PUB_PRICE",
      "outputs": [
        {
          "internalType": "uint256",
          "name": "",
          "type": "uint256"
        }
      ],
      "stateMutability": "view",
      "type": "function"
    },
    {
      "inputs": [
        {
          "internalType": "address[]",
          "name": "listOfUsers",
          "type": "address[]"
        }
      ],
      "name": "addUsersToWhitelist",
      "outputs": [],
      "stateMutability": "nonpayable",
      "type": "function"
    },
    {
      "inputs": [
        {
          "internalType": "address",
          "name": "to",
          "type": "address"
        },
        {
          "internalType": "uint256",
          "name": "tokenId",
          "type": "uint256"
        }
      ],
      "name": "approve",
      "outputs": [],
      "stateMutability": "nonpayable",
      "type": "function"
    },
    {
      "inputs": [
        {
          "internalType": "address",
          "name": "owner",
          "type": "address"
        }
      ],
      "name": "balanceOf",
      "outputs": [
        {
          "internalType": "uint256",
          "name": "",
          "type": "uint256"
        }
      ],
      "stateMutability": "view",
      "type": "function"
    },
    {
      "inputs": [],
      "name": "baseTokenURI",
      "outputs": [
        {
          "internalType": "string",
          "name": "",
          "type": "string"
        }
      ],
      "stateMutability": "view",
      "type": "function"
    },
    {
      "inputs": [],
      "name": "checkStatus",
      "outputs": [
        {
          "internalType": "enum AOTAUpgraded.SalesStatus",
          "name": "",
          "type": "uint8"
        }
      ],
      "stateMutability": "view",
      "type": "function"
    },
    {
      "inputs": [
        {
          "internalType": "uint256",
          "name": "tokenId",
          "type": "uint256"
        }
      ],
      "name": "getApproved",
      "outputs": [
        {
          "internalType": "address",
          "name": "",
          "type": "address"
        }
      ],
      "stateMutability": "view",
      "type": "function"
    },
    {
      "inputs": [],
      "name": "getMyNFTs",
      "outputs": [
        {
          "internalType": "string[]",
          "name": "",
          "type": "string[]"
        }
      ],
      "stateMutability": "view",
      "type": "function"
    },
    {
      "inputs": [
        {
          "internalType": "address",
          "name": "owner",
          "type": "address"
        },
        {
          "internalType": "address",
          "name": "operator",
          "type": "address"
        }
      ],
      "name": "isApprovedForAll",
      "outputs": [
        {
          "internalType": "bool",
          "name": "",
          "type": "bool"
        }
      ],
      "stateMutability": "view",
      "type": "function"
    },
    {
      "inputs": [
        {
          "internalType": "address",
          "name": "",
          "type": "address"
        }
      ],
      "name": "isWhitelisted",
      "outputs": [
        {
          "internalType": "bool",
          "name": "",
          "type": "bool"
        }
      ],
      "stateMutability": "view",
      "type": "function"
    },
    {
      "inputs": [],
      "name": "maxSupply",
      "outputs": [
        {
          "internalType": "uint256",
          "name": "",
          "type": "uint256"
        }
      ],
      "stateMutability": "view",
      "type": "function"
    },
    {
      "inputs": [
        {
          "internalType": "uint256",
          "name": "_count",
          "type": "uint256"
        }
      ],
      "name": "mint",
      "outputs": [],
      "stateMutability": "payable",
      "type": "function"
    },
    {
      "inputs": [],
      "name": "name",
      "outputs": [
        {
          "internalType": "string",
          "name": "",
          "type": "string"
        }
      ],
      "stateMutability": "view",
      "type": "function"
    },
    {
      "inputs": [],
      "name": "owner",
      "outputs": [
        {
          "internalType": "address",
          "name": "",
          "type": "address"
        }
      ],
      "stateMutability": "view",
      "type": "function"
    },
    {
      "inputs": [
        {
          "internalType": "uint256",
          "name": "tokenId",
          "type": "uint256"
        }
      ],
      "name": "ownerOf",
      "outputs": [
        {
          "internalType": "address",
          "name": "",
          "type": "address"
        }
      ],
      "stateMutability": "view",
      "type": "function"
    },
    {
      "inputs": [],
      "name": "priPrice",
      "outputs": [
        {
          "internalType": "uint256",
          "name": "",
          "type": "uint256"
        }
      ],
      "stateMutability": "pure",
      "type": "function"
    },
    {
      "inputs": [],
      "name": "pubPrice",
      "outputs": [
        {
          "internalType": "uint256",
          "name": "",
          "type": "uint256"
        }
      ],
      "stateMutability": "pure",
      "type": "function"
    },
    {
      "inputs": [],
      "name": "renounceOwnership",
      "outputs": [],
      "stateMutability": "nonpayable",
      "type": "function"
    },
    {
      "inputs": [],
      "name": "reserveNFTs",
      "outputs": [],
      "stateMutability": "nonpayable",
      "type": "function"
    },
    {
      "inputs": [
        {
          "internalType": "address",
          "name": "to",
          "type": "address"
        },
        {
          "internalType": "uint256",
          "name": "tokenId",
          "type": "uint256"
        }
      ],
      "name": "safeTransfer",
      "outputs": [],
      "stateMutability": "nonpayable",
      "type": "function"
    },
    {
      "inputs": [
        {
          "internalType": "address",
          "name": "from",
          "type": "address"
        },
        {
          "internalType": "address",
          "name": "to",
          "type": "address"
        },
        {
          "internalType": "uint256",
          "name": "tokenId",
          "type": "uint256"
        }
      ],
      "name": "safeTransferFrom",
      "outputs": [],
      "stateMutability": "nonpayable",
      "type": "function"
    },
    {
      "inputs": [
        {
          "internalType": "address",
          "name": "from",
          "type": "address"
        },
        {
          "internalType": "address",
          "name": "to",
          "type": "address"
        },
        {
          "internalType": "uint256",
          "name": "tokenId",
          "type": "uint256"
        },
        {
          "internalType": "bytes",
          "name": "_data",
          "type": "bytes"
        }
      ],
      "name": "safeTransferFrom",
      "outputs": [],
      "stateMutability": "nonpayable",
      "type": "function"
    },
    {
      "inputs": [
        {
          "internalType": "address",
          "name": "operator",
          "type": "address"
        },
        {
          "internalType": "bool",
          "name": "approved",
          "type": "bool"
        }
      ],
      "name": "setApprovalForAll",
      "outputs": [],
      "stateMutability": "nonpayable",
      "type": "function"
    },
    {
      "inputs": [
        {
          "internalType": "string",
          "name": "_baseTokenURI",
          "type": "string"
        }
      ],
      "name": "setBaseURI",
      "outputs": [],
      "stateMutability": "nonpayable",
      "type": "function"
    },
    {
      "inputs": [
        {
          "internalType": "enum AOTAUpgraded.SalesStatus",
          "name": "status",
          "type": "uint8"
        }
      ],
      "name": "setSalesStatus",
      "outputs": [],
      "stateMutability": "nonpayable",
      "type": "function"
    },
    {
      "inputs": [
        {
          "internalType": "bytes4",
          "name": "interfaceId",
          "type": "bytes4"
        }
      ],
      "name": "supportsInterface",
      "outputs": [
        {
          "internalType": "bool",
          "name": "",
          "type": "bool"
        }
      ],
      "stateMutability": "view",
      "type": "function"
    },
    {
      "inputs": [],
      "name": "symbol",
      "outputs": [
        {
          "internalType": "string",
          "name": "",
          "type": "string"
        }
      ],
      "stateMutability": "view",
      "type": "function"
    },
    {
      "inputs": [
        {
          "internalType": "uint256",
          "name": "tokenId",
          "type": "uint256"
        }
      ],
      "name": "tokenURI",
      "outputs": [
        {
          "internalType": "string",
          "name": "",
          "type": "string"
        }
      ],
      "stateMutability": "view",
      "type": "function"
    },
    {
      "inputs": [],
      "name": "totalSupply",
      "outputs": [
        {
          "internalType": "uint256",
          "name": "",
          "type": "uint256"
        }
      ],
      "stateMutability": "view",
      "type": "function"
    },
    {
      "inputs": [
        {
          "internalType": "address",
          "name": "from",
          "type": "address"
        },
        {
          "internalType": "address",
          "name": "to",
          "type": "address"
        },
        {
          "internalType": "uint256",
          "name": "tokenId",
          "type": "uint256"
        }
      ],
      "name": "transferFrom",
      "outputs": [],
      "stateMutability": "nonpayable",
      "type": "function"
    },
    {
      "inputs": [
        {
          "internalType": "address",
          "name": "newOwner",
          "type": "address"
        }
      ],
      "name": "transferOwnership",
      "outputs": [],
      "stateMutability": "nonpayable",
      "type": "function"
    },
    {
      "inputs": [
        {
          "internalType": "address",
          "name": "",
          "type": "address"
        },
        {
          "internalType": "uint256",
          "name": "",
          "type": "uint256"
        }
      ],
      "name": "userTokens",
      "outputs": [
        {
          "internalType": "uint256",
          "name": "",
          "type": "uint256"
        }
      ],
      "stateMutability": "view",
      "type": "function"
    },
    {
      "inputs": [
        {
          "internalType": "uint256",
          "name": "",
          "type": "uint256"
        }
      ],
      "name": "whitelist",
      "outputs": [
        {
          "internalType": "address",
          "name": "",
          "type": "address"
        }
      ],
      "stateMutability": "view",
      "type": "function"
    }
  ],
  "bytecode": "0x60a06040523480156200001157600080fd5b506040516200646938038062006469833981810160405281019062000037919062000aeb565b6040518060400160405280601181526020017f416c69656e73204f6e20546865204176650000000000000000000000000000008152506040518060400160405280600481526020017f414f544100000000000000000000000000000000000000000000000000000000815250611bea8260009080519060200190620000be929190620009c9565b508160019080519060200190620000d7929190620009c9565b508060808181525050806003819055505050506200010a620000fe6200082660201b60201c565b6200082e60201b60201c565b6000604051806101c0016040528073819eec2c66a512ef94f3a9ac3f7f5d0fdbc2cc6473ffffffffffffffffffffffffffffffffffffffff1673ffffffffffffffffffffffffffffffffffffffff1681526020017316653d0fc9a2da314b2733511556113ddb23a87c73ffffffffffffffffffffffffffffffffffffffff1673ffffffffffffffffffffffffffffffffffffffff16815260200173b087df8742909dde2a73c88bf197237c33ba71ed73ffffffffffffffffffffffffffffffffffffffff1673ffffffffffffffffffffffffffffffffffffffff16815260200173fa0de223b0588e185cac2fed85db73cb9cd71eab73ffffffffffffffffffffffffffffffffffffffff1673ffffffffffffffffffffffffffffffffffffffff1681526020017352914a37a4e8c7a6bb97c92d2ab7ce00285f64fb73ffffffffffffffffffffffffffffffffffffffff1673ffffffffffffffffffffffffffffffffffffffff16815260200173d472de4a85134a838b1dd4b7dfe6f02a28e71d2b73ffffffffffffffffffffffffffffffffffffffff1673ffffffffffffffffffffffffffffffffffffffff16815260200173b4c3c40728a5da172bb264d1f8587661a10c5f2673ffffffffffffffffffffffffffffffffffffffff1673ffffffffffffffffffffffffffffffffffffffff168152602001733f3323b2c02160a69ff6ac83612384906ff9fd7873ffffffffffffffffffffffffffffffffffffffff1673ffffffffffffffffffffffffffffffffffffffff16815260200173cabc2eebd715b8064c66a9bd2ab0b15efdee58fa73ffffffffffffffffffffffffffffffffffffffff1673ffffffffffffffffffffffffffffffffffffffff16815260200173cb4560ce663d65b9117fef1965c302d9e42d524773ffffffffffffffffffffffffffffffffffffffff1673ffffffffffffffffffffffffffffffffffffffff16815260200173633536ef4ff01ccec5d8414d89a45fc63e27c68373ffffffffffffffffffffffffffffffffffffffff1673ffffffffffffffffffffffffffffffffffffffff16815260200173e419c69d17183a69f6cd2bbf233e629fc6768c4b73ffffffffffffffffffffffffffffffffffffffff1673ffffffffffffffffffffffffffffffffffffffff1681526020017311f262897b3f083c9ad3965dbbeaf888f336f8d673ffffffffffffffffffffffffffffffffffffffff1673ffffffffffffffffffffffffffffffffffffffff168152602001735f9ce815fd9e566fac3d866ed4db418270bc132573ffffffffffffffffffffffffffffffffffffffff1673ffffffffffffffffffffffffffffffffffffffff1681525090506000600e141562000534576040517f08c379a00000000000000000000000000000000000000000000000000000000081526004016200052b9062000bac565b60405180910390fd5b6200054583620008f460201b60201c565b81600990805190602001906200055d929190620009c9565b5042600a819055506000600e60006101000a81548160ff02191690836002811115620005b2577f4e487b7100000000000000000000000000000000000000000000000000000000600052602160045260246000fd5b021790555060005b600e8110156200081c57600073ffffffffffffffffffffffffffffffffffffffff168282600e811062000616577f4e487b7100000000000000000000000000000000000000000000000000000000600052603260045260246000fd5b602002015173ffffffffffffffffffffffffffffffffffffffff1614158015620006c85750600c60008383600e811062000679577f4e487b7100000000000000000000000000000000000000000000000000000000600052603260045260246000fd5b602002015173ffffffffffffffffffffffffffffffffffffffff1673ffffffffffffffffffffffffffffffffffffffff16815260200190815260200160002060009054906101000a900460ff16155b156200080657600b8282600e81106200070a577f4e487b7100000000000000000000000000000000000000000000000000000000600052603260045260246000fd5b60200201519080600181540180825580915050600190039060005260206000200160009091909190916101000a81548173ffffffffffffffffffffffffffffffffffffffff021916908373ffffffffffffffffffffffffffffffffffffffff1602179055506001600c60008484600e8110620007af577f4e487b7100000000000000000000000000000000000000000000000000000000600052603260045260246000fd5b602002015173ffffffffffffffffffffffffffffffffffffffff1673ffffffffffffffffffffffffffffffffffffffff16815260200190815260200160002060006101000a81548160ff0219169083151502179055505b8080620008139062000d0c565b915050620005ba565b5050505062000e4a565b600033905090565b6000600860009054906101000a900473ffffffffffffffffffffffffffffffffffffffff16905081600860006101000a81548173ffffffffffffffffffffffffffffffffffffffff021916908373ffffffffffffffffffffffffffffffffffffffff1602179055508173ffffffffffffffffffffffffffffffffffffffff168173ffffffffffffffffffffffffffffffffffffffff167f8be0079c531659141344cd1fd0a4f28419497f9722a3daafe3b4186f6b6457e060405160405180910390a35050565b620009046200082660201b60201c565b73ffffffffffffffffffffffffffffffffffffffff166200092a6200099f60201b60201c565b73ffffffffffffffffffffffffffffffffffffffff161462000983576040517f08c379a00000000000000000000000000000000000000000000000000000000081526004016200097a9062000bce565b60405180910390fd5b80600d90805190602001906200099b929190620009c9565b5050565b6000600860009054906101000a900473ffffffffffffffffffffffffffffffffffffffff16905090565b828054620009d79062000ca0565b90600052602060002090601f016020900481019282620009fb576000855562000a47565b82601f1062000a1657805160ff191683800117855562000a47565b8280016001018555821562000a47579182015b8281111562000a4657825182559160200191906001019062000a29565b5b50905062000a56919062000a5a565b5090565b5b8082111562000a7557600081600090555060010162000a5b565b5090565b600062000a9062000a8a8462000c19565b62000bf0565b90508281526020810184848401111562000aa957600080fd5b62000ab684828562000c6a565b509392505050565b600082601f83011262000ad057600080fd5b815162000ae284826020860162000a79565b91505092915050565b6000806040838503121562000aff57600080fd5b600083015167ffffffffffffffff81111562000b1a57600080fd5b62000b288582860162000abe565b925050602083015167ffffffffffffffff81111562000b4657600080fd5b62000b548582860162000abe565b9150509250929050565b600062000b6d60208362000c4f565b915062000b7a8262000df8565b602082019050919050565b600062000b9460208362000c4f565b915062000ba18262000e21565b602082019050919050565b6000602082019050818103600083015262000bc78162000b5e565b9050919050565b6000602082019050818103600083015262000be98162000b85565b9050919050565b600062000bfc62000c0f565b905062000c0a828262000cd6565b919050565b6000604051905090565b600067ffffffffffffffff82111562000c375762000c3662000db8565b5b62000c428262000de7565b9050602081019050919050565b600082825260208201905092915050565b6000819050919050565b60005b8381101562000c8a57808201518184015260208101905062000c6d565b8381111562000c9a576000848401525b50505050565b6000600282049050600182168062000cb957607f821691505b6020821081141562000cd05762000ccf62000d89565b5b50919050565b62000ce18262000de7565b810181811067ffffffffffffffff8211171562000d035762000d0262000db8565b5b80604052505050565b600062000d198262000c60565b91507fffffffffffffffffffffffffffffffffffffffffffffffffffffffffffffffff82141562000d4f5762000d4e62000d5a565b5b600182019050919050565b7f4e487b7100000000000000000000000000000000000000000000000000000000600052601160045260246000fd5b7f4e487b7100000000000000000000000000000000000000000000000000000000600052602260045260246000fd5b7f4e487b7100000000000000000000000000000000000000000000000000000000600052604160045260246000fd5b6000601f19601f8301169050919050565b7f6c697374206f662077686974656c69737420757365727320697320656d707479600082015250565b7f4f776e61626c653a2063616c6c6572206973206e6f7420746865206f776e6572600082015250565b6080516155fc62000e6d6000396000818161143b01526126de01526155fc6000f3fe6080604052600436106102045760003560e01c806370a0823111610118578063b7cca2d4116100a0578063d547cfb71161006f578063d547cfb714610748578063d5abeb0114610773578063e985e9c51461079e578063f2fde38b146107db578063f9f411d81461080457610204565b8063b7cca2d41461068c578063b88d4fde146106b7578063bddb7be7146106e0578063c87b56dd1461070b57610204565b80638da5cb5b116100e75780638da5cb5b146105c657806395d89b41146105f1578063a0712d681461061c578063a22cb46514610638578063b472070f1461066157610204565b806370a082311461050c578063715018a61461054957806371860d7d146105605780637ebd1b301461058957610204565b806323b872dd1161019b57806342842e0e1161016a57806342842e0e1461042957806355f804b3146104525780635ae698ff1461047b578063629cb2e4146104a45780636352211e146104cf57610204565b806323b872dd1461036f57806332cb6b0c146103985780633af32abf146103c3578063423f6cef1461040057610204565b806309d42b30116101d757806309d42b30146102d7578063144100c71461030257806318160ddd146103195780631e5f5dc01461034457610204565b806301ffc9a71461020957806306fdde0314610246578063081812fc14610271578063095ea7b3146102ae575b600080fd5b34801561021557600080fd5b50610230600480360381019061022b9190613fe8565b610841565b60405161023d91906146e1565b60405180910390f35b34801561025257600080fd5b5061025b610923565b60405161026891906146fc565b60405180910390f35b34801561027d57600080fd5b50610298600480360381019061029391906140a4565b6109b5565b6040516102a591906145da565b60405180910390f35b3480156102ba57600080fd5b506102d560048036038101906102d09190613f6b565b610a3a565b005b3480156102e357600080fd5b506102ec610b52565b6040516102f99190614a1e565b60405180910390f35b34801561030e57600080fd5b50610317610b57565b005b34801561032557600080fd5b5061032e611434565b60405161033b9190614a1e565b60405180910390f35b34801561035057600080fd5b50610359611469565b6040516103669190614a1e565b60405180910390f35b34801561037b57600080fd5b5061039660048036038101906103919190613e65565b611474565b005b3480156103a457600080fd5b506103ad6114d4565b6040516103ba9190614a1e565b60405180910390f35b3480156103cf57600080fd5b506103ea60048036038101906103e59190613e00565b6114da565b6040516103f791906146e1565b60405180910390f35b34801561040c57600080fd5b5061042760048036038101906104229190613f6b565b6114fa565b005b34801561043557600080fd5b50610450600480360381019061044b9190613e65565b611569565b005b34801561045e57600080fd5b5061047960048036038101906104749190614063565b611589565b005b34801561048757600080fd5b506104a2600480360381019061049d9190613fa7565b61161f565b005b3480156104b057600080fd5b506104b961194b565b6040516104c691906146bf565b60405180910390f35b3480156104db57600080fd5b506104f660048036038101906104f191906140a4565b611cf9565b60405161050391906145da565b60405180910390f35b34801561051857600080fd5b50610533600480360381019061052e9190613e00565b611dab565b6040516105409190614a1e565b60405180910390f35b34801561055557600080fd5b5061055e611e63565b005b34801561056c57600080fd5b506105876004803603810190610582919061403a565b611eeb565b005b34801561059557600080fd5b506105b060048036038101906105ab91906140a4565b611fba565b6040516105bd91906145da565b60405180910390f35b3480156105d257600080fd5b506105db611ff9565b6040516105e891906145da565b60405180910390f35b3480156105fd57600080fd5b50610606612023565b60405161061391906146fc565b60405180910390f35b610636600480360381019061063191906140a4565b6120b5565b005b34801561064457600080fd5b5061065f600480360381019061065a9190613f2f565b612502565b005b34801561066d57600080fd5b50610676612518565b6040516106839190614a1e565b60405180910390f35b34801561069857600080fd5b506106a1612524565b6040516106ae9190614a1e565b60405180910390f35b3480156106c357600080fd5b506106de60048036038101906106d99190613eb4565b612533565b005b3480156106ec57600080fd5b506106f5612595565b6040516107029190614a1e565b60405180910390f35b34801561071757600080fd5b50610732600480360381019061072d91906140a4565b6125a5565b60405161073f91906146fc565b60405180910390f35b34801561075457600080fd5b5061075d61264c565b60405161076a91906146fc565b60405180910390f35b34801561077f57600080fd5b506107886126da565b6040516107959190614a1e565b60405180910390f35b3480156107aa57600080fd5b506107c560048036038101906107c09190613e29565b612702565b6040516107d291906146e1565b60405180910390f35b3480156107e757600080fd5b5061080260048036038101906107fd9190613e00565b612796565b005b34801561081057600080fd5b5061082b60048036038101906108269190613f6b565b61288e565b6040516108389190614a1e565b60405180910390f35b60007f80ac58cd000000000000000000000000000000000000000000000000000000007bffffffffffffffffffffffffffffffffffffffffffffffffffffffff1916827bffffffffffffffffffffffffffffffffffffffffffffffffffffffff1916148061090c57507f5b5e139f000000000000000000000000000000000000000000000000000000007bffffffffffffffffffffffffffffffffffffffffffffffffffffffff1916827bffffffffffffffffffffffffffffffffffffffffffffffffffffffff1916145b8061091c575061091b826128bf565b5b9050919050565b60606000805461093290614d78565b80601f016020809104026020016040519081016040528092919081815260200182805461095e90614d78565b80156109ab5780601f10610980576101008083540402835291602001916109ab565b820191906000526020600020905b81548152906001019060200180831161098e57829003601f168201915b5050505050905090565b60006109c082612929565b6109ff576040517f08c379a00000000000000000000000000000000000000000000000000000000081526004016109f69061495e565b60405180910390fd5b6006600083815260200190815260200160002060009054906101000a900473ffffffffffffffffffffffffffffffffffffffff169050919050565b6000610a4582611cf9565b90508073ffffffffffffffffffffffffffffffffffffffff168373ffffffffffffffffffffffffffffffffffffffff161415610ab6576040517f08c379a0000000000000000000000000000000000000000000000000000000008152600401610aad906149be565b60405180910390fd5b8073ffffffffffffffffffffffffffffffffffffffff16610ad5612995565b73ffffffffffffffffffffffffffffffffffffffff161480610b045750610b0381610afe612995565b612702565b5b610b43576040517f08c379a0000000000000000000000000000000000000000000000000000000008152600401610b3a9061487e565b60405180910390fd5b610b4d838361299d565b505050565b609281565b610b5f612995565b73ffffffffffffffffffffffffffffffffffffffff16610b7d611ff9565b73ffffffffffffffffffffffffffffffffffffffff1614610bd3576040517f08c379a0000000000000000000000000000000000000000000000000000000008152600401610bca9061497e565b60405180910390fd5b601060009054906101000a900460ff1615610c23576040517f08c379a0000000000000000000000000000000000000000000000000000000008152600401610c1a906148fe565b60405180910390fd5b6000604051806112400160405280611b8d61ffff168152602001611b5b61ffff168152602001611b3a61ffff168152602001611acd61ffff168152602001611ab361ffff168152602001611aad61ffff168152602001611aa061ffff168152602001611a8361ffff168152602001611a5561ffff168152602001611a3261ffff1681526020016119ea61ffff16815260200161194561ffff1681526020016118dd61ffff1681526020016118d061ffff16815260200161188d61ffff16815260200161187061ffff16815260200161185b61ffff16815260200161181861ffff1681526020016117fc61ffff1681526020016117f061ffff1681526020016117ba61ffff1681526020016117b961ffff16815260200161170461ffff1681526020016116da61ffff1681526020016116c461ffff16815260200161169061ffff16815260200161160561ffff1681526020016115f561ffff1681526020016115cf61ffff1681526020016115c761ffff16815260200161159961ffff16815260200161158461ffff16815260200161153561ffff1681526020016114d061ffff1681526020016114cb61ffff16815260200161149961ffff16815260200161143f61ffff16815260200161139961ffff16815260200161134561ffff16815260200161132161ffff16815260200161131e61ffff16815260200161131161ffff16815260200161130f61ffff1681526020016112e861ffff16815260200161127061ffff16815260200161125061ffff16815260200161121261ffff1681526020016111f261ffff16815260200161119761ffff16815260200161117461ffff16815260200161116d61ffff1681526020016110ed61ffff16815260200161107b61ffff16815260200161105c61ffff16815260200161105761ffff168152602001610fa061ffff168152602001610ef461ffff168152602001610ea861ffff168152602001610ea561ffff168152602001610ea461ffff168152602001610e9261ffff168152602001610db661ffff168152602001610da761ffff168152602001610d3261ffff168152602001610d1261ffff168152602001610d1061ffff168152602001610ca861ffff168152602001610c5161ffff168152602001610c4661ffff168152602001610c2a61ffff168152602001610c2261ffff168152602001610c0a61ffff168152602001610bfc61ffff168152602001610bf361ffff168152602001610bd561ffff168152602001610b5761ffff168152602001610b3661ffff168152602001610b1a61ffff168152602001610b0c61ffff168152602001610b0961ffff168152602001610ac561ffff168152602001610a2c61ffff1681526020016109ec61ffff16815260200161092961ffff16815260200161090261ffff1681526020016108e961ffff1681526020016108b361ffff1681526020016108a761ffff16815260200161086661ffff16815260200161085661ffff16815260200161080a61ffff1681526020016107d061ffff1681526020016107a361ffff16815260200161078d61ffff16815260200161076861ffff16815260200161075661ffff16815260200161075261ffff16815260200161071d61ffff1681526020016106bf61ffff1681526020016106b261ffff1681526020016106af61ffff16815260200161067d61ffff16815260200161067861ffff16815260200161061061ffff1681526020016105f361ffff1681526020016105a261ffff16815260200161051261ffff1681526020016104de61ffff1681526020016104dc61ffff16815260200161049761ffff16815260200161049161ffff16815260200161045961ffff16815260200161043c61ffff16815260200161043b61ffff16815260200161040e61ffff1681526020016103fb61ffff1681526020016103e761ffff1681526020016103e361ffff1681526020016103d461ffff1681526020016103d161ffff16815260200161033661ffff16815260200161031f61ffff1681526020016102eb61ffff1681526020016102e061ffff1681526020016102de61ffff1681526020016102da61ffff1681526020016102a861ffff16815260200161028361ffff16815260200161025261ffff16815260200161024f61ffff16815260200161024061ffff16815260200161020861ffff1681526020016101f161ffff1681526020016101c661ffff16815260200161018d61ffff16815260200161017361ffff16815260200161017261ffff16815260200161014a61ffff16815260200161013661ffff16815260200161011d61ffff16815260200161010961ffff16815260200160c661ffff16815260200160b161ffff168152602001609061ffff168152602001603e61ffff168152602001600c61ffff16815250905060005b60928110156114155761135b3383836092811061134d577f4e487b7100000000000000000000000000000000000000000000000000000000600052603260045260246000fd5b602002015161ffff16612a56565b600f60003373ffffffffffffffffffffffffffffffffffffffff1673ffffffffffffffffffffffffffffffffffffffff1681526020019081526020016000208282609281106113d3577f4e487b7100000000000000000000000000000000000000000000000000000000600052603260045260246000fd5b6020020151908060018154018082558091505060019003906000526020600020016000909161ffff16909190915055808061140d90614ddb565b915050611307565b506001601060006101000a81548160ff02191690831515021790555050565b60006003547f00000000000000000000000000000000000000000000000000000000000000006114649190614c5a565b905090565b66f8b0a10e47000081565b61148561147f612995565b82612c0d565b6114c4576040517f08c379a00000000000000000000000000000000000000000000000000000000081526004016114bb906149fe565b60405180910390fd5b6114cf838383612ceb565b505050565b611bea81565b600c6020528060005260406000206000915054906101000a900460ff1681565b61150b611505612995565b82612c0d565b61154a576040517f08c379a00000000000000000000000000000000000000000000000000000000081526004016115419061489e565b60405180910390fd5b61156533838360405180602001604052806000815250612f52565b5050565b61158483838360405180602001604052806000815250612533565b505050565b611591612995565b73ffffffffffffffffffffffffffffffffffffffff166115af611ff9565b73ffffffffffffffffffffffffffffffffffffffff1614611605576040517f08c379a00000000000000000000000000000000000000000000000000000000081526004016115fc9061497e565b60405180910390fd5b80600d908051906020019061161b929190613b79565b5050565b611627612995565b73ffffffffffffffffffffffffffffffffffffffff16611645611ff9565b73ffffffffffffffffffffffffffffffffffffffff161461169b576040517f08c379a00000000000000000000000000000000000000000000000000000000081526004016116929061497e565b60405180910390fd5b6000815114156116e0576040517f08c379a00000000000000000000000000000000000000000000000000000000081526004016116d79061485e565b60405180910390fd5b60005b815181101561194757600073ffffffffffffffffffffffffffffffffffffffff1682828151811061173d577f4e487b7100000000000000000000000000000000000000000000000000000000600052603260045260246000fd5b602002602001015173ffffffffffffffffffffffffffffffffffffffff16141580156117f35750600c60008383815181106117a1577f4e487b7100000000000000000000000000000000000000000000000000000000600052603260045260246000fd5b602002602001015173ffffffffffffffffffffffffffffffffffffffff1673ffffffffffffffffffffffffffffffffffffffff16815260200190815260200160002060009054906101000a900460ff16155b1561193457600b828281518110611833577f4e487b7100000000000000000000000000000000000000000000000000000000600052603260045260246000fd5b60200260200101519080600181540180825580915050600190039060005260206000200160009091909190916101000a81548173ffffffffffffffffffffffffffffffffffffffff021916908373ffffffffffffffffffffffffffffffffffffffff1602179055506001600c60008484815181106118da577f4e487b7100000000000000000000000000000000000000000000000000000000600052603260045260246000fd5b602002602001015173ffffffffffffffffffffffffffffffffffffffff1673ffffffffffffffffffffffffffffffffffffffff16815260200190815260200160002060006101000a81548160ff0219169083151502179055505b808061193f90614ddb565b9150506116e3565b5050565b606060008060005b600f60003373ffffffffffffffffffffffffffffffffffffffff1673ffffffffffffffffffffffffffffffffffffffff16815260200190815260200160002080549050811015611a7c573373ffffffffffffffffffffffffffffffffffffffff16611a3e600f60003373ffffffffffffffffffffffffffffffffffffffff1673ffffffffffffffffffffffffffffffffffffffff1681526020019081526020016000208381548110611a2e577f4e487b7100000000000000000000000000000000000000000000000000000000600052603260045260246000fd5b9060005260206000200154611cf9565b73ffffffffffffffffffffffffffffffffffffffff161415611a69578280611a6590614ddb565b9350505b8080611a7490614ddb565b915050611953565b5060008267ffffffffffffffff811115611abf577f4e487b7100000000000000000000000000000000000000000000000000000000600052604160045260246000fd5b604051908082528060200260200182016040528015611af257816020015b6060815260200190600190039081611add5790505b50905060005b600f60003373ffffffffffffffffffffffffffffffffffffffff1673ffffffffffffffffffffffffffffffffffffffff16815260200190815260200160002080549050811015611cef573373ffffffffffffffffffffffffffffffffffffffff16611be3600f60003373ffffffffffffffffffffffffffffffffffffffff1673ffffffffffffffffffffffffffffffffffffffff1681526020019081526020016000208381548110611bd3577f4e487b7100000000000000000000000000000000000000000000000000000000600052603260045260246000fd5b9060005260206000200154611cf9565b73ffffffffffffffffffffffffffffffffffffffff161415611cdc57611c89600f60003373ffffffffffffffffffffffffffffffffffffffff1673ffffffffffffffffffffffffffffffffffffffff1681526020019081526020016000208281548110611c79577f4e487b7100000000000000000000000000000000000000000000000000000000600052603260045260246000fd5b90600052602060002001546125a5565b828481518110611cc2577f4e487b7100000000000000000000000000000000000000000000000000000000600052603260045260246000fd5b60200260200101819052508280611cd890614ddb565b9350505b8080611ce790614ddb565b915050611af8565b5080935050505090565b6000806004600084815260200190815260200160002060009054906101000a900473ffffffffffffffffffffffffffffffffffffffff169050600073ffffffffffffffffffffffffffffffffffffffff168173ffffffffffffffffffffffffffffffffffffffff161415611da2576040517f08c379a0000000000000000000000000000000000000000000000000000000008152600401611d99906148de565b60405180910390fd5b80915050919050565b60008073ffffffffffffffffffffffffffffffffffffffff168273ffffffffffffffffffffffffffffffffffffffff161415611e1c576040517f08c379a0000000000000000000000000000000000000000000000000000000008152600401611e13906148be565b60405180910390fd5b600560008373ffffffffffffffffffffffffffffffffffffffff1673ffffffffffffffffffffffffffffffffffffffff168152602001908152602001600020549050919050565b611e6b612995565b73ffffffffffffffffffffffffffffffffffffffff16611e89611ff9565b73ffffffffffffffffffffffffffffffffffffffff1614611edf576040517f08c379a0000000000000000000000000000000000000000000000000000000008152600401611ed69061497e565b60405180910390fd5b611ee96000612fae565b565b611ef3612995565b73ffffffffffffffffffffffffffffffffffffffff16611f11611ff9565b73ffffffffffffffffffffffffffffffffffffffff1614611f67576040517f08c379a0000000000000000000000000000000000000000000000000000000008152600401611f5e9061497e565b60405180910390fd5b80600e60006101000a81548160ff02191690836002811115611fb2577f4e487b7100000000000000000000000000000000000000000000000000000000600052602160045260246000fd5b021790555050565b600b8181548110611fca57600080fd5b906000526020600020016000915054906101000a900473ffffffffffffffffffffffffffffffffffffffff1681565b6000600860009054906101000a900473ffffffffffffffffffffffffffffffffffffffff16905090565b60606001805461203290614d78565b80601f016020809104026020016040519081016040528092919081815260200182805461205e90614d78565b80156120ab5780601f10612080576101008083540402835291602001916120ab565b820191906000526020600020905b81548152906001019060200180831161208e57829003601f168201915b5050505050905090565b60928111156120f9576040517f08c379a00000000000000000000000000000000000000000000000000000000081526004016120f09061473e565b60405180910390fd5b60006002811115612133577f4e487b7100000000000000000000000000000000000000000000000000000000600052602160045260246000fd5b600e60009054906101000a900460ff16600281111561217b577f4e487b7100000000000000000000000000000000000000000000000000000000600052602160045260246000fd5b141561218657600080fd5b600160028111156121c0577f4e487b7100000000000000000000000000000000000000000000000000000000600052602160045260246000fd5b600e60009054906101000a900460ff166002811115612208577f4e487b7100000000000000000000000000000000000000000000000000000000600052602160045260246000fd5b14156122f7576122288166f8b0a10e47000061307490919063ffffffff16565b34101561226a576040517f08c379a00000000000000000000000000000000000000000000000000000000081526004016122619061481e565b60405180910390fd5b600c60003373ffffffffffffffffffffffffffffffffffffffff1673ffffffffffffffffffffffffffffffffffffffff16815260200190815260200160002060009054906101000a900460ff166122f6576040517f08c379a00000000000000000000000000000000000000000000000000000000081526004016122ed9061479e565b60405180910390fd5b5b600280811115612330577f4e487b7100000000000000000000000000000000000000000000000000000000600052602160045260246000fd5b600e60009054906101000a900460ff166002811115612378577f4e487b7100000000000000000000000000000000000000000000000000000000600052602160045260246000fd5b14156123dc576123998167013fbe85edc9000061307490919063ffffffff16565b3410156123db576040517f08c379a00000000000000000000000000000000000000000000000000000000081526004016123d29061481e565b60405180910390fd5b5b6123e4611ff9565b73ffffffffffffffffffffffffffffffffffffffff166108fc349081150290604051600060405180830381858888f19350505050158015612429573d6000803e3d6000fd5b506000612436338361308a565b905060005b81518110156124fd57600f60003373ffffffffffffffffffffffffffffffffffffffff1673ffffffffffffffffffffffffffffffffffffffff1681526020019081526020016000208282815181106124bc577f4e487b7100000000000000000000000000000000000000000000000000000000600052603260045260246000fd5b6020026020010151908060018154018082558091505060019003906000526020600020016000909190919091505580806124f590614ddb565b91505061243b565b505050565b61251461250d612995565b8383613363565b5050565b67013fbe85edc9000081565b600066f8b0a10e470000905090565b61254461253e612995565b83612c0d565b612583576040517f08c379a000000000000000000000000000000000000000000000000000000000815260040161257a906149fe565b60405180910390fd5b61258f84848484612f52565b50505050565b600067013fbe85edc90000905090565b60606125b082612929565b6125ef576040517f08c379a00000000000000000000000000000000000000000000000000000000081526004016125e69061499e565b60405180910390fd5b60006125f96134d0565b905060008151116126195760405180602001604052806000815250612644565b806126238461360d565b6040516020016126349291906145b6565b6040516020818303038152906040525b915050919050565b600d805461265990614d78565b80601f016020809104026020016040519081016040528092919081815260200182805461268590614d78565b80156126d25780601f106126a7576101008083540402835291602001916126d2565b820191906000526020600020905b8154815290600101906020018083116126b557829003601f168201915b505050505081565b60007f0000000000000000000000000000000000000000000000000000000000000000905090565b6000600760008473ffffffffffffffffffffffffffffffffffffffff1673ffffffffffffffffffffffffffffffffffffffff16815260200190815260200160002060008373ffffffffffffffffffffffffffffffffffffffff1673ffffffffffffffffffffffffffffffffffffffff16815260200190815260200160002060009054906101000a900460ff16905092915050565b61279e612995565b73ffffffffffffffffffffffffffffffffffffffff166127bc611ff9565b73ffffffffffffffffffffffffffffffffffffffff1614612812576040517f08c379a00000000000000000000000000000000000000000000000000000000081526004016128099061497e565b60405180910390fd5b600073ffffffffffffffffffffffffffffffffffffffff168173ffffffffffffffffffffffffffffffffffffffff161415612882576040517f08c379a00000000000000000000000000000000000000000000000000000000081526004016128799061475e565b60405180910390fd5b61288b81612fae565b50565b600f60205281600052604060002081815481106128aa57600080fd5b90600052602060002001600091509150505481565b60007f01ffc9a7000000000000000000000000000000000000000000000000000000007bffffffffffffffffffffffffffffffffffffffffffffffffffffffff1916827bffffffffffffffffffffffffffffffffffffffffffffffffffffffff1916149050919050565b60008073ffffffffffffffffffffffffffffffffffffffff166004600084815260200190815260200160002060009054906101000a900473ffffffffffffffffffffffffffffffffffffffff1673ffffffffffffffffffffffffffffffffffffffff1614159050919050565b600033905090565b816006600083815260200190815260200160002060006101000a81548173ffffffffffffffffffffffffffffffffffffffff021916908373ffffffffffffffffffffffffffffffffffffffff160217905550808273ffffffffffffffffffffffffffffffffffffffff16612a1083611cf9565b73ffffffffffffffffffffffffffffffffffffffff167f8c5be1e5ebec7d5bd14f71427d1e84f3dd0314c0f7b2291e5b200ac8c7c3b92560405160405180910390a45050565b3273ffffffffffffffffffffffffffffffffffffffff16612a75612995565b73ffffffffffffffffffffffffffffffffffffffff1614612acb576040517f08c379a0000000000000000000000000000000000000000000000000000000008152600401612ac2906147be565b60405180910390fd5b600073ffffffffffffffffffffffffffffffffffffffff168273ffffffffffffffffffffffffffffffffffffffff161415612b3b576040517f08c379a0000000000000000000000000000000000000000000000000000000008152600401612b329061491e565b60405180910390fd5b60016003541015612b81576040517f08c379a0000000000000000000000000000000000000000000000000000000008152600401612b789061493e565b60405180910390fd5b6000612b8f826003546137ba565b9050600360008154612ba090614d4e565b91905081905550612bb1838261387d565b6001600560008573ffffffffffffffffffffffffffffffffffffffff1673ffffffffffffffffffffffffffffffffffffffff1681526020019081526020016000206000828254612c019190614b79565b92505081905550505050565b6000612c1882612929565b612c57576040517f08c379a0000000000000000000000000000000000000000000000000000000008152600401612c4e9061483e565b60405180910390fd5b6000612c6283611cf9565b90508073ffffffffffffffffffffffffffffffffffffffff168473ffffffffffffffffffffffffffffffffffffffff161480612cd157508373ffffffffffffffffffffffffffffffffffffffff16612cb9846109b5565b73ffffffffffffffffffffffffffffffffffffffff16145b80612ce25750612ce18185612702565b5b91505092915050565b8273ffffffffffffffffffffffffffffffffffffffff16612d0b82611cf9565b73ffffffffffffffffffffffffffffffffffffffff1614612d61576040517f08c379a0000000000000000000000000000000000000000000000000000000008152600401612d589061477e565b60405180910390fd5b600073ffffffffffffffffffffffffffffffffffffffff168273ffffffffffffffffffffffffffffffffffffffff161415612dd1576040517f08c379a0000000000000000000000000000000000000000000000000000000008152600401612dc8906147de565b60405180910390fd5b612ddc838383613947565b612de760008261299d565b6001600560008573ffffffffffffffffffffffffffffffffffffffff1673ffffffffffffffffffffffffffffffffffffffff1681526020019081526020016000206000828254612e379190614c5a565b925050819055506001600560008473ffffffffffffffffffffffffffffffffffffffff1673ffffffffffffffffffffffffffffffffffffffff1681526020019081526020016000206000828254612e8e9190614b79565b92505081905550816004600083815260200190815260200160002060006101000a81548173ffffffffffffffffffffffffffffffffffffffff021916908373ffffffffffffffffffffffffffffffffffffffff160217905550808273ffffffffffffffffffffffffffffffffffffffff168473ffffffffffffffffffffffffffffffffffffffff167fddf252ad1be2c89b69c2b068fc378daa952ba7f163c4a11628f55a4df523b3ef60405160405180910390a4612f4d83838361394c565b505050565b612f5d848484612ceb565b612f6984848484613951565b612fa8576040517f08c379a0000000000000000000000000000000000000000000000000000000008152600401612f9f9061471e565b60405180910390fd5b50505050565b6000600860009054906101000a900473ffffffffffffffffffffffffffffffffffffffff16905081600860006101000a81548173ffffffffffffffffffffffffffffffffffffffff021916908373ffffffffffffffffffffffffffffffffffffffff1602179055508173ffffffffffffffffffffffffffffffffffffffff168173ffffffffffffffffffffffffffffffffffffffff167f8be0079c531659141344cd1fd0a4f28419497f9722a3daafe3b4186f6b6457e060405160405180910390a35050565b600081836130829190614c00565b905092915050565b60603273ffffffffffffffffffffffffffffffffffffffff166130ab612995565b73ffffffffffffffffffffffffffffffffffffffff1614613101576040517f08c379a00000000000000000000000000000000000000000000000000000000081526004016130f8906147be565b60405180910390fd5b600073ffffffffffffffffffffffffffffffffffffffff168373ffffffffffffffffffffffffffffffffffffffff161415613171576040517f08c379a00000000000000000000000000000000000000000000000000000000081526004016131689061491e565b60405180910390fd5b600082116131b4576040517f08c379a00000000000000000000000000000000000000000000000000000000081526004016131ab906149de565b60405180910390fd5b8160035410156131f9576040517f08c379a00000000000000000000000000000000000000000000000000000000081526004016131f09061493e565b60405180910390fd5b6000600354905060008367ffffffffffffffff811115613242577f4e487b7100000000000000000000000000000000000000000000000000000000600052604160045260246000fd5b6040519080825280602002602001820160405280156132705781602001602082028036833780820191505090505b50905060005b848110156132fa57600061328a8785613ae8565b9050613296878261387d565b808383815181106132d0577f4e487b7100000000000000000000000000000000000000000000000000000000600052603260045260246000fd5b602002602001018181525050836132e690614d4e565b935050806132f390614ddb565b9050613276565b508160038190555083600560008773ffffffffffffffffffffffffffffffffffffffff1673ffffffffffffffffffffffffffffffffffffffff16815260200190815260200160002060008282546133519190614b79565b92505081905550809250505092915050565b8173ffffffffffffffffffffffffffffffffffffffff168373ffffffffffffffffffffffffffffffffffffffff1614156133d2576040517f08c379a00000000000000000000000000000000000000000000000000000000081526004016133c9906147fe565b60405180910390fd5b80600760008573ffffffffffffffffffffffffffffffffffffffff1673ffffffffffffffffffffffffffffffffffffffff16815260200190815260200160002060008473ffffffffffffffffffffffffffffffffffffffff1673ffffffffffffffffffffffffffffffffffffffff16815260200190815260200160002060006101000a81548160ff0219169083151502179055508173ffffffffffffffffffffffffffffffffffffffff168373ffffffffffffffffffffffffffffffffffffffff167f17307eab39ab6107e8899845ad3d59bd9653f200f220920489ca2b5937696c31836040516134c391906146e1565b60405180910390a3505050565b606062127500600a546134e39190614b79565b42111561357c57600d80546134f790614d78565b80601f016020809104026020016040519081016040528092919081815260200182805461352390614d78565b80156135705780601f1061354557610100808354040283529160200191613570565b820191906000526020600020905b81548152906001019060200180831161355357829003601f168201915b5050505050905061360a565b6009805461358990614d78565b80601f01602080910402602001604051908101604052809291908181526020018280546135b590614d78565b80156136025780601f106135d757610100808354040283529160200191613602565b820191906000526020600020905b8154815290600101906020018083116135e557829003601f168201915b505050505090505b90565b60606000821415613655576040518060400160405280600181526020017f300000000000000000000000000000000000000000000000000000000000000081525090506137b5565b600082905060005b6000821461368757808061367090614ddb565b915050600a826136809190614bcf565b915061365d565b60008167ffffffffffffffff8111156136c9577f4e487b7100000000000000000000000000000000000000000000000000000000600052604160045260246000fd5b6040519080825280601f01601f1916602001820160405280156136fb5781602001600182028036833780820191505090505b5090505b600085146137ae576001826137149190614c5a565b9150600a856137239190614e24565b603061372f9190614b79565b60f81b81838151811061376b577f4e487b7100000000000000000000000000000000000000000000000000000000600052603260045260246000fd5b60200101907effffffffffffffffffffffffffffffffffffffffffffffffffffffffffffff1916908160001a905350600a856137a79190614bcf565b94506136ff565b8093505050505b919050565b600080600260008581526020019081526020016000205490506000808214156137e5578490506137e9565b8190505b60006001856137f89190614c5a565b905080861461387157600060026000838152602001908152602001600020549050600081141561383f5781600260008981526020019081526020016000208190555061386f565b80600260008981526020019081526020016000208190555060026000838152602001908152602001600020600090555b505b81935050505092915050565b61388960008383613947565b816004600083815260200190815260200160002060006101000a81548173ffffffffffffffffffffffffffffffffffffffff021916908373ffffffffffffffffffffffffffffffffffffffff160217905550808273ffffffffffffffffffffffffffffffffffffffff16600073ffffffffffffffffffffffffffffffffffffffff167fddf252ad1be2c89b69c2b068fc378daa952ba7f163c4a11628f55a4df523b3ef60405160405180910390a46139436000838361394c565b5050565b505050565b505050565b60006139728473ffffffffffffffffffffffffffffffffffffffff16613b56565b15613adb578373ffffffffffffffffffffffffffffffffffffffff1663150b7a0261399b612995565b8786866040518563ffffffff1660e01b81526004016139bd94939291906145f5565b602060405180830381600087803b1580156139d757600080fd5b505af1925050508015613a0857506040513d601f19601f82011682018060405250810190613a059190614011565b60015b613a8b573d8060008114613a38576040519150601f19603f3d011682016040523d82523d6000602084013e613a3d565b606091505b50600081511415613a83576040517f08c379a0000000000000000000000000000000000000000000000000000000008152600401613a7a9061471e565b60405180910390fd5b805181602001fd5b63150b7a0260e01b7bffffffffffffffffffffffffffffffffffffffffffffffffffffffff1916817bffffffffffffffffffffffffffffffffffffffffffffffffffffffff191614915050613ae0565b600190505b949350505050565b600080833a434244600143613afd9190614c5a565b403089604051602001613b17989796959493929190614641565b6040516020818303038152906040528051906020012060001c905060008382613b409190614e24565b9050613b4c81856137ba565b9250505092915050565b6000808273ffffffffffffffffffffffffffffffffffffffff163b119050919050565b828054613b8590614d78565b90600052602060002090601f016020900481019282613ba75760008555613bee565b82601f10613bc057805160ff1916838001178555613bee565b82800160010185558215613bee579182015b82811115613bed578251825591602001919060010190613bd2565b5b509050613bfb9190613bff565b5090565b5b80821115613c18576000816000905550600101613c00565b5090565b6000613c2f613c2a84614a5e565b614a39565b90508083825260208201905082856020860282011115613c4e57600080fd5b60005b85811015613c7e5781613c648882613d04565b845260208401935060208301925050600181019050613c51565b5050509392505050565b6000613c9b613c9684614a8a565b614a39565b905082815260208101848484011115613cb357600080fd5b613cbe848285614d0c565b509392505050565b6000613cd9613cd484614abb565b614a39565b905082815260208101848484011115613cf157600080fd5b613cfc848285614d0c565b509392505050565b600081359050613d138161555a565b92915050565b600082601f830112613d2a57600080fd5b8135613d3a848260208601613c1c565b91505092915050565b600081359050613d5281615571565b92915050565b600081359050613d6781615588565b92915050565b600081519050613d7c81615588565b92915050565b600082601f830112613d9357600080fd5b8135613da3848260208601613c88565b91505092915050565b600081359050613dbb8161559f565b92915050565b600082601f830112613dd257600080fd5b8135613de2848260208601613cc6565b91505092915050565b600081359050613dfa816155af565b92915050565b600060208284031215613e1257600080fd5b6000613e2084828501613d04565b91505092915050565b60008060408385031215613e3c57600080fd5b6000613e4a85828601613d04565b9250506020613e5b85828601613d04565b9150509250929050565b600080600060608486031215613e7a57600080fd5b6000613e8886828701613d04565b9350506020613e9986828701613d04565b9250506040613eaa86828701613deb565b9150509250925092565b60008060008060808587031215613eca57600080fd5b6000613ed887828801613d04565b9450506020613ee987828801613d04565b9350506040613efa87828801613deb565b925050606085013567ffffffffffffffff811115613f1757600080fd5b613f2387828801613d82565b91505092959194509250565b60008060408385031215613f4257600080fd5b6000613f5085828601613d04565b9250506020613f6185828601613d43565b9150509250929050565b60008060408385031215613f7e57600080fd5b6000613f8c85828601613d04565b9250506020613f9d85828601613deb565b9150509250929050565b600060208284031215613fb957600080fd5b600082013567ffffffffffffffff811115613fd357600080fd5b613fdf84828501613d19565b91505092915050565b600060208284031215613ffa57600080fd5b600061400884828501613d58565b91505092915050565b60006020828403121561402357600080fd5b600061403184828501613d6d565b91505092915050565b60006020828403121561404c57600080fd5b600061405a84828501613dac565b91505092915050565b60006020828403121561407557600080fd5b600082013567ffffffffffffffff81111561408f57600080fd5b61409b84828501613dc1565b91505092915050565b6000602082840312156140b657600080fd5b60006140c484828501613deb565b91505092915050565b60006140d983836141bc565b905092915050565b6140ea81614c8e565b82525050565b60006140fb82614afc565b6141058185614b2a565b93508360208202850161411785614aec565b8060005b85811015614153578484038952815161413485826140cd565b945061413f83614b1d565b925060208a0199505060018101905061411b565b50829750879550505050505092915050565b61416e81614ca0565b82525050565b61417d81614cac565b82525050565b600061418e82614b07565b6141988185614b3b565b93506141a8818560208601614d1b565b6141b181614f11565b840191505092915050565b60006141c782614b12565b6141d18185614b4c565b93506141e1818560208601614d1b565b6141ea81614f11565b840191505092915050565b600061420082614b12565b61420a8185614b5d565b935061421a818560208601614d1b565b61422381614f11565b840191505092915050565b600061423982614b12565b6142438185614b6e565b9350614253818560208601614d1b565b80840191505092915050565b600061426c603283614b5d565b915061427782614f22565b604082019050919050565b600061428f601e83614b5d565b915061429a82614f71565b602082019050919050565b60006142b2602683614b5d565b91506142bd82614f9a565b604082019050919050565b60006142d5602583614b5d565b91506142e082614fe9565b604082019050919050565b60006142f8601683614b5d565b915061430382615038565b602082019050919050565b600061431b601583614b5d565b915061432682615061565b602082019050919050565b600061433e602483614b5d565b91506143498261508a565b604082019050919050565b6000614361601983614b5d565b915061436c826150d9565b602082019050919050565b6000614384602283614b5d565b915061438f82615102565b604082019050919050565b60006143a7602c83614b5d565b91506143b282615151565b604082019050919050565b60006143ca602083614b5d565b91506143d5826151a0565b602082019050919050565b60006143ed603883614b5d565b91506143f8826151c9565b604082019050919050565b6000614410603083614b5d565b915061441b82615218565b604082019050919050565b6000614433602a83614b5d565b915061443e82615267565b604082019050919050565b6000614456602983614b5d565b9150614461826152b6565b604082019050919050565b6000614479602083614b5d565b915061448482615305565b602082019050919050565b600061449c602083614b5d565b91506144a78261532e565b602082019050919050565b60006144bf602b83614b5d565b91506144ca82615357565b604082019050919050565b60006144e2602c83614b5d565b91506144ed826153a6565b604082019050919050565b6000614505602083614b5d565b9150614510826153f5565b602082019050919050565b6000614528602f83614b5d565b91506145338261541e565b604082019050919050565b600061454b602183614b5d565b91506145568261546d565b604082019050919050565b600061456e602883614b5d565b9150614579826154bc565b604082019050919050565b6000614591603183614b5d565b915061459c8261550b565b604082019050919050565b6145b081614d02565b82525050565b60006145c2828561422e565b91506145ce828461422e565b91508190509392505050565b60006020820190506145ef60008301846140e1565b92915050565b600060808201905061460a60008301876140e1565b61461760208301866140e1565b61462460408301856145a7565b81810360608301526146368184614183565b905095945050505050565b600061010082019050614657600083018b6140e1565b614664602083018a6145a7565b61467160408301896145a7565b61467e60608301886145a7565b61468b60808301876145a7565b61469860a0830186614174565b6146a560c08301856140e1565b6146b260e08301846145a7565b9998505050505050505050565b600060208201905081810360008301526146d981846140f0565b905092915050565b60006020820190506146f66000830184614165565b92915050565b6000602082019050818103600083015261471681846141f5565b905092915050565b600060208201905081810360008301526147378161425f565b9050919050565b6000602082019050818103600083015261475781614282565b9050919050565b60006020820190508181036000830152614777816142a5565b9050919050565b60006020820190508181036000830152614797816142c8565b9050919050565b600060208201905081810360008301526147b7816142eb565b9050919050565b600060208201905081810360008301526147d78161430e565b9050919050565b600060208201905081810360008301526147f781614331565b9050919050565b6000602082019050818103600083015261481781614354565b9050919050565b6000602082019050818103600083015261483781614377565b9050919050565b600060208201905081810360008301526148578161439a565b9050919050565b60006020820190508181036000830152614877816143bd565b9050919050565b60006020820190508181036000830152614897816143e0565b9050919050565b600060208201905081810360008301526148b781614403565b9050919050565b600060208201905081810360008301526148d781614426565b9050919050565b600060208201905081810360008301526148f781614449565b9050919050565b600060208201905081810360008301526149178161446c565b9050919050565b600060208201905081810360008301526149378161448f565b9050919050565b60006020820190508181036000830152614957816144b2565b9050919050565b60006020820190508181036000830152614977816144d5565b9050919050565b60006020820190508181036000830152614997816144f8565b9050919050565b600060208201905081810360008301526149b78161451b565b9050919050565b600060208201905081810360008301526149d78161453e565b9050919050565b600060208201905081810360008301526149f781614561565b9050919050565b60006020820190508181036000830152614a1781614584565b9050919050565b6000602082019050614a3360008301846145a7565b92915050565b6000614a43614a54565b9050614a4f8282614daa565b919050565b6000604051905090565b600067ffffffffffffffff821115614a7957614a78614ee2565b5b602082029050602081019050919050565b600067ffffffffffffffff821115614aa557614aa4614ee2565b5b614aae82614f11565b9050602081019050919050565b600067ffffffffffffffff821115614ad657614ad5614ee2565b5b614adf82614f11565b9050602081019050919050565b6000819050602082019050919050565b600081519050919050565b600081519050919050565b600081519050919050565b6000602082019050919050565b600082825260208201905092915050565b600082825260208201905092915050565b600082825260208201905092915050565b600082825260208201905092915050565b600081905092915050565b6000614b8482614d02565b9150614b8f83614d02565b9250827fffffffffffffffffffffffffffffffffffffffffffffffffffffffffffffffff03821115614bc457614bc3614e55565b5b828201905092915050565b6000614bda82614d02565b9150614be583614d02565b925082614bf557614bf4614e84565b5b828204905092915050565b6000614c0b82614d02565b9150614c1683614d02565b9250817fffffffffffffffffffffffffffffffffffffffffffffffffffffffffffffffff0483118215151615614c4f57614c4e614e55565b5b828202905092915050565b6000614c6582614d02565b9150614c7083614d02565b925082821015614c8357614c82614e55565b5b828203905092915050565b6000614c9982614ce2565b9050919050565b60008115159050919050565b6000819050919050565b60007fffffffff0000000000000000000000000000000000000000000000000000000082169050919050565b600073ffffffffffffffffffffffffffffffffffffffff82169050919050565b6000819050919050565b82818337600083830152505050565b60005b83811015614d39578082015181840152602081019050614d1e565b83811115614d48576000848401525b50505050565b6000614d5982614d02565b91506000821415614d6d57614d6c614e55565b5b600182039050919050565b60006002820490506001821680614d9057607f821691505b60208210811415614da457614da3614eb3565b5b50919050565b614db382614f11565b810181811067ffffffffffffffff82111715614dd257614dd1614ee2565b5b80604052505050565b6000614de682614d02565b91507fffffffffffffffffffffffffffffffffffffffffffffffffffffffffffffffff821415614e1957614e18614e55565b5b600182019050919050565b6000614e2f82614d02565b9150614e3a83614d02565b925082614e4a57614e49614e84565b5b828206905092915050565b7f4e487b7100000000000000000000000000000000000000000000000000000000600052601160045260246000fd5b7f4e487b7100000000000000000000000000000000000000000000000000000000600052601260045260246000fd5b7f4e487b7100000000000000000000000000000000000000000000000000000000600052602260045260246000fd5b7f4e487b7100000000000000000000000000000000000000000000000000000000600052604160045260246000fd5b6000601f19601f8301169050919050565b7f4552433732313a207472616e7366657220746f206e6f6e20455243373231526560008201527f63656976657220696d706c656d656e7465720000000000000000000000000000602082015250565b7f596f752068617665206578636565646564206d617820706572206d696e740000600082015250565b7f4f776e61626c653a206e6577206f776e657220697320746865207a65726f206160008201527f6464726573730000000000000000000000000000000000000000000000000000602082015250565b7f4552433732313a207472616e736665722066726f6d20696e636f72726563742060008201527f6f776e6572000000000000000000000000000000000000000000000000000000602082015250565b7f596f75277265206e6f742077686974656c697374656400000000000000000000600082015250565b7f436f6e7472616374732063616e6e6f74206d696e740000000000000000000000600082015250565b7f4552433732313a207472616e7366657220746f20746865207a65726f2061646460008201527f7265737300000000000000000000000000000000000000000000000000000000602082015250565b7f4552433732313a20617070726f766520746f2063616c6c657200000000000000600082015250565b7f4e6f7420656e6f75676820657468657220746f207075726368617365204e465460008201527f732e000000000000000000000000000000000000000000000000000000000000602082015250565b7f4552433732313a206f70657261746f7220717565727920666f72206e6f6e657860008201527f697374656e7420746f6b656e0000000000000000000000000000000000000000602082015250565b7f6c697374206f662077686974656c69737420757365727320697320656d707479600082015250565b7f4552433732313a20617070726f76652063616c6c6572206973206e6f74206f7760008201527f6e6572206e6f7220617070726f76656420666f7220616c6c0000000000000000602082015250565b7f414f54413a3a536166655472616e736665723a207472616e736665722063616c60008201527f6c6572206973206e6f74206f776e657200000000000000000000000000000000602082015250565b7f4552433732313a2062616c616e636520717565727920666f7220746865207a6560008201527f726f206164647265737300000000000000000000000000000000000000000000602082015250565b7f4552433732313a206f776e657220717565727920666f72206e6f6e657869737460008201527f656e7420746f6b656e0000000000000000000000000000000000000000000000602082015250565b7f526573657276652068617320616c7265616479206265656e206d696e74656421600082015250565b7f4552433732313a206d696e7420746f20746865207a65726f2061646472657373600082015250565b7f455243373231723a206d696e74696e67206d6f726520746f6b656e732074686160008201527f6e20617661696c61626c65000000000000000000000000000000000000000000602082015250565b7f4552433732313a20617070726f76656420717565727920666f72206e6f6e657860008201527f697374656e7420746f6b656e0000000000000000000000000000000000000000602082015250565b7f4f776e61626c653a2063616c6c6572206973206e6f7420746865206f776e6572600082015250565b7f4552433732314d657461646174613a2055524920717565727920666f72206e6f60008201527f6e6578697374656e7420746f6b656e0000000000000000000000000000000000602082015250565b7f4552433732313a20617070726f76616c20746f2063757272656e74206f776e6560008201527f7200000000000000000000000000000000000000000000000000000000000000602082015250565b7f455243373231723a206e65656420746f206d696e74206174206c65617374206f60008201527f6e6520746f6b656e000000000000000000000000000000000000000000000000602082015250565b7f4552433732313a207472616e736665722063616c6c6572206973206e6f74206f60008201527f776e6572206e6f7220617070726f766564000000000000000000000000000000602082015250565b61556381614c8e565b811461556e57600080fd5b50565b61557a81614ca0565b811461558557600080fd5b50565b61559181614cb6565b811461559c57600080fd5b50565b600381106155ac57600080fd5b50565b6155b881614d02565b81146155c357600080fd5b5056fea26469706673582212208f419a32991e724676b6e94d7bfc7c4579c90d27e6fd5400eafb650411ad412364736f6c63430008040033",
  "linkReferences": {},
  "deployedLinkReferences": {}
}