{
  "_format": "hh-sol-artifact-1",
  "contractName": "AOTA",
  "sourceName": "contracts/AOTA.sol",
  "abi": [
    {
      "inputs": [
        {
          "internalType": "string",
          "name": "baseURI",
          "type": "string"
        }
      ],
      "stateMutability": "nonpayable",
      "type": "constructor"
    },
    {
      "anonymous": false,
      "inputs": [
        {
          "indexed": true,
          "internalType": "address",
          "name": "owner",
          "type": "address"
        },
        {
          "indexed": true,
          "internalType": "address",
          "name": "approved",
          "type": "address"
        },
        {
          "indexed": true,
          "internalType": "uint256",
          "name": "tokenId",
          "type": "uint256"
        }
      ],
      "name": "Approval",
      "type": "event"
    },
    {
      "anonymous": false,
      "inputs": [
        {
          "indexed": true,
          "internalType": "address",
          "name": "owner",
          "type": "address"
        },
        {
          "indexed": true,
          "internalType": "address",
          "name": "operator",
          "type": "address"
        },
        {
          "indexed": false,
          "internalType": "bool",
          "name": "approved",
          "type": "bool"
        }
      ],
      "name": "ApprovalForAll",
      "type": "event"
    },
    {
      "anonymous": false,
      "inputs": [
        {
          "indexed": true,
          "internalType": "address",
          "name": "previousOwner",
          "type": "address"
        },
        {
          "indexed": true,
          "internalType": "address",
          "name": "newOwner",
          "type": "address"
        }
      ],
      "name": "OwnershipTransferred",
      "type": "event"
    },
    {
      "anonymous": false,
      "inputs": [
        {
          "indexed": true,
          "internalType": "address",
          "name": "from",
          "type": "address"
        },
        {
          "indexed": true,
          "internalType": "address",
          "name": "to",
          "type": "address"
        },
        {
          "indexed": true,
          "internalType": "uint256",
          "name": "tokenId",
          "type": "uint256"
        }
      ],
      "name": "Transfer",
      "type": "event"
    },
    {
      "inputs": [],
      "name": "MAX_PER_MINT",
      "outputs": [
        {
          "internalType": "uint256",
          "name": "",
          "type": "uint256"
        }
      ],
      "stateMutability": "view",
      "type": "function"
    },
    {
      "inputs": [],
      "name": "MAX_SUPPLY",
      "outputs": [
        {
          "internalType": "uint256",
          "name": "",
          "type": "uint256"
        }
      ],
      "stateMutability": "view",
      "type": "function"
    },
    {
      "inputs": [],
      "name": "PRI_PRICE",
      "outputs": [
        {
          "internalType": "uint256",
          "name": "",
          "type": "uint256"
        }
      ],
      "stateMutability": "view",
      "type": "function"
    },
    {
      "inputs": [],
      "name": "PUB_PRICE",
      "outputs": [
        {
          "internalType": "uint256",
          "name": "",
          "type": "uint256"
        }
      ],
      "stateMutability": "view",
      "type": "function"
    },
    {
      "inputs": [
        {
          "internalType": "address",
          "name": "to",
          "type": "address"
        },
        {
          "internalType": "uint256",
          "name": "tokenId",
          "type": "uint256"
        }
      ],
      "name": "approve",
      "outputs": [],
      "stateMutability": "nonpayable",
      "type": "function"
    },
    {
      "inputs": [
        {
          "internalType": "address",
          "name": "owner",
          "type": "address"
        }
      ],
      "name": "balanceOf",
      "outputs": [
        {
          "internalType": "uint256",
          "name": "",
          "type": "uint256"
        }
      ],
      "stateMutability": "view",
      "type": "function"
    },
    {
      "inputs": [],
      "name": "baseTokenURI",
      "outputs": [
        {
          "internalType": "string",
          "name": "",
          "type": "string"
        }
      ],
      "stateMutability": "view",
      "type": "function"
    },
    {
      "inputs": [
        {
          "internalType": "uint256",
          "name": "tokenId",
          "type": "uint256"
        }
      ],
      "name": "getApproved",
      "outputs": [
        {
          "internalType": "address",
          "name": "",
          "type": "address"
        }
      ],
      "stateMutability": "view",
      "type": "function"
    },
    {
      "inputs": [
        {
          "internalType": "address",
          "name": "owner",
          "type": "address"
        },
        {
          "internalType": "address",
          "name": "operator",
          "type": "address"
        }
      ],
      "name": "isApprovedForAll",
      "outputs": [
        {
          "internalType": "bool",
          "name": "",
          "type": "bool"
        }
      ],
      "stateMutability": "view",
      "type": "function"
    },
    {
      "inputs": [
        {
          "internalType": "uint256",
          "name": "_count",
          "type": "uint256"
        }
      ],
      "name": "mintPriNFTs",
      "outputs": [],
      "stateMutability": "payable",
      "type": "function"
    },
    {
      "inputs": [
        {
          "internalType": "uint256",
          "name": "_count",
          "type": "uint256"
        }
      ],
      "name": "mintPubNFTs",
      "outputs": [],
      "stateMutability": "payable",
      "type": "function"
    },
    {
      "inputs": [],
      "name": "name",
      "outputs": [
        {
          "internalType": "string",
          "name": "",
          "type": "string"
        }
      ],
      "stateMutability": "view",
      "type": "function"
    },
    {
      "inputs": [],
      "name": "owner",
      "outputs": [
        {
          "internalType": "address",
          "name": "",
          "type": "address"
        }
      ],
      "stateMutability": "view",
      "type": "function"
    },
    {
      "inputs": [
        {
          "internalType": "uint256",
          "name": "tokenId",
          "type": "uint256"
        }
      ],
      "name": "ownerOf",
      "outputs": [
        {
          "internalType": "address",
          "name": "",
          "type": "address"
        }
      ],
      "stateMutability": "view",
      "type": "function"
    },
    {
      "inputs": [],
      "name": "renounceOwnership",
      "outputs": [],
      "stateMutability": "nonpayable",
      "type": "function"
    },
    {
      "inputs": [],
      "name": "reserveNFTs",
      "outputs": [],
      "stateMutability": "nonpayable",
      "type": "function"
    },
    {
      "inputs": [
        {
          "internalType": "address",
          "name": "from",
          "type": "address"
        },
        {
          "internalType": "address",
          "name": "to",
          "type": "address"
        },
        {
          "internalType": "uint256",
          "name": "tokenId",
          "type": "uint256"
        }
      ],
      "name": "safeTransferFrom",
      "outputs": [],
      "stateMutability": "nonpayable",
      "type": "function"
    },
    {
      "inputs": [
        {
          "internalType": "address",
          "name": "from",
          "type": "address"
        },
        {
          "internalType": "address",
          "name": "to",
          "type": "address"
        },
        {
          "internalType": "uint256",
          "name": "tokenId",
          "type": "uint256"
        },
        {
          "internalType": "bytes",
          "name": "_data",
          "type": "bytes"
        }
      ],
      "name": "safeTransferFrom",
      "outputs": [],
      "stateMutability": "nonpayable",
      "type": "function"
    },
    {
      "inputs": [
        {
          "internalType": "address",
          "name": "operator",
          "type": "address"
        },
        {
          "internalType": "bool",
          "name": "approved",
          "type": "bool"
        }
      ],
      "name": "setApprovalForAll",
      "outputs": [],
      "stateMutability": "nonpayable",
      "type": "function"
    },
    {
      "inputs": [
        {
          "internalType": "string",
          "name": "_baseTokenURI",
          "type": "string"
        }
      ],
      "name": "setBaseURI",
      "outputs": [],
      "stateMutability": "nonpayable",
      "type": "function"
    },
    {
      "inputs": [
        {
          "internalType": "bytes4",
          "name": "interfaceId",
          "type": "bytes4"
        }
      ],
      "name": "supportsInterface",
      "outputs": [
        {
          "internalType": "bool",
          "name": "",
          "type": "bool"
        }
      ],
      "stateMutability": "view",
      "type": "function"
    },
    {
      "inputs": [],
      "name": "symbol",
      "outputs": [
        {
          "internalType": "string",
          "name": "",
          "type": "string"
        }
      ],
      "stateMutability": "view",
      "type": "function"
    },
    {
      "inputs": [
        {
          "internalType": "uint256",
          "name": "index",
          "type": "uint256"
        }
      ],
      "name": "tokenByIndex",
      "outputs": [
        {
          "internalType": "uint256",
          "name": "",
          "type": "uint256"
        }
      ],
      "stateMutability": "view",
      "type": "function"
    },
    {
      "inputs": [
        {
          "internalType": "address",
          "name": "owner",
          "type": "address"
        },
        {
          "internalType": "uint256",
          "name": "index",
          "type": "uint256"
        }
      ],
      "name": "tokenOfOwnerByIndex",
      "outputs": [
        {
          "internalType": "uint256",
          "name": "",
          "type": "uint256"
        }
      ],
      "stateMutability": "view",
      "type": "function"
    },
    {
      "inputs": [
        {
          "internalType": "uint256",
          "name": "tokenId",
          "type": "uint256"
        }
      ],
      "name": "tokenURI",
      "outputs": [
        {
          "internalType": "string",
          "name": "",
          "type": "string"
        }
      ],
      "stateMutability": "view",
      "type": "function"
    },
    {
      "inputs": [
        {
          "internalType": "address",
          "name": "_owner",
          "type": "address"
        }
      ],
      "name": "tokensOfOwner",
      "outputs": [
        {
          "internalType": "uint256[]",
          "name": "",
          "type": "uint256[]"
        }
      ],
      "stateMutability": "view",
      "type": "function"
    },
    {
      "inputs": [],
      "name": "totalSupply",
      "outputs": [
        {
          "internalType": "uint256",
          "name": "",
          "type": "uint256"
        }
      ],
      "stateMutability": "view",
      "type": "function"
    },
    {
      "inputs": [
        {
          "internalType": "address",
          "name": "from",
          "type": "address"
        },
        {
          "internalType": "address",
          "name": "to",
          "type": "address"
        },
        {
          "internalType": "uint256",
          "name": "tokenId",
          "type": "uint256"
        }
      ],
      "name": "transferFrom",
      "outputs": [],
      "stateMutability": "nonpayable",
      "type": "function"
    },
    {
      "inputs": [
        {
          "internalType": "address",
          "name": "newOwner",
          "type": "address"
        }
      ],
      "name": "transferOwnership",
      "outputs": [],
      "stateMutability": "nonpayable",
      "type": "function"
    },
    {
      "inputs": [],
      "name": "withdraw",
      "outputs": [],
      "stateMutability": "payable",
      "type": "function"
    }
  ],
  "bytecode": "0x60806040523480156200001157600080fd5b5060405162004a3638038062004a368339818101604052810190620000379190620003d4565b6040518060400160405280601181526020017f416c69656e73204f6e20546865204176650000000000000000000000000000008152506040518060400160405280600481526020017f414f5441000000000000000000000000000000000000000000000000000000008152508160009080519060200190620000bb929190620002b2565b508060019080519060200190620000d4929190620002b2565b505050620000f7620000eb6200010f60201b60201c565b6200011760201b60201c565b6200010881620001dd60201b60201c565b506200060c565b600033905090565b6000600a60009054906101000a900473ffffffffffffffffffffffffffffffffffffffff16905081600a60006101000a81548173ffffffffffffffffffffffffffffffffffffffff021916908373ffffffffffffffffffffffffffffffffffffffff1602179055508173ffffffffffffffffffffffffffffffffffffffff168173ffffffffffffffffffffffffffffffffffffffff167f8be0079c531659141344cd1fd0a4f28419497f9722a3daafe3b4186f6b6457e060405160405180910390a35050565b620001ed6200010f60201b60201c565b73ffffffffffffffffffffffffffffffffffffffff16620002136200028860201b60201c565b73ffffffffffffffffffffffffffffffffffffffff16146200026c576040517f08c379a0000000000000000000000000000000000000000000000000000000008152600401620002639062000440565b60405180910390fd5b80600c908051906020019062000284929190620002b2565b5050565b6000600a60009054906101000a900473ffffffffffffffffffffffffffffffffffffffff16905090565b828054620002c09062000508565b90600052602060002090601f016020900481019282620002e4576000855562000330565b82601f10620002ff57805160ff191683800117855562000330565b8280016001018555821562000330579182015b828111156200032f57825182559160200191906001019062000312565b5b5090506200033f919062000343565b5090565b5b808211156200035e57600081600090555060010162000344565b5090565b60006200037962000373846200048b565b62000462565b9050828152602081018484840111156200039257600080fd5b6200039f848285620004d2565b509392505050565b600082601f830112620003b957600080fd5b8151620003cb84826020860162000362565b91505092915050565b600060208284031215620003e757600080fd5b600082015167ffffffffffffffff8111156200040257600080fd5b6200041084828501620003a7565b91505092915050565b600062000428602083620004c1565b91506200043582620005e3565b602082019050919050565b600060208201905081810360008301526200045b8162000419565b9050919050565b60006200046e62000481565b90506200047c82826200053e565b919050565b6000604051905090565b600067ffffffffffffffff821115620004a957620004a8620005a3565b5b620004b482620005d2565b9050602081019050919050565b600082825260208201905092915050565b60005b83811015620004f2578082015181840152602081019050620004d5565b8381111562000502576000848401525b50505050565b600060028204905060018216806200052157607f821691505b6020821081141562000538576200053762000574565b5b50919050565b6200054982620005d2565b810181811067ffffffffffffffff821117156200056b576200056a620005a3565b5b80604052505050565b7f4e487b7100000000000000000000000000000000000000000000000000000000600052602260045260246000fd5b7f4e487b7100000000000000000000000000000000000000000000000000000000600052604160045260246000fd5b6000601f19601f8301169050919050565b7f4f776e61626c653a2063616c6c6572206973206e6f7420746865206f776e6572600082015250565b61441a806200061c6000396000f3fe6080604052600436106101cd5760003560e01c8063634ccdfe116100f7578063a22cb46511610095578063d547cfb711610064578063d547cfb71461065c578063e985e9c514610687578063eba1ce98146106c4578063f2fde38b146106e0576101cd565b8063a22cb465146105a2578063b472070f146105cb578063b88d4fde146105f6578063c87b56dd1461061f576101cd565b8063715018a6116100d1578063715018a6146104f85780638462151c1461050f5780638da5cb5b1461054c57806395d89b4114610577576101cd565b8063634ccdfe146104625780636352211e1461047e57806370a08231146104bb576101cd565b80631e5f5dc01161016f5780633ccfd60b1161013e5780633ccfd60b146103c957806342842e0e146103d35780634f6ccce7146103fc57806355f804b314610439576101cd565b80631e5f5dc01461030d57806323b872dd146103385780632f745c591461036157806332cb6b0c1461039e576101cd565b8063095ea7b3116101ab578063095ea7b31461027757806309d42b30146102a0578063144100c7146102cb57806318160ddd146102e2576101cd565b806301ffc9a7146101d257806306fdde031461020f578063081812fc1461023a575b600080fd5b3480156101de57600080fd5b506101f960048036038101906101f49190612f34565b610709565b6040516102069190613572565b60405180910390f35b34801561021b57600080fd5b50610224610783565b604051610231919061358d565b60405180910390f35b34801561024657600080fd5b50610261600480360381019061025c9190612fc7565b610815565b60405161026e91906134e9565b60405180910390f35b34801561028357600080fd5b5061029e60048036038101906102999190612ef8565b61089a565b005b3480156102ac57600080fd5b506102b56109b2565b6040516102c291906138af565b60405180910390f35b3480156102d757600080fd5b506102e06109b7565b005b3480156102ee57600080fd5b506102f7610ac3565b60405161030491906138af565b60405180910390f35b34801561031957600080fd5b50610322610ad0565b60405161032f91906138af565b60405180910390f35b34801561034457600080fd5b5061035f600480360381019061035a9190612df2565b610adc565b005b34801561036d57600080fd5b5061038860048036038101906103839190612ef8565b610b3c565b60405161039591906138af565b60405180910390f35b3480156103aa57600080fd5b506103b3610be1565b6040516103c091906138af565b60405180910390f35b6103d1610be7565b005b3480156103df57600080fd5b506103fa60048036038101906103f59190612df2565b610d5b565b005b34801561040857600080fd5b50610423600480360381019061041e9190612fc7565b610d7b565b60405161043091906138af565b60405180910390f35b34801561044557600080fd5b50610460600480360381019061045b9190612f86565b610e12565b005b61047c60048036038101906104779190612fc7565b610ea8565b005b34801561048a57600080fd5b506104a560048036038101906104a09190612fc7565b610fe4565b6040516104b291906134e9565b60405180910390f35b3480156104c757600080fd5b506104e260048036038101906104dd9190612d8d565b611096565b6040516104ef91906138af565b60405180910390f35b34801561050457600080fd5b5061050d61114e565b005b34801561051b57600080fd5b5061053660048036038101906105319190612d8d565b6111d6565b6040516105439190613550565b60405180910390f35b34801561055857600080fd5b506105616112d0565b60405161056e91906134e9565b60405180910390f35b34801561058357600080fd5b5061058c6112fa565b604051610599919061358d565b60405180910390f35b3480156105ae57600080fd5b506105c960048036038101906105c49190612ebc565b61138c565b005b3480156105d757600080fd5b506105e06113a2565b6040516105ed91906138af565b60405180910390f35b34801561060257600080fd5b5061061d60048036038101906106189190612e41565b6113ad565b005b34801561062b57600080fd5b5061064660048036038101906106419190612fc7565b61140f565b604051610653919061358d565b60405180910390f35b34801561066857600080fd5b506106716114b6565b60405161067e919061358d565b60405180910390f35b34801561069357600080fd5b506106ae60048036038101906106a99190612db6565b611544565b6040516106bb9190613572565b60405180910390f35b6106de60048036038101906106d99190612fc7565b6115d8565b005b3480156106ec57600080fd5b5061070760048036038101906107029190612d8d565b611715565b005b60007f780e9d63000000000000000000000000000000000000000000000000000000007bffffffffffffffffffffffffffffffffffffffffffffffffffffffff1916827bffffffffffffffffffffffffffffffffffffffffffffffffffffffff1916148061077c575061077b8261180d565b5b9050919050565b60606000805461079290613ba3565b80601f01602080910402602001604051908101604052809291908181526020018280546107be90613ba3565b801561080b5780601f106107e05761010080835404028352916020019161080b565b820191906000526020600020905b8154815290600101906020018083116107ee57829003601f168201915b5050505050905090565b6000610820826118ef565b61085f576040517f08c379a0000000000000000000000000000000000000000000000000000000008152600401610856906137cf565b60405180910390fd5b6004600083815260200190815260200160002060009054906101000a900473ffffffffffffffffffffffffffffffffffffffff169050919050565b60006108a582610fe4565b90508073ffffffffffffffffffffffffffffffffffffffff168373ffffffffffffffffffffffffffffffffffffffff161415610916576040517f08c379a000000000000000000000000000000000000000000000000000000000815260040161090d9061382f565b60405180910390fd5b8073ffffffffffffffffffffffffffffffffffffffff1661093561195b565b73ffffffffffffffffffffffffffffffffffffffff16148061096457506109638161095e61195b565b611544565b5b6109a3576040517f08c379a000000000000000000000000000000000000000000000000000000000815260040161099a9061372f565b60405180910390fd5b6109ad8383611963565b505050565b602881565b6109bf61195b565b73ffffffffffffffffffffffffffffffffffffffff166109dd6112d0565b73ffffffffffffffffffffffffffffffffffffffff1614610a33576040517f08c379a0000000000000000000000000000000000000000000000000000000008152600401610a2a906137ef565b60405180910390fd5b6000610a3f600b611a1c565b9050611be9610a58602883611a2a90919063ffffffff16565b10610a98576040517f08c379a0000000000000000000000000000000000000000000000000000000008152600401610a8f906135af565b60405180910390fd5b60005b6028811015610abf57610aac611a40565b8080610ab790613c06565b915050610a9b565b5050565b6000600880549050905090565b67013fbe85edc9000081565b610aed610ae761195b565b82611a65565b610b2c576040517f08c379a0000000000000000000000000000000000000000000000000000000008152600401610b239061386f565b60405180910390fd5b610b37838383611b43565b505050565b6000610b4783611096565b8210610b88576040517f08c379a0000000000000000000000000000000000000000000000000000000008152600401610b7f906135cf565b60405180910390fd5b600660008473ffffffffffffffffffffffffffffffffffffffff1673ffffffffffffffffffffffffffffffffffffffff168152602001908152602001600020600083815260200190815260200160002054905092915050565b611be981565b610bef61195b565b73ffffffffffffffffffffffffffffffffffffffff16610c0d6112d0565b73ffffffffffffffffffffffffffffffffffffffff1614610c63576040517f08c379a0000000000000000000000000000000000000000000000000000000008152600401610c5a906137ef565b60405180910390fd5b600047905060008111610cab576040517f08c379a0000000000000000000000000000000000000000000000000000000008152600401610ca2906137af565b60405180910390fd5b60003373ffffffffffffffffffffffffffffffffffffffff1682604051610cd1906134d4565b60006040518083038185875af1925050503d8060008114610d0e576040519150601f19603f3d011682016040523d82523d6000602084013e610d13565b606091505b5050905080610d57576040517f08c379a0000000000000000000000000000000000000000000000000000000008152600401610d4e9061384f565b60405180910390fd5b5050565b610d76838383604051806020016040528060008152506113ad565b505050565b6000610d85610ac3565b8210610dc6576040517f08c379a0000000000000000000000000000000000000000000000000000000008152600401610dbd9061388f565b60405180910390fd5b60088281548110610e00577f4e487b7100000000000000000000000000000000000000000000000000000000600052603260045260246000fd5b90600052602060002001549050919050565b610e1a61195b565b73ffffffffffffffffffffffffffffffffffffffff16610e386112d0565b73ffffffffffffffffffffffffffffffffffffffff1614610e8e576040517f08c379a0000000000000000000000000000000000000000000000000000000008152600401610e85906137ef565b60405180910390fd5b80600c9080519060200190610ea4929190612bb1565b5050565b6000610eb4600b611a1c565b9050611be9610ecc8383611a2a90919063ffffffff16565b1115610f0d576040517f08c379a0000000000000000000000000000000000000000000000000000000008152600401610f04906136cf565b60405180910390fd5b600082118015610f1e575060288211155b610f5d576040517f08c379a0000000000000000000000000000000000000000000000000000000008152600401610f54906136ef565b60405180910390fd5b610f778266f8b0a10e470000611daa90919063ffffffff16565b341015610fb9576040517f08c379a0000000000000000000000000000000000000000000000000000000008152600401610fb0906136af565b60405180910390fd5b60005b82811015610fdf57610fcc611a40565b8080610fd790613c06565b915050610fbc565b505050565b6000806002600084815260200190815260200160002060009054906101000a900473ffffffffffffffffffffffffffffffffffffffff169050600073ffffffffffffffffffffffffffffffffffffffff168173ffffffffffffffffffffffffffffffffffffffff16141561108d576040517f08c379a00000000000000000000000000000000000000000000000000000000081526004016110849061376f565b60405180910390fd5b80915050919050565b60008073ffffffffffffffffffffffffffffffffffffffff168273ffffffffffffffffffffffffffffffffffffffff161415611107576040517f08c379a00000000000000000000000000000000000000000000000000000000081526004016110fe9061374f565b60405180910390fd5b600360008373ffffffffffffffffffffffffffffffffffffffff1673ffffffffffffffffffffffffffffffffffffffff168152602001908152602001600020549050919050565b61115661195b565b73ffffffffffffffffffffffffffffffffffffffff166111746112d0565b73ffffffffffffffffffffffffffffffffffffffff16146111ca576040517f08c379a00000000000000000000000000000000000000000000000000000000081526004016111c1906137ef565b60405180910390fd5b6111d46000611dc0565b565b606060006111e383611096565b905060008167ffffffffffffffff811115611227577f4e487b7100000000000000000000000000000000000000000000000000000000600052604160045260246000fd5b6040519080825280602002602001820160405280156112555781602001602082028036833780820191505090505b50905060005b828110156112c55761126d8582610b3c565b8282815181106112a6577f4e487b7100000000000000000000000000000000000000000000000000000000600052603260045260246000fd5b60200260200101818152505080806112bd90613c06565b91505061125b565b508092505050919050565b6000600a60009054906101000a900473ffffffffffffffffffffffffffffffffffffffff16905090565b60606001805461130990613ba3565b80601f016020809104026020016040519081016040528092919081815260200182805461133590613ba3565b80156113825780601f1061135757610100808354040283529160200191611382565b820191906000526020600020905b81548152906001019060200180831161136557829003601f168201915b5050505050905090565b61139e61139761195b565b8383611e86565b5050565b66f8b0a10e47000081565b6113be6113b861195b565b83611a65565b6113fd576040517f08c379a00000000000000000000000000000000000000000000000000000000081526004016113f49061386f565b60405180910390fd5b61140984848484611ff3565b50505050565b606061141a826118ef565b611459576040517f08c379a00000000000000000000000000000000000000000000000000000000081526004016114509061380f565b60405180910390fd5b600061146361204f565b9050600081511161148357604051806020016040528060008152506114ae565b8061148d846120e1565b60405160200161149e9291906134b0565b6040516020818303038152906040525b915050919050565b600c80546114c390613ba3565b80601f01602080910402602001604051908101604052809291908181526020018280546114ef90613ba3565b801561153c5780601f106115115761010080835404028352916020019161153c565b820191906000526020600020905b81548152906001019060200180831161151f57829003601f168201915b505050505081565b6000600560008473ffffffffffffffffffffffffffffffffffffffff1673ffffffffffffffffffffffffffffffffffffffff16815260200190815260200160002060008373ffffffffffffffffffffffffffffffffffffffff1673ffffffffffffffffffffffffffffffffffffffff16815260200190815260200160002060009054906101000a900460ff16905092915050565b60006115e4600b611a1c565b9050611be96115fc8383611a2a90919063ffffffff16565b111561163d576040517f08c379a0000000000000000000000000000000000000000000000000000000008152600401611634906136cf565b60405180910390fd5b60008211801561164e575060288211155b61168d576040517f08c379a0000000000000000000000000000000000000000000000000000000008152600401611684906136ef565b60405180910390fd5b6116a88267013fbe85edc90000611daa90919063ffffffff16565b3410156116ea576040517f08c379a00000000000000000000000000000000000000000000000000000000081526004016116e1906136af565b60405180910390fd5b60005b82811015611710576116fd611a40565b808061170890613c06565b9150506116ed565b505050565b61171d61195b565b73ffffffffffffffffffffffffffffffffffffffff1661173b6112d0565b73ffffffffffffffffffffffffffffffffffffffff1614611791576040517f08c379a0000000000000000000000000000000000000000000000000000000008152600401611788906137ef565b60405180910390fd5b600073ffffffffffffffffffffffffffffffffffffffff168173ffffffffffffffffffffffffffffffffffffffff161415611801576040517f08c379a00000000000000000000000000000000000000000000000000000000081526004016117f89061360f565b60405180910390fd5b61180a81611dc0565b50565b60007f80ac58cd000000000000000000000000000000000000000000000000000000007bffffffffffffffffffffffffffffffffffffffffffffffffffffffff1916827bffffffffffffffffffffffffffffffffffffffffffffffffffffffff191614806118d857507f5b5e139f000000000000000000000000000000000000000000000000000000007bffffffffffffffffffffffffffffffffffffffffffffffffffffffff1916827bffffffffffffffffffffffffffffffffffffffffffffffffffffffff1916145b806118e857506118e78261228e565b5b9050919050565b60008073ffffffffffffffffffffffffffffffffffffffff166002600084815260200190815260200160002060009054906101000a900473ffffffffffffffffffffffffffffffffffffffff1673ffffffffffffffffffffffffffffffffffffffff1614159050919050565b600033905090565b816004600083815260200190815260200160002060006101000a81548173ffffffffffffffffffffffffffffffffffffffff021916908373ffffffffffffffffffffffffffffffffffffffff160217905550808273ffffffffffffffffffffffffffffffffffffffff166119d683610fe4565b73ffffffffffffffffffffffffffffffffffffffff167f8c5be1e5ebec7d5bd14f71427d1e84f3dd0314c0f7b2291e5b200ac8c7c3b92560405160405180910390a45050565b600081600001549050919050565b60008183611a3891906139d8565b905092915050565b6000611a4c600b611a1c565b9050611a5833826122f8565b611a62600b612316565b50565b6000611a70826118ef565b611aaf576040517f08c379a0000000000000000000000000000000000000000000000000000000008152600401611aa69061370f565b60405180910390fd5b6000611aba83610fe4565b90508073ffffffffffffffffffffffffffffffffffffffff168473ffffffffffffffffffffffffffffffffffffffff161480611afc5750611afb8185611544565b5b80611b3a57508373ffffffffffffffffffffffffffffffffffffffff16611b2284610815565b73ffffffffffffffffffffffffffffffffffffffff16145b91505092915050565b8273ffffffffffffffffffffffffffffffffffffffff16611b6382610fe4565b73ffffffffffffffffffffffffffffffffffffffff1614611bb9576040517f08c379a0000000000000000000000000000000000000000000000000000000008152600401611bb09061362f565b60405180910390fd5b600073ffffffffffffffffffffffffffffffffffffffff168273ffffffffffffffffffffffffffffffffffffffff161415611c29576040517f08c379a0000000000000000000000000000000000000000000000000000000008152600401611c209061366f565b60405180910390fd5b611c3483838361232c565b611c3f600082611963565b6001600360008573ffffffffffffffffffffffffffffffffffffffff1673ffffffffffffffffffffffffffffffffffffffff1681526020019081526020016000206000828254611c8f9190613ab9565b925050819055506001600360008473ffffffffffffffffffffffffffffffffffffffff1673ffffffffffffffffffffffffffffffffffffffff1681526020019081526020016000206000828254611ce691906139d8565b92505081905550816002600083815260200190815260200160002060006101000a81548173ffffffffffffffffffffffffffffffffffffffff021916908373ffffffffffffffffffffffffffffffffffffffff160217905550808273ffffffffffffffffffffffffffffffffffffffff168473ffffffffffffffffffffffffffffffffffffffff167fddf252ad1be2c89b69c2b068fc378daa952ba7f163c4a11628f55a4df523b3ef60405160405180910390a4611da5838383612440565b505050565b60008183611db89190613a5f565b905092915050565b6000600a60009054906101000a900473ffffffffffffffffffffffffffffffffffffffff16905081600a60006101000a81548173ffffffffffffffffffffffffffffffffffffffff021916908373ffffffffffffffffffffffffffffffffffffffff1602179055508173ffffffffffffffffffffffffffffffffffffffff168173ffffffffffffffffffffffffffffffffffffffff167f8be0079c531659141344cd1fd0a4f28419497f9722a3daafe3b4186f6b6457e060405160405180910390a35050565b8173ffffffffffffffffffffffffffffffffffffffff168373ffffffffffffffffffffffffffffffffffffffff161415611ef5576040517f08c379a0000000000000000000000000000000000000000000000000000000008152600401611eec9061368f565b60405180910390fd5b80600560008573ffffffffffffffffffffffffffffffffffffffff1673ffffffffffffffffffffffffffffffffffffffff16815260200190815260200160002060008473ffffffffffffffffffffffffffffffffffffffff1673ffffffffffffffffffffffffffffffffffffffff16815260200190815260200160002060006101000a81548160ff0219169083151502179055508173ffffffffffffffffffffffffffffffffffffffff168373ffffffffffffffffffffffffffffffffffffffff167f17307eab39ab6107e8899845ad3d59bd9653f200f220920489ca2b5937696c3183604051611fe69190613572565b60405180910390a3505050565b611ffe848484611b43565b61200a84848484612445565b612049576040517f08c379a0000000000000000000000000000000000000000000000000000000008152600401612040906135ef565b60405180910390fd5b50505050565b6060600c805461205e90613ba3565b80601f016020809104026020016040519081016040528092919081815260200182805461208a90613ba3565b80156120d75780601f106120ac576101008083540402835291602001916120d7565b820191906000526020600020905b8154815290600101906020018083116120ba57829003601f168201915b5050505050905090565b60606000821415612129576040518060400160405280600181526020017f30000000000000000000000000000000000000000000000000000000000000008152509050612289565b600082905060005b6000821461215b57808061214490613c06565b915050600a826121549190613a2e565b9150612131565b60008167ffffffffffffffff81111561219d577f4e487b7100000000000000000000000000000000000000000000000000000000600052604160045260246000fd5b6040519080825280601f01601f1916602001820160405280156121cf5781602001600182028036833780820191505090505b5090505b60008514612282576001826121e89190613ab9565b9150600a856121f79190613c4f565b603061220391906139d8565b60f81b81838151811061223f577f4e487b7100000000000000000000000000000000000000000000000000000000600052603260045260246000fd5b60200101907effffffffffffffffffffffffffffffffffffffffffffffffffffffffffffff1916908160001a905350600a8561227b9190613a2e565b94506121d3565b8093505050505b919050565b60007f01ffc9a7000000000000000000000000000000000000000000000000000000007bffffffffffffffffffffffffffffffffffffffffffffffffffffffff1916827bffffffffffffffffffffffffffffffffffffffffffffffffffffffff1916149050919050565b6123128282604051806020016040528060008152506125dc565b5050565b6001816000016000828254019250508190555050565b612337838383612637565b600073ffffffffffffffffffffffffffffffffffffffff168373ffffffffffffffffffffffffffffffffffffffff16141561237a576123758161263c565b6123b9565b8173ffffffffffffffffffffffffffffffffffffffff168373ffffffffffffffffffffffffffffffffffffffff16146123b8576123b78382612685565b5b5b600073ffffffffffffffffffffffffffffffffffffffff168273ffffffffffffffffffffffffffffffffffffffff1614156123fc576123f7816127f2565b61243b565b8273ffffffffffffffffffffffffffffffffffffffff168273ffffffffffffffffffffffffffffffffffffffff161461243a576124398282612935565b5b5b505050565b505050565b60006124668473ffffffffffffffffffffffffffffffffffffffff166129b4565b156125cf578373ffffffffffffffffffffffffffffffffffffffff1663150b7a0261248f61195b565b8786866040518563ffffffff1660e01b81526004016124b19493929190613504565b602060405180830381600087803b1580156124cb57600080fd5b505af19250505080156124fc57506040513d601f19601f820116820180604052508101906124f99190612f5d565b60015b61257f573d806000811461252c576040519150601f19603f3d011682016040523d82523d6000602084013e612531565b606091505b50600081511415612577576040517f08c379a000000000000000000000000000000000000000000000000000000000815260040161256e906135ef565b60405180910390fd5b805181602001fd5b63150b7a0260e01b7bffffffffffffffffffffffffffffffffffffffffffffffffffffffff1916817bffffffffffffffffffffffffffffffffffffffffffffffffffffffff1916149150506125d4565b600190505b949350505050565b6125e683836129d7565b6125f36000848484612445565b612632576040517f08c379a0000000000000000000000000000000000000000000000000000000008152600401612629906135ef565b60405180910390fd5b505050565b505050565b6008805490506009600083815260200190815260200160002081905550600881908060018154018082558091505060019003906000526020600020016000909190919091505550565b6000600161269284611096565b61269c9190613ab9565b9050600060076000848152602001908152602001600020549050818114612781576000600660008673ffffffffffffffffffffffffffffffffffffffff1673ffffffffffffffffffffffffffffffffffffffff168152602001908152602001600020600084815260200190815260200160002054905080600660008773ffffffffffffffffffffffffffffffffffffffff1673ffffffffffffffffffffffffffffffffffffffff168152602001908152602001600020600084815260200190815260200160002081905550816007600083815260200190815260200160002081905550505b6007600084815260200190815260200160002060009055600660008573ffffffffffffffffffffffffffffffffffffffff1673ffffffffffffffffffffffffffffffffffffffff16815260200190815260200160002060008381526020019081526020016000206000905550505050565b600060016008805490506128069190613ab9565b905060006009600084815260200190815260200160002054905060006008838154811061285c577f4e487b7100000000000000000000000000000000000000000000000000000000600052603260045260246000fd5b9060005260206000200154905080600883815481106128a4577f4e487b7100000000000000000000000000000000000000000000000000000000600052603260045260246000fd5b906000526020600020018190555081600960008381526020019081526020016000208190555060096000858152602001908152602001600020600090556008805480612919577f4e487b7100000000000000000000000000000000000000000000000000000000600052603160045260246000fd5b6001900381819060005260206000200160009055905550505050565b600061294083611096565b905081600660008573ffffffffffffffffffffffffffffffffffffffff1673ffffffffffffffffffffffffffffffffffffffff168152602001908152602001600020600083815260200190815260200160002081905550806007600084815260200190815260200160002081905550505050565b6000808273ffffffffffffffffffffffffffffffffffffffff163b119050919050565b600073ffffffffffffffffffffffffffffffffffffffff168273ffffffffffffffffffffffffffffffffffffffff161415612a47576040517f08c379a0000000000000000000000000000000000000000000000000000000008152600401612a3e9061378f565b60405180910390fd5b612a50816118ef565b15612a90576040517f08c379a0000000000000000000000000000000000000000000000000000000008152600401612a879061364f565b60405180910390fd5b612a9c6000838361232c565b6001600360008473ffffffffffffffffffffffffffffffffffffffff1673ffffffffffffffffffffffffffffffffffffffff1681526020019081526020016000206000828254612aec91906139d8565b92505081905550816002600083815260200190815260200160002060006101000a81548173ffffffffffffffffffffffffffffffffffffffff021916908373ffffffffffffffffffffffffffffffffffffffff160217905550808273ffffffffffffffffffffffffffffffffffffffff16600073ffffffffffffffffffffffffffffffffffffffff167fddf252ad1be2c89b69c2b068fc378daa952ba7f163c4a11628f55a4df523b3ef60405160405180910390a4612bad60008383612440565b5050565b828054612bbd90613ba3565b90600052602060002090601f016020900481019282612bdf5760008555612c26565b82601f10612bf857805160ff1916838001178555612c26565b82800160010185558215612c26579182015b82811115612c25578251825591602001919060010190612c0a565b5b509050612c339190612c37565b5090565b5b80821115612c50576000816000905550600101612c38565b5090565b6000612c67612c62846138ef565b6138ca565b905082815260208101848484011115612c7f57600080fd5b612c8a848285613b61565b509392505050565b6000612ca5612ca084613920565b6138ca565b905082815260208101848484011115612cbd57600080fd5b612cc8848285613b61565b509392505050565b600081359050612cdf81614388565b92915050565b600081359050612cf48161439f565b92915050565b600081359050612d09816143b6565b92915050565b600081519050612d1e816143b6565b92915050565b600082601f830112612d3557600080fd5b8135612d45848260208601612c54565b91505092915050565b600082601f830112612d5f57600080fd5b8135612d6f848260208601612c92565b91505092915050565b600081359050612d87816143cd565b92915050565b600060208284031215612d9f57600080fd5b6000612dad84828501612cd0565b91505092915050565b60008060408385031215612dc957600080fd5b6000612dd785828601612cd0565b9250506020612de885828601612cd0565b9150509250929050565b600080600060608486031215612e0757600080fd5b6000612e1586828701612cd0565b9350506020612e2686828701612cd0565b9250506040612e3786828701612d78565b9150509250925092565b60008060008060808587031215612e5757600080fd5b6000612e6587828801612cd0565b9450506020612e7687828801612cd0565b9350506040612e8787828801612d78565b925050606085013567ffffffffffffffff811115612ea457600080fd5b612eb087828801612d24565b91505092959194509250565b60008060408385031215612ecf57600080fd5b6000612edd85828601612cd0565b9250506020612eee85828601612ce5565b9150509250929050565b60008060408385031215612f0b57600080fd5b6000612f1985828601612cd0565b9250506020612f2a85828601612d78565b9150509250929050565b600060208284031215612f4657600080fd5b6000612f5484828501612cfa565b91505092915050565b600060208284031215612f6f57600080fd5b6000612f7d84828501612d0f565b91505092915050565b600060208284031215612f9857600080fd5b600082013567ffffffffffffffff811115612fb257600080fd5b612fbe84828501612d4e565b91505092915050565b600060208284031215612fd957600080fd5b6000612fe784828501612d78565b91505092915050565b6000612ffc8383613492565b60208301905092915050565b61301181613aed565b82525050565b600061302282613961565b61302c818561398f565b935061303783613951565b8060005b8381101561306857815161304f8882612ff0565b975061305a83613982565b92505060018101905061303b565b5085935050505092915050565b61307e81613aff565b82525050565b600061308f8261396c565b61309981856139a0565b93506130a9818560208601613b70565b6130b281613d3c565b840191505092915050565b60006130c882613977565b6130d281856139bc565b93506130e2818560208601613b70565b6130eb81613d3c565b840191505092915050565b600061310182613977565b61310b81856139cd565b935061311b818560208601613b70565b80840191505092915050565b6000613134601f836139bc565b915061313f82613d4d565b602082019050919050565b6000613157602b836139bc565b915061316282613d76565b604082019050919050565b600061317a6032836139bc565b915061318582613dc5565b604082019050919050565b600061319d6026836139bc565b91506131a882613e14565b604082019050919050565b60006131c06025836139bc565b91506131cb82613e63565b604082019050919050565b60006131e3601c836139bc565b91506131ee82613eb2565b602082019050919050565b60006132066024836139bc565b915061321182613edb565b604082019050919050565b60006132296019836139bc565b915061323482613f2a565b602082019050919050565b600061324c6022836139bc565b915061325782613f53565b604082019050919050565b600061326f6015836139bc565b915061327a82613fa2565b602082019050919050565b60006132926025836139bc565b915061329d82613fcb565b604082019050919050565b60006132b5602c836139bc565b91506132c08261401a565b604082019050919050565b60006132d86038836139bc565b91506132e382614069565b604082019050919050565b60006132fb602a836139bc565b9150613306826140b8565b604082019050919050565b600061331e6029836139bc565b915061332982614107565b604082019050919050565b60006133416020836139bc565b915061334c82614156565b602082019050919050565b60006133646019836139bc565b915061336f8261417f565b602082019050919050565b6000613387602c836139bc565b9150613392826141a8565b604082019050919050565b60006133aa6020836139bc565b91506133b5826141f7565b602082019050919050565b60006133cd602f836139bc565b91506133d882614220565b604082019050919050565b60006133f06021836139bc565b91506133fb8261426f565b604082019050919050565b60006134136000836139b1565b915061341e826142be565b600082019050919050565b60006134366010836139bc565b9150613441826142c1565b602082019050919050565b60006134596031836139bc565b9150613464826142ea565b604082019050919050565b600061347c602c836139bc565b915061348782614339565b604082019050919050565b61349b81613b57565b82525050565b6134aa81613b57565b82525050565b60006134bc82856130f6565b91506134c882846130f6565b91508190509392505050565b60006134df82613406565b9150819050919050565b60006020820190506134fe6000830184613008565b92915050565b60006080820190506135196000830187613008565b6135266020830186613008565b61353360408301856134a1565b81810360608301526135458184613084565b905095945050505050565b6000602082019050818103600083015261356a8184613017565b905092915050565b60006020820190506135876000830184613075565b92915050565b600060208201905081810360008301526135a781846130bd565b905092915050565b600060208201905081810360008301526135c881613127565b9050919050565b600060208201905081810360008301526135e88161314a565b9050919050565b600060208201905081810360008301526136088161316d565b9050919050565b6000602082019050818103600083015261362881613190565b9050919050565b60006020820190508181036000830152613648816131b3565b9050919050565b60006020820190508181036000830152613668816131d6565b9050919050565b60006020820190508181036000830152613688816131f9565b9050919050565b600060208201905081810360008301526136a88161321c565b9050919050565b600060208201905081810360008301526136c88161323f565b9050919050565b600060208201905081810360008301526136e881613262565b9050919050565b6000602082019050818103600083015261370881613285565b9050919050565b60006020820190508181036000830152613728816132a8565b9050919050565b60006020820190508181036000830152613748816132cb565b9050919050565b60006020820190508181036000830152613768816132ee565b9050919050565b6000602082019050818103600083015261378881613311565b9050919050565b600060208201905081810360008301526137a881613334565b9050919050565b600060208201905081810360008301526137c881613357565b9050919050565b600060208201905081810360008301526137e88161337a565b9050919050565b600060208201905081810360008301526138088161339d565b9050919050565b60006020820190508181036000830152613828816133c0565b9050919050565b60006020820190508181036000830152613848816133e3565b9050919050565b6000602082019050818103600083015261386881613429565b9050919050565b600060208201905081810360008301526138888161344c565b9050919050565b600060208201905081810360008301526138a88161346f565b9050919050565b60006020820190506138c460008301846134a1565b92915050565b60006138d46138e5565b90506138e08282613bd5565b919050565b6000604051905090565b600067ffffffffffffffff82111561390a57613909613d0d565b5b61391382613d3c565b9050602081019050919050565b600067ffffffffffffffff82111561393b5761393a613d0d565b5b61394482613d3c565b9050602081019050919050565b6000819050602082019050919050565b600081519050919050565b600081519050919050565b600081519050919050565b6000602082019050919050565b600082825260208201905092915050565b600082825260208201905092915050565b600081905092915050565b600082825260208201905092915050565b600081905092915050565b60006139e382613b57565b91506139ee83613b57565b9250827fffffffffffffffffffffffffffffffffffffffffffffffffffffffffffffffff03821115613a2357613a22613c80565b5b828201905092915050565b6000613a3982613b57565b9150613a4483613b57565b925082613a5457613a53613caf565b5b828204905092915050565b6000613a6a82613b57565b9150613a7583613b57565b9250817fffffffffffffffffffffffffffffffffffffffffffffffffffffffffffffffff0483118215151615613aae57613aad613c80565b5b828202905092915050565b6000613ac482613b57565b9150613acf83613b57565b925082821015613ae257613ae1613c80565b5b828203905092915050565b6000613af882613b37565b9050919050565b60008115159050919050565b60007fffffffff0000000000000000000000000000000000000000000000000000000082169050919050565b600073ffffffffffffffffffffffffffffffffffffffff82169050919050565b6000819050919050565b82818337600083830152505050565b60005b83811015613b8e578082015181840152602081019050613b73565b83811115613b9d576000848401525b50505050565b60006002820490506001821680613bbb57607f821691505b60208210811415613bcf57613bce613cde565b5b50919050565b613bde82613d3c565b810181811067ffffffffffffffff82111715613bfd57613bfc613d0d565b5b80604052505050565b6000613c1182613b57565b91507fffffffffffffffffffffffffffffffffffffffffffffffffffffffffffffffff821415613c4457613c43613c80565b5b600182019050919050565b6000613c5a82613b57565b9150613c6583613b57565b925082613c7557613c74613caf565b5b828206905092915050565b7f4e487b7100000000000000000000000000000000000000000000000000000000600052601160045260246000fd5b7f4e487b7100000000000000000000000000000000000000000000000000000000600052601260045260246000fd5b7f4e487b7100000000000000000000000000000000000000000000000000000000600052602260045260246000fd5b7f4e487b7100000000000000000000000000000000000000000000000000000000600052604160045260246000fd5b6000601f19601f8301169050919050565b7f4e6f7420656e6f756768204e465473206c65667420746f207265736572766500600082015250565b7f455243373231456e756d657261626c653a206f776e657220696e646578206f7560008201527f74206f6620626f756e6473000000000000000000000000000000000000000000602082015250565b7f4552433732313a207472616e7366657220746f206e6f6e20455243373231526560008201527f63656976657220696d706c656d656e7465720000000000000000000000000000602082015250565b7f4f776e61626c653a206e6577206f776e657220697320746865207a65726f206160008201527f6464726573730000000000000000000000000000000000000000000000000000602082015250565b7f4552433732313a207472616e736665722066726f6d20696e636f72726563742060008201527f6f776e6572000000000000000000000000000000000000000000000000000000602082015250565b7f4552433732313a20746f6b656e20616c7265616479206d696e74656400000000600082015250565b7f4552433732313a207472616e7366657220746f20746865207a65726f2061646460008201527f7265737300000000000000000000000000000000000000000000000000000000602082015250565b7f4552433732313a20617070726f766520746f2063616c6c657200000000000000600082015250565b7f4e6f7420656e6f75676820657468657220746f207075726368617365204e465460008201527f732e000000000000000000000000000000000000000000000000000000000000602082015250565b7f4e6f7420656e6f756768204e465473206c656674210000000000000000000000600082015250565b7f43616e6e6f74206d696e7420737065636966696564206e756d626572206f662060008201527f4e4654732e000000000000000000000000000000000000000000000000000000602082015250565b7f4552433732313a206f70657261746f7220717565727920666f72206e6f6e657860008201527f697374656e7420746f6b656e0000000000000000000000000000000000000000602082015250565b7f4552433732313a20617070726f76652063616c6c6572206973206e6f74206f7760008201527f6e6572206e6f7220617070726f76656420666f7220616c6c0000000000000000602082015250565b7f4552433732313a2062616c616e636520717565727920666f7220746865207a6560008201527f726f206164647265737300000000000000000000000000000000000000000000602082015250565b7f4552433732313a206f776e657220717565727920666f72206e6f6e657869737460008201527f656e7420746f6b656e0000000000000000000000000000000000000000000000602082015250565b7f4552433732313a206d696e7420746f20746865207a65726f2061646472657373600082015250565b7f4e6f206574686572206c65667420746f20776974686472617700000000000000600082015250565b7f4552433732313a20617070726f76656420717565727920666f72206e6f6e657860008201527f697374656e7420746f6b656e0000000000000000000000000000000000000000602082015250565b7f4f776e61626c653a2063616c6c6572206973206e6f7420746865206f776e6572600082015250565b7f4552433732314d657461646174613a2055524920717565727920666f72206e6f60008201527f6e6578697374656e7420746f6b656e0000000000000000000000000000000000602082015250565b7f4552433732313a20617070726f76616c20746f2063757272656e74206f776e6560008201527f7200000000000000000000000000000000000000000000000000000000000000602082015250565b50565b7f5472616e73666572206661696c65642e00000000000000000000000000000000600082015250565b7f4552433732313a207472616e736665722063616c6c6572206973206e6f74206f60008201527f776e6572206e6f7220617070726f766564000000000000000000000000000000602082015250565b7f455243373231456e756d657261626c653a20676c6f62616c20696e646578206f60008201527f7574206f6620626f756e64730000000000000000000000000000000000000000602082015250565b61439181613aed565b811461439c57600080fd5b50565b6143a881613aff565b81146143b357600080fd5b50565b6143bf81613b0b565b81146143ca57600080fd5b50565b6143d681613b57565b81146143e157600080fd5b5056fea2646970667358221220499a29c40164f8d4bb9e56b9c9cb656919271b1ce0b6f2fb103efa3eae3be95764736f6c63430008040033",
  "linkReferences": {},
  "deployedLinkReferences": {}
}