{
  "_format": "hh-sol-artifact-1",
  "contractName": "AOTA",
  "sourceName": "contracts/AOTA.sol",
  "abi": [
    {
      "inputs": [
        {
          "internalType": "string",
          "name": "baseURI",
          "type": "string"
        }
      ],
      "stateMutability": "nonpayable",
      "type": "constructor"
    },
    {
      "anonymous": false,
      "inputs": [
        {
          "indexed": true,
          "internalType": "address",
          "name": "owner",
          "type": "address"
        },
        {
          "indexed": true,
          "internalType": "address",
          "name": "approved",
          "type": "address"
        },
        {
          "indexed": true,
          "internalType": "uint256",
          "name": "tokenId",
          "type": "uint256"
        }
      ],
      "name": "Approval",
      "type": "event"
    },
    {
      "anonymous": false,
      "inputs": [
        {
          "indexed": true,
          "internalType": "address",
          "name": "owner",
          "type": "address"
        },
        {
          "indexed": true,
          "internalType": "address",
          "name": "operator",
          "type": "address"
        },
        {
          "indexed": false,
          "internalType": "bool",
          "name": "approved",
          "type": "bool"
        }
      ],
      "name": "ApprovalForAll",
      "type": "event"
    },
    {
      "anonymous": false,
      "inputs": [
        {
          "indexed": true,
          "internalType": "address",
          "name": "previousOwner",
          "type": "address"
        },
        {
          "indexed": true,
          "internalType": "address",
          "name": "newOwner",
          "type": "address"
        }
      ],
      "name": "OwnershipTransferred",
      "type": "event"
    },
    {
      "anonymous": false,
      "inputs": [
        {
          "indexed": true,
          "internalType": "address",
          "name": "from",
          "type": "address"
        },
        {
          "indexed": true,
          "internalType": "address",
          "name": "to",
          "type": "address"
        },
        {
          "indexed": true,
          "internalType": "uint256",
          "name": "tokenId",
          "type": "uint256"
        }
      ],
      "name": "Transfer",
      "type": "event"
    },
    {
      "inputs": [],
      "name": "MAX_PER_MINT",
      "outputs": [
        {
          "internalType": "uint256",
          "name": "",
          "type": "uint256"
        }
      ],
      "stateMutability": "view",
      "type": "function"
    },
    {
      "inputs": [],
      "name": "MAX_SUPPLY",
      "outputs": [
        {
          "internalType": "uint256",
          "name": "",
          "type": "uint256"
        }
      ],
      "stateMutability": "view",
      "type": "function"
    },
    {
      "inputs": [],
      "name": "PRI_PRICE",
      "outputs": [
        {
          "internalType": "uint256",
          "name": "",
          "type": "uint256"
        }
      ],
      "stateMutability": "view",
      "type": "function"
    },
    {
      "inputs": [],
      "name": "PUB_PRICE",
      "outputs": [
        {
          "internalType": "uint256",
          "name": "",
          "type": "uint256"
        }
      ],
      "stateMutability": "view",
      "type": "function"
    },
    {
      "inputs": [
        {
          "internalType": "address",
          "name": "to",
          "type": "address"
        },
        {
          "internalType": "uint256",
          "name": "tokenId",
          "type": "uint256"
        }
      ],
      "name": "approve",
      "outputs": [],
      "stateMutability": "nonpayable",
      "type": "function"
    },
    {
      "inputs": [
        {
          "internalType": "address",
          "name": "owner",
          "type": "address"
        }
      ],
      "name": "balanceOf",
      "outputs": [
        {
          "internalType": "uint256",
          "name": "",
          "type": "uint256"
        }
      ],
      "stateMutability": "view",
      "type": "function"
    },
    {
      "inputs": [],
      "name": "baseTokenURI",
      "outputs": [
        {
          "internalType": "string",
          "name": "",
          "type": "string"
        }
      ],
      "stateMutability": "view",
      "type": "function"
    },
    {
      "inputs": [
        {
          "internalType": "uint256",
          "name": "tokenId",
          "type": "uint256"
        }
      ],
      "name": "getApproved",
      "outputs": [
        {
          "internalType": "address",
          "name": "",
          "type": "address"
        }
      ],
      "stateMutability": "view",
      "type": "function"
    },
    {
      "inputs": [
        {
          "internalType": "address",
          "name": "owner",
          "type": "address"
        },
        {
          "internalType": "address",
          "name": "operator",
          "type": "address"
        }
      ],
      "name": "isApprovedForAll",
      "outputs": [
        {
          "internalType": "bool",
          "name": "",
          "type": "bool"
        }
      ],
      "stateMutability": "view",
      "type": "function"
    },
    {
      "inputs": [
        {
          "internalType": "uint256",
          "name": "_count",
          "type": "uint256"
        }
      ],
      "name": "mintPriNFTs",
      "outputs": [],
      "stateMutability": "payable",
      "type": "function"
    },
    {
      "inputs": [
        {
          "internalType": "uint256",
          "name": "_count",
          "type": "uint256"
        }
      ],
      "name": "mintPubNFTs",
      "outputs": [],
      "stateMutability": "payable",
      "type": "function"
    },
    {
      "inputs": [],
      "name": "name",
      "outputs": [
        {
          "internalType": "string",
          "name": "",
          "type": "string"
        }
      ],
      "stateMutability": "view",
      "type": "function"
    },
    {
      "inputs": [],
      "name": "owner",
      "outputs": [
        {
          "internalType": "address",
          "name": "",
          "type": "address"
        }
      ],
      "stateMutability": "view",
      "type": "function"
    },
    {
      "inputs": [
        {
          "internalType": "uint256",
          "name": "tokenId",
          "type": "uint256"
        }
      ],
      "name": "ownerOf",
      "outputs": [
        {
          "internalType": "address",
          "name": "",
          "type": "address"
        }
      ],
      "stateMutability": "view",
      "type": "function"
    },
    {
      "inputs": [],
      "name": "priPrice",
      "outputs": [
        {
          "internalType": "uint256",
          "name": "",
          "type": "uint256"
        }
      ],
      "stateMutability": "pure",
      "type": "function"
    },
    {
      "inputs": [],
      "name": "pubPrice",
      "outputs": [
        {
          "internalType": "uint256",
          "name": "",
          "type": "uint256"
        }
      ],
      "stateMutability": "pure",
      "type": "function"
    },
    {
      "inputs": [],
      "name": "renounceOwnership",
      "outputs": [],
      "stateMutability": "nonpayable",
      "type": "function"
    },
    {
      "inputs": [],
      "name": "reserveNFTs",
      "outputs": [],
      "stateMutability": "nonpayable",
      "type": "function"
    },
    {
      "inputs": [
        {
          "internalType": "address",
          "name": "from",
          "type": "address"
        },
        {
          "internalType": "address",
          "name": "to",
          "type": "address"
        },
        {
          "internalType": "uint256",
          "name": "tokenId",
          "type": "uint256"
        }
      ],
      "name": "safeTransferFrom",
      "outputs": [],
      "stateMutability": "nonpayable",
      "type": "function"
    },
    {
      "inputs": [
        {
          "internalType": "address",
          "name": "from",
          "type": "address"
        },
        {
          "internalType": "address",
          "name": "to",
          "type": "address"
        },
        {
          "internalType": "uint256",
          "name": "tokenId",
          "type": "uint256"
        },
        {
          "internalType": "bytes",
          "name": "_data",
          "type": "bytes"
        }
      ],
      "name": "safeTransferFrom",
      "outputs": [],
      "stateMutability": "nonpayable",
      "type": "function"
    },
    {
      "inputs": [
        {
          "internalType": "address",
          "name": "operator",
          "type": "address"
        },
        {
          "internalType": "bool",
          "name": "approved",
          "type": "bool"
        }
      ],
      "name": "setApprovalForAll",
      "outputs": [],
      "stateMutability": "nonpayable",
      "type": "function"
    },
    {
      "inputs": [
        {
          "internalType": "string",
          "name": "_baseTokenURI",
          "type": "string"
        }
      ],
      "name": "setBaseURI",
      "outputs": [],
      "stateMutability": "nonpayable",
      "type": "function"
    },
    {
      "inputs": [
        {
          "internalType": "bytes4",
          "name": "interfaceId",
          "type": "bytes4"
        }
      ],
      "name": "supportsInterface",
      "outputs": [
        {
          "internalType": "bool",
          "name": "",
          "type": "bool"
        }
      ],
      "stateMutability": "view",
      "type": "function"
    },
    {
      "inputs": [],
      "name": "symbol",
      "outputs": [
        {
          "internalType": "string",
          "name": "",
          "type": "string"
        }
      ],
      "stateMutability": "view",
      "type": "function"
    },
    {
      "inputs": [
        {
          "internalType": "uint256",
          "name": "index",
          "type": "uint256"
        }
      ],
      "name": "tokenByIndex",
      "outputs": [
        {
          "internalType": "uint256",
          "name": "",
          "type": "uint256"
        }
      ],
      "stateMutability": "view",
      "type": "function"
    },
    {
      "inputs": [
        {
          "internalType": "address",
          "name": "owner",
          "type": "address"
        },
        {
          "internalType": "uint256",
          "name": "index",
          "type": "uint256"
        }
      ],
      "name": "tokenOfOwnerByIndex",
      "outputs": [
        {
          "internalType": "uint256",
          "name": "",
          "type": "uint256"
        }
      ],
      "stateMutability": "view",
      "type": "function"
    },
    {
      "inputs": [
        {
          "internalType": "uint256",
          "name": "tokenId",
          "type": "uint256"
        }
      ],
      "name": "tokenURI",
      "outputs": [
        {
          "internalType": "string",
          "name": "",
          "type": "string"
        }
      ],
      "stateMutability": "view",
      "type": "function"
    },
    {
      "inputs": [],
      "name": "totalSupply",
      "outputs": [
        {
          "internalType": "uint256",
          "name": "",
          "type": "uint256"
        }
      ],
      "stateMutability": "view",
      "type": "function"
    },
    {
      "inputs": [
        {
          "internalType": "address",
          "name": "from",
          "type": "address"
        },
        {
          "internalType": "address",
          "name": "to",
          "type": "address"
        },
        {
          "internalType": "uint256",
          "name": "tokenId",
          "type": "uint256"
        }
      ],
      "name": "transferFrom",
      "outputs": [],
      "stateMutability": "nonpayable",
      "type": "function"
    },
    {
      "inputs": [
        {
          "internalType": "address",
          "name": "newOwner",
          "type": "address"
        }
      ],
      "name": "transferOwnership",
      "outputs": [],
      "stateMutability": "nonpayable",
      "type": "function"
    },
    {
      "inputs": [],
      "name": "withdraw",
      "outputs": [],
      "stateMutability": "payable",
      "type": "function"
    }
  ],
  "bytecode": "0x60806040523480156200001157600080fd5b506040516200489f3803806200489f8339818101604052810190620000379190620003d4565b6040518060400160405280601181526020017f416c69656e73204f6e20546865204176650000000000000000000000000000008152506040518060400160405280600481526020017f414f5441000000000000000000000000000000000000000000000000000000008152508160009080519060200190620000bb929190620002b2565b508060019080519060200190620000d4929190620002b2565b505050620000f7620000eb6200010f60201b60201c565b6200011760201b60201c565b6200010881620001dd60201b60201c565b506200060c565b600033905090565b6000600a60009054906101000a900473ffffffffffffffffffffffffffffffffffffffff16905081600a60006101000a81548173ffffffffffffffffffffffffffffffffffffffff021916908373ffffffffffffffffffffffffffffffffffffffff1602179055508173ffffffffffffffffffffffffffffffffffffffff168173ffffffffffffffffffffffffffffffffffffffff167f8be0079c531659141344cd1fd0a4f28419497f9722a3daafe3b4186f6b6457e060405160405180910390a35050565b620001ed6200010f60201b60201c565b73ffffffffffffffffffffffffffffffffffffffff16620002136200028860201b60201c565b73ffffffffffffffffffffffffffffffffffffffff16146200026c576040517f08c379a0000000000000000000000000000000000000000000000000000000008152600401620002639062000440565b60405180910390fd5b80600c908051906020019062000284929190620002b2565b5050565b6000600a60009054906101000a900473ffffffffffffffffffffffffffffffffffffffff16905090565b828054620002c09062000508565b90600052602060002090601f016020900481019282620002e4576000855562000330565b82601f10620002ff57805160ff191683800117855562000330565b8280016001018555821562000330579182015b828111156200032f57825182559160200191906001019062000312565b5b5090506200033f919062000343565b5090565b5b808211156200035e57600081600090555060010162000344565b5090565b60006200037962000373846200048b565b62000462565b9050828152602081018484840111156200039257600080fd5b6200039f848285620004d2565b509392505050565b600082601f830112620003b957600080fd5b8151620003cb84826020860162000362565b91505092915050565b600060208284031215620003e757600080fd5b600082015167ffffffffffffffff8111156200040257600080fd5b6200041084828501620003a7565b91505092915050565b600062000428602083620004c1565b91506200043582620005e3565b602082019050919050565b600060208201905081810360008301526200045b8162000419565b9050919050565b60006200046e62000481565b90506200047c82826200053e565b919050565b6000604051905090565b600067ffffffffffffffff821115620004a957620004a8620005a3565b5b620004b482620005d2565b9050602081019050919050565b600082825260208201905092915050565b60005b83811015620004f2578082015181840152602081019050620004d5565b8381111562000502576000848401525b50505050565b600060028204905060018216806200052157607f821691505b6020821081141562000538576200053762000574565b5b50919050565b6200054982620005d2565b810181811067ffffffffffffffff821117156200056b576200056a620005a3565b5b80604052505050565b7f4e487b7100000000000000000000000000000000000000000000000000000000600052602260045260246000fd5b7f4e487b7100000000000000000000000000000000000000000000000000000000600052604160045260246000fd5b6000601f19601f8301169050919050565b7f4f776e61626c653a2063616c6c6572206973206e6f7420746865206f776e6572600082015250565b614283806200061c6000396000f3fe6080604052600436106101d85760003560e01c8063634ccdfe11610102578063b7cca2d411610095578063d547cfb711610064578063d547cfb714610680578063e985e9c5146106ab578063eba1ce98146106e8578063f2fde38b14610704576101d8565b8063b7cca2d4146105c4578063b88d4fde146105ef578063bddb7be714610618578063c87b56dd14610643576101d8565b80638da5cb5b116100d15780638da5cb5b1461051a57806395d89b4114610545578063a22cb46514610570578063b472070f14610599576101d8565b8063634ccdfe1461046d5780636352211e1461048957806370a08231146104c6578063715018a614610503576101d8565b80631e5f5dc01161017a5780633ccfd60b116101495780633ccfd60b146103d457806342842e0e146103de5780634f6ccce71461040757806355f804b314610444576101d8565b80631e5f5dc01461031857806323b872dd146103435780632f745c591461036c57806332cb6b0c146103a9576101d8565b8063095ea7b3116101b6578063095ea7b31461028257806309d42b30146102ab578063144100c7146102d657806318160ddd146102ed576101d8565b806301ffc9a7146101dd57806306fdde031461021a578063081812fc14610245575b600080fd5b3480156101e957600080fd5b5061020460048036038101906101ff9190612e7d565b61072d565b6040516102119190613414565b60405180910390f35b34801561022657600080fd5b5061022f6107a7565b60405161023c919061342f565b60405180910390f35b34801561025157600080fd5b5061026c60048036038101906102679190612f10565b610839565b60405161027991906133ad565b60405180910390f35b34801561028e57600080fd5b506102a960048036038101906102a49190612e41565b6108be565b005b3480156102b757600080fd5b506102c06109d6565b6040516102cd9190613751565b60405180910390f35b3480156102e257600080fd5b506102eb6109db565b005b3480156102f957600080fd5b50610302610ae7565b60405161030f9190613751565b60405180910390f35b34801561032457600080fd5b5061032d610af4565b60405161033a9190613751565b60405180910390f35b34801561034f57600080fd5b5061036a60048036038101906103659190612d3b565b610b00565b005b34801561037857600080fd5b50610393600480360381019061038e9190612e41565b610b60565b6040516103a09190613751565b60405180910390f35b3480156103b557600080fd5b506103be610c05565b6040516103cb9190613751565b60405180910390f35b6103dc610c0b565b005b3480156103ea57600080fd5b5061040560048036038101906104009190612d3b565b610d7f565b005b34801561041357600080fd5b5061042e60048036038101906104299190612f10565b610d9f565b60405161043b9190613751565b60405180910390f35b34801561045057600080fd5b5061046b60048036038101906104669190612ecf565b610e36565b005b61048760048036038101906104829190612f10565b610ecc565b005b34801561049557600080fd5b506104b060048036038101906104ab9190612f10565b611008565b6040516104bd91906133ad565b60405180910390f35b3480156104d257600080fd5b506104ed60048036038101906104e89190612cd6565b6110ba565b6040516104fa9190613751565b60405180910390f35b34801561050f57600080fd5b50610518611172565b005b34801561052657600080fd5b5061052f6111fa565b60405161053c91906133ad565b60405180910390f35b34801561055157600080fd5b5061055a611224565b604051610567919061342f565b60405180910390f35b34801561057c57600080fd5b5061059760048036038101906105929190612e05565b6112b6565b005b3480156105a557600080fd5b506105ae6112cc565b6040516105bb9190613751565b60405180910390f35b3480156105d057600080fd5b506105d96112d7565b6040516105e69190613751565b60405180910390f35b3480156105fb57600080fd5b5061061660048036038101906106119190612d8a565b6112e7565b005b34801561062457600080fd5b5061062d611349565b60405161063a9190613751565b60405180910390f35b34801561064f57600080fd5b5061066a60048036038101906106659190612f10565b611358565b604051610677919061342f565b60405180910390f35b34801561068c57600080fd5b506106956113ff565b6040516106a2919061342f565b60405180910390f35b3480156106b757600080fd5b506106d260048036038101906106cd9190612cff565b61148d565b6040516106df9190613414565b60405180910390f35b61070260048036038101906106fd9190612f10565b611521565b005b34801561071057600080fd5b5061072b60048036038101906107269190612cd6565b61165e565b005b60007f780e9d63000000000000000000000000000000000000000000000000000000007bffffffffffffffffffffffffffffffffffffffffffffffffffffffff1916827bffffffffffffffffffffffffffffffffffffffffffffffffffffffff191614806107a0575061079f82611756565b5b9050919050565b6060600080546107b690613a0c565b80601f01602080910402602001604051908101604052809291908181526020018280546107e290613a0c565b801561082f5780601f106108045761010080835404028352916020019161082f565b820191906000526020600020905b81548152906001019060200180831161081257829003601f168201915b5050505050905090565b600061084482611838565b610883576040517f08c379a000000000000000000000000000000000000000000000000000000000815260040161087a90613671565b60405180910390fd5b6004600083815260200190815260200160002060009054906101000a900473ffffffffffffffffffffffffffffffffffffffff169050919050565b60006108c982611008565b90508073ffffffffffffffffffffffffffffffffffffffff168373ffffffffffffffffffffffffffffffffffffffff16141561093a576040517f08c379a0000000000000000000000000000000000000000000000000000000008152600401610931906136d1565b60405180910390fd5b8073ffffffffffffffffffffffffffffffffffffffff166109596118a4565b73ffffffffffffffffffffffffffffffffffffffff1614806109885750610987816109826118a4565b61148d565b5b6109c7576040517f08c379a00000000000000000000000000000000000000000000000000000000081526004016109be906135d1565b60405180910390fd5b6109d183836118ac565b505050565b602881565b6109e36118a4565b73ffffffffffffffffffffffffffffffffffffffff16610a016111fa565b73ffffffffffffffffffffffffffffffffffffffff1614610a57576040517f08c379a0000000000000000000000000000000000000000000000000000000008152600401610a4e90613691565b60405180910390fd5b6000610a63600b611965565b9050611bea610a7c60288361197390919063ffffffff16565b10610abc576040517f08c379a0000000000000000000000000000000000000000000000000000000008152600401610ab390613451565b60405180910390fd5b60005b6028811015610ae357610ad0611989565b8080610adb90613a6f565b915050610abf565b5050565b6000600880549050905090565b67013fbe85edc9000081565b610b11610b0b6118a4565b826119ae565b610b50576040517f08c379a0000000000000000000000000000000000000000000000000000000008152600401610b4790613711565b60405180910390fd5b610b5b838383611a8c565b505050565b6000610b6b836110ba565b8210610bac576040517f08c379a0000000000000000000000000000000000000000000000000000000008152600401610ba390613471565b60405180910390fd5b600660008473ffffffffffffffffffffffffffffffffffffffff1673ffffffffffffffffffffffffffffffffffffffff168152602001908152602001600020600083815260200190815260200160002054905092915050565b611bea81565b610c136118a4565b73ffffffffffffffffffffffffffffffffffffffff16610c316111fa565b73ffffffffffffffffffffffffffffffffffffffff1614610c87576040517f08c379a0000000000000000000000000000000000000000000000000000000008152600401610c7e90613691565b60405180910390fd5b600047905060008111610ccf576040517f08c379a0000000000000000000000000000000000000000000000000000000008152600401610cc690613651565b60405180910390fd5b60003373ffffffffffffffffffffffffffffffffffffffff1682604051610cf590613398565b60006040518083038185875af1925050503d8060008114610d32576040519150601f19603f3d011682016040523d82523d6000602084013e610d37565b606091505b5050905080610d7b576040517f08c379a0000000000000000000000000000000000000000000000000000000008152600401610d72906136f1565b60405180910390fd5b5050565b610d9a838383604051806020016040528060008152506112e7565b505050565b6000610da9610ae7565b8210610dea576040517f08c379a0000000000000000000000000000000000000000000000000000000008152600401610de190613731565b60405180910390fd5b60088281548110610e24577f4e487b7100000000000000000000000000000000000000000000000000000000600052603260045260246000fd5b90600052602060002001549050919050565b610e3e6118a4565b73ffffffffffffffffffffffffffffffffffffffff16610e5c6111fa565b73ffffffffffffffffffffffffffffffffffffffff1614610eb2576040517f08c379a0000000000000000000000000000000000000000000000000000000008152600401610ea990613691565b60405180910390fd5b80600c9080519060200190610ec8929190612afa565b5050565b6000610ed8600b611965565b9050611bea610ef0838361197390919063ffffffff16565b1115610f31576040517f08c379a0000000000000000000000000000000000000000000000000000000008152600401610f2890613571565b60405180910390fd5b600082118015610f42575060288211155b610f81576040517f08c379a0000000000000000000000000000000000000000000000000000000008152600401610f7890613591565b60405180910390fd5b610f9b8266f8b0a10e470000611cf390919063ffffffff16565b341015610fdd576040517f08c379a0000000000000000000000000000000000000000000000000000000008152600401610fd490613551565b60405180910390fd5b60005b8281101561100357610ff0611989565b8080610ffb90613a6f565b915050610fe0565b505050565b6000806002600084815260200190815260200160002060009054906101000a900473ffffffffffffffffffffffffffffffffffffffff169050600073ffffffffffffffffffffffffffffffffffffffff168173ffffffffffffffffffffffffffffffffffffffff1614156110b1576040517f08c379a00000000000000000000000000000000000000000000000000000000081526004016110a890613611565b60405180910390fd5b80915050919050565b60008073ffffffffffffffffffffffffffffffffffffffff168273ffffffffffffffffffffffffffffffffffffffff16141561112b576040517f08c379a0000000000000000000000000000000000000000000000000000000008152600401611122906135f1565b60405180910390fd5b600360008373ffffffffffffffffffffffffffffffffffffffff1673ffffffffffffffffffffffffffffffffffffffff168152602001908152602001600020549050919050565b61117a6118a4565b73ffffffffffffffffffffffffffffffffffffffff166111986111fa565b73ffffffffffffffffffffffffffffffffffffffff16146111ee576040517f08c379a00000000000000000000000000000000000000000000000000000000081526004016111e590613691565b60405180910390fd5b6111f86000611d09565b565b6000600a60009054906101000a900473ffffffffffffffffffffffffffffffffffffffff16905090565b60606001805461123390613a0c565b80601f016020809104026020016040519081016040528092919081815260200182805461125f90613a0c565b80156112ac5780601f10611281576101008083540402835291602001916112ac565b820191906000526020600020905b81548152906001019060200180831161128f57829003601f168201915b5050505050905090565b6112c86112c16118a4565b8383611dcf565b5050565b66f8b0a10e47000081565b600067013fbe85edc90000905090565b6112f86112f26118a4565b836119ae565b611337576040517f08c379a000000000000000000000000000000000000000000000000000000000815260040161132e90613711565b60405180910390fd5b61134384848484611f3c565b50505050565b600066f8b0a10e470000905090565b606061136382611838565b6113a2576040517f08c379a0000000000000000000000000000000000000000000000000000000008152600401611399906136b1565b60405180910390fd5b60006113ac611f98565b905060008151116113cc57604051806020016040528060008152506113f7565b806113d68461202a565b6040516020016113e7929190613374565b6040516020818303038152906040525b915050919050565b600c805461140c90613a0c565b80601f016020809104026020016040519081016040528092919081815260200182805461143890613a0c565b80156114855780601f1061145a57610100808354040283529160200191611485565b820191906000526020600020905b81548152906001019060200180831161146857829003601f168201915b505050505081565b6000600560008473ffffffffffffffffffffffffffffffffffffffff1673ffffffffffffffffffffffffffffffffffffffff16815260200190815260200160002060008373ffffffffffffffffffffffffffffffffffffffff1673ffffffffffffffffffffffffffffffffffffffff16815260200190815260200160002060009054906101000a900460ff16905092915050565b600061152d600b611965565b9050611bea611545838361197390919063ffffffff16565b1115611586576040517f08c379a000000000000000000000000000000000000000000000000000000000815260040161157d90613571565b60405180910390fd5b600082118015611597575060288211155b6115d6576040517f08c379a00000000000000000000000000000000000000000000000000000000081526004016115cd90613591565b60405180910390fd5b6115f18267013fbe85edc90000611cf390919063ffffffff16565b341015611633576040517f08c379a000000000000000000000000000000000000000000000000000000000815260040161162a90613551565b60405180910390fd5b60005b8281101561165957611646611989565b808061165190613a6f565b915050611636565b505050565b6116666118a4565b73ffffffffffffffffffffffffffffffffffffffff166116846111fa565b73ffffffffffffffffffffffffffffffffffffffff16146116da576040517f08c379a00000000000000000000000000000000000000000000000000000000081526004016116d190613691565b60405180910390fd5b600073ffffffffffffffffffffffffffffffffffffffff168173ffffffffffffffffffffffffffffffffffffffff16141561174a576040517f08c379a0000000000000000000000000000000000000000000000000000000008152600401611741906134b1565b60405180910390fd5b61175381611d09565b50565b60007f80ac58cd000000000000000000000000000000000000000000000000000000007bffffffffffffffffffffffffffffffffffffffffffffffffffffffff1916827bffffffffffffffffffffffffffffffffffffffffffffffffffffffff1916148061182157507f5b5e139f000000000000000000000000000000000000000000000000000000007bffffffffffffffffffffffffffffffffffffffffffffffffffffffff1916827bffffffffffffffffffffffffffffffffffffffffffffffffffffffff1916145b806118315750611830826121d7565b5b9050919050565b60008073ffffffffffffffffffffffffffffffffffffffff166002600084815260200190815260200160002060009054906101000a900473ffffffffffffffffffffffffffffffffffffffff1673ffffffffffffffffffffffffffffffffffffffff1614159050919050565b600033905090565b816004600083815260200190815260200160002060006101000a81548173ffffffffffffffffffffffffffffffffffffffff021916908373ffffffffffffffffffffffffffffffffffffffff160217905550808273ffffffffffffffffffffffffffffffffffffffff1661191f83611008565b73ffffffffffffffffffffffffffffffffffffffff167f8c5be1e5ebec7d5bd14f71427d1e84f3dd0314c0f7b2291e5b200ac8c7c3b92560405160405180910390a45050565b600081600001549050919050565b600081836119819190613841565b905092915050565b6000611995600b611965565b90506119a13382612241565b6119ab600b61225f565b50565b60006119b982611838565b6119f8576040517f08c379a00000000000000000000000000000000000000000000000000000000081526004016119ef906135b1565b60405180910390fd5b6000611a0383611008565b90508073ffffffffffffffffffffffffffffffffffffffff168473ffffffffffffffffffffffffffffffffffffffff161480611a455750611a44818561148d565b5b80611a8357508373ffffffffffffffffffffffffffffffffffffffff16611a6b84610839565b73ffffffffffffffffffffffffffffffffffffffff16145b91505092915050565b8273ffffffffffffffffffffffffffffffffffffffff16611aac82611008565b73ffffffffffffffffffffffffffffffffffffffff1614611b02576040517f08c379a0000000000000000000000000000000000000000000000000000000008152600401611af9906134d1565b60405180910390fd5b600073ffffffffffffffffffffffffffffffffffffffff168273ffffffffffffffffffffffffffffffffffffffff161415611b72576040517f08c379a0000000000000000000000000000000000000000000000000000000008152600401611b6990613511565b60405180910390fd5b611b7d838383612275565b611b886000826118ac565b6001600360008573ffffffffffffffffffffffffffffffffffffffff1673ffffffffffffffffffffffffffffffffffffffff1681526020019081526020016000206000828254611bd89190613922565b925050819055506001600360008473ffffffffffffffffffffffffffffffffffffffff1673ffffffffffffffffffffffffffffffffffffffff1681526020019081526020016000206000828254611c2f9190613841565b92505081905550816002600083815260200190815260200160002060006101000a81548173ffffffffffffffffffffffffffffffffffffffff021916908373ffffffffffffffffffffffffffffffffffffffff160217905550808273ffffffffffffffffffffffffffffffffffffffff168473ffffffffffffffffffffffffffffffffffffffff167fddf252ad1be2c89b69c2b068fc378daa952ba7f163c4a11628f55a4df523b3ef60405160405180910390a4611cee838383612389565b505050565b60008183611d0191906138c8565b905092915050565b6000600a60009054906101000a900473ffffffffffffffffffffffffffffffffffffffff16905081600a60006101000a81548173ffffffffffffffffffffffffffffffffffffffff021916908373ffffffffffffffffffffffffffffffffffffffff1602179055508173ffffffffffffffffffffffffffffffffffffffff168173ffffffffffffffffffffffffffffffffffffffff167f8be0079c531659141344cd1fd0a4f28419497f9722a3daafe3b4186f6b6457e060405160405180910390a35050565b8173ffffffffffffffffffffffffffffffffffffffff168373ffffffffffffffffffffffffffffffffffffffff161415611e3e576040517f08c379a0000000000000000000000000000000000000000000000000000000008152600401611e3590613531565b60405180910390fd5b80600560008573ffffffffffffffffffffffffffffffffffffffff1673ffffffffffffffffffffffffffffffffffffffff16815260200190815260200160002060008473ffffffffffffffffffffffffffffffffffffffff1673ffffffffffffffffffffffffffffffffffffffff16815260200190815260200160002060006101000a81548160ff0219169083151502179055508173ffffffffffffffffffffffffffffffffffffffff168373ffffffffffffffffffffffffffffffffffffffff167f17307eab39ab6107e8899845ad3d59bd9653f200f220920489ca2b5937696c3183604051611f2f9190613414565b60405180910390a3505050565b611f47848484611a8c565b611f538484848461238e565b611f92576040517f08c379a0000000000000000000000000000000000000000000000000000000008152600401611f8990613491565b60405180910390fd5b50505050565b6060600c8054611fa790613a0c565b80601f0160208091040260200160405190810160405280929190818152602001828054611fd390613a0c565b80156120205780601f10611ff557610100808354040283529160200191612020565b820191906000526020600020905b81548152906001019060200180831161200357829003601f168201915b5050505050905090565b60606000821415612072576040518060400160405280600181526020017f300000000000000000000000000000000000000000000000000000000000000081525090506121d2565b600082905060005b600082146120a457808061208d90613a6f565b915050600a8261209d9190613897565b915061207a565b60008167ffffffffffffffff8111156120e6577f4e487b7100000000000000000000000000000000000000000000000000000000600052604160045260246000fd5b6040519080825280601f01601f1916602001820160405280156121185781602001600182028036833780820191505090505b5090505b600085146121cb576001826121319190613922565b9150600a856121409190613ab8565b603061214c9190613841565b60f81b818381518110612188577f4e487b7100000000000000000000000000000000000000000000000000000000600052603260045260246000fd5b60200101907effffffffffffffffffffffffffffffffffffffffffffffffffffffffffffff1916908160001a905350600a856121c49190613897565b945061211c565b8093505050505b919050565b60007f01ffc9a7000000000000000000000000000000000000000000000000000000007bffffffffffffffffffffffffffffffffffffffffffffffffffffffff1916827bffffffffffffffffffffffffffffffffffffffffffffffffffffffff1916149050919050565b61225b828260405180602001604052806000815250612525565b5050565b6001816000016000828254019250508190555050565b612280838383612580565b600073ffffffffffffffffffffffffffffffffffffffff168373ffffffffffffffffffffffffffffffffffffffff1614156122c3576122be81612585565b612302565b8173ffffffffffffffffffffffffffffffffffffffff168373ffffffffffffffffffffffffffffffffffffffff16146123015761230083826125ce565b5b5b600073ffffffffffffffffffffffffffffffffffffffff168273ffffffffffffffffffffffffffffffffffffffff161415612345576123408161273b565b612384565b8273ffffffffffffffffffffffffffffffffffffffff168273ffffffffffffffffffffffffffffffffffffffff161461238357612382828261287e565b5b5b505050565b505050565b60006123af8473ffffffffffffffffffffffffffffffffffffffff166128fd565b15612518578373ffffffffffffffffffffffffffffffffffffffff1663150b7a026123d86118a4565b8786866040518563ffffffff1660e01b81526004016123fa94939291906133c8565b602060405180830381600087803b15801561241457600080fd5b505af192505050801561244557506040513d601f19601f820116820180604052508101906124429190612ea6565b60015b6124c8573d8060008114612475576040519150601f19603f3d011682016040523d82523d6000602084013e61247a565b606091505b506000815114156124c0576040517f08c379a00000000000000000000000000000000000000000000000000000000081526004016124b790613491565b60405180910390fd5b805181602001fd5b63150b7a0260e01b7bffffffffffffffffffffffffffffffffffffffffffffffffffffffff1916817bffffffffffffffffffffffffffffffffffffffffffffffffffffffff19161491505061251d565b600190505b949350505050565b61252f8383612920565b61253c600084848461238e565b61257b576040517f08c379a000000000000000000000000000000000000000000000000000000000815260040161257290613491565b60405180910390fd5b505050565b505050565b6008805490506009600083815260200190815260200160002081905550600881908060018154018082558091505060019003906000526020600020016000909190919091505550565b600060016125db846110ba565b6125e59190613922565b90506000600760008481526020019081526020016000205490508181146126ca576000600660008673ffffffffffffffffffffffffffffffffffffffff1673ffffffffffffffffffffffffffffffffffffffff168152602001908152602001600020600084815260200190815260200160002054905080600660008773ffffffffffffffffffffffffffffffffffffffff1673ffffffffffffffffffffffffffffffffffffffff168152602001908152602001600020600084815260200190815260200160002081905550816007600083815260200190815260200160002081905550505b6007600084815260200190815260200160002060009055600660008573ffffffffffffffffffffffffffffffffffffffff1673ffffffffffffffffffffffffffffffffffffffff16815260200190815260200160002060008381526020019081526020016000206000905550505050565b6000600160088054905061274f9190613922565b90506000600960008481526020019081526020016000205490506000600883815481106127a5577f4e487b7100000000000000000000000000000000000000000000000000000000600052603260045260246000fd5b9060005260206000200154905080600883815481106127ed577f4e487b7100000000000000000000000000000000000000000000000000000000600052603260045260246000fd5b906000526020600020018190555081600960008381526020019081526020016000208190555060096000858152602001908152602001600020600090556008805480612862577f4e487b7100000000000000000000000000000000000000000000000000000000600052603160045260246000fd5b6001900381819060005260206000200160009055905550505050565b6000612889836110ba565b905081600660008573ffffffffffffffffffffffffffffffffffffffff1673ffffffffffffffffffffffffffffffffffffffff168152602001908152602001600020600083815260200190815260200160002081905550806007600084815260200190815260200160002081905550505050565b6000808273ffffffffffffffffffffffffffffffffffffffff163b119050919050565b600073ffffffffffffffffffffffffffffffffffffffff168273ffffffffffffffffffffffffffffffffffffffff161415612990576040517f08c379a000000000000000000000000000000000000000000000000000000000815260040161298790613631565b60405180910390fd5b61299981611838565b156129d9576040517f08c379a00000000000000000000000000000000000000000000000000000000081526004016129d0906134f1565b60405180910390fd5b6129e560008383612275565b6001600360008473ffffffffffffffffffffffffffffffffffffffff1673ffffffffffffffffffffffffffffffffffffffff1681526020019081526020016000206000828254612a359190613841565b92505081905550816002600083815260200190815260200160002060006101000a81548173ffffffffffffffffffffffffffffffffffffffff021916908373ffffffffffffffffffffffffffffffffffffffff160217905550808273ffffffffffffffffffffffffffffffffffffffff16600073ffffffffffffffffffffffffffffffffffffffff167fddf252ad1be2c89b69c2b068fc378daa952ba7f163c4a11628f55a4df523b3ef60405160405180910390a4612af660008383612389565b5050565b828054612b0690613a0c565b90600052602060002090601f016020900481019282612b285760008555612b6f565b82601f10612b4157805160ff1916838001178555612b6f565b82800160010185558215612b6f579182015b82811115612b6e578251825591602001919060010190612b53565b5b509050612b7c9190612b80565b5090565b5b80821115612b99576000816000905550600101612b81565b5090565b6000612bb0612bab84613791565b61376c565b905082815260208101848484011115612bc857600080fd5b612bd38482856139ca565b509392505050565b6000612bee612be9846137c2565b61376c565b905082815260208101848484011115612c0657600080fd5b612c118482856139ca565b509392505050565b600081359050612c28816141f1565b92915050565b600081359050612c3d81614208565b92915050565b600081359050612c528161421f565b92915050565b600081519050612c678161421f565b92915050565b600082601f830112612c7e57600080fd5b8135612c8e848260208601612b9d565b91505092915050565b600082601f830112612ca857600080fd5b8135612cb8848260208601612bdb565b91505092915050565b600081359050612cd081614236565b92915050565b600060208284031215612ce857600080fd5b6000612cf684828501612c19565b91505092915050565b60008060408385031215612d1257600080fd5b6000612d2085828601612c19565b9250506020612d3185828601612c19565b9150509250929050565b600080600060608486031215612d5057600080fd5b6000612d5e86828701612c19565b9350506020612d6f86828701612c19565b9250506040612d8086828701612cc1565b9150509250925092565b60008060008060808587031215612da057600080fd5b6000612dae87828801612c19565b9450506020612dbf87828801612c19565b9350506040612dd087828801612cc1565b925050606085013567ffffffffffffffff811115612ded57600080fd5b612df987828801612c6d565b91505092959194509250565b60008060408385031215612e1857600080fd5b6000612e2685828601612c19565b9250506020612e3785828601612c2e565b9150509250929050565b60008060408385031215612e5457600080fd5b6000612e6285828601612c19565b9250506020612e7385828601612cc1565b9150509250929050565b600060208284031215612e8f57600080fd5b6000612e9d84828501612c43565b91505092915050565b600060208284031215612eb857600080fd5b6000612ec684828501612c58565b91505092915050565b600060208284031215612ee157600080fd5b600082013567ffffffffffffffff811115612efb57600080fd5b612f0784828501612c97565b91505092915050565b600060208284031215612f2257600080fd5b6000612f3084828501612cc1565b91505092915050565b612f4281613956565b82525050565b612f5181613968565b82525050565b6000612f62826137f3565b612f6c8185613809565b9350612f7c8185602086016139d9565b612f8581613ba5565b840191505092915050565b6000612f9b826137fe565b612fa58185613825565b9350612fb58185602086016139d9565b612fbe81613ba5565b840191505092915050565b6000612fd4826137fe565b612fde8185613836565b9350612fee8185602086016139d9565b80840191505092915050565b6000613007601f83613825565b915061301282613bb6565b602082019050919050565b600061302a602b83613825565b915061303582613bdf565b604082019050919050565b600061304d603283613825565b915061305882613c2e565b604082019050919050565b6000613070602683613825565b915061307b82613c7d565b604082019050919050565b6000613093602583613825565b915061309e82613ccc565b604082019050919050565b60006130b6601c83613825565b91506130c182613d1b565b602082019050919050565b60006130d9602483613825565b91506130e482613d44565b604082019050919050565b60006130fc601983613825565b915061310782613d93565b602082019050919050565b600061311f602283613825565b915061312a82613dbc565b604082019050919050565b6000613142601583613825565b915061314d82613e0b565b602082019050919050565b6000613165602583613825565b915061317082613e34565b604082019050919050565b6000613188602c83613825565b915061319382613e83565b604082019050919050565b60006131ab603883613825565b91506131b682613ed2565b604082019050919050565b60006131ce602a83613825565b91506131d982613f21565b604082019050919050565b60006131f1602983613825565b91506131fc82613f70565b604082019050919050565b6000613214602083613825565b915061321f82613fbf565b602082019050919050565b6000613237601983613825565b915061324282613fe8565b602082019050919050565b600061325a602c83613825565b915061326582614011565b604082019050919050565b600061327d602083613825565b915061328882614060565b602082019050919050565b60006132a0602f83613825565b91506132ab82614089565b604082019050919050565b60006132c3602183613825565b91506132ce826140d8565b604082019050919050565b60006132e660008361381a565b91506132f182614127565b600082019050919050565b6000613309601083613825565b91506133148261412a565b602082019050919050565b600061332c603183613825565b915061333782614153565b604082019050919050565b600061334f602c83613825565b915061335a826141a2565b604082019050919050565b61336e816139c0565b82525050565b60006133808285612fc9565b915061338c8284612fc9565b91508190509392505050565b60006133a3826132d9565b9150819050919050565b60006020820190506133c26000830184612f39565b92915050565b60006080820190506133dd6000830187612f39565b6133ea6020830186612f39565b6133f76040830185613365565b81810360608301526134098184612f57565b905095945050505050565b60006020820190506134296000830184612f48565b92915050565b600060208201905081810360008301526134498184612f90565b905092915050565b6000602082019050818103600083015261346a81612ffa565b9050919050565b6000602082019050818103600083015261348a8161301d565b9050919050565b600060208201905081810360008301526134aa81613040565b9050919050565b600060208201905081810360008301526134ca81613063565b9050919050565b600060208201905081810360008301526134ea81613086565b9050919050565b6000602082019050818103600083015261350a816130a9565b9050919050565b6000602082019050818103600083015261352a816130cc565b9050919050565b6000602082019050818103600083015261354a816130ef565b9050919050565b6000602082019050818103600083015261356a81613112565b9050919050565b6000602082019050818103600083015261358a81613135565b9050919050565b600060208201905081810360008301526135aa81613158565b9050919050565b600060208201905081810360008301526135ca8161317b565b9050919050565b600060208201905081810360008301526135ea8161319e565b9050919050565b6000602082019050818103600083015261360a816131c1565b9050919050565b6000602082019050818103600083015261362a816131e4565b9050919050565b6000602082019050818103600083015261364a81613207565b9050919050565b6000602082019050818103600083015261366a8161322a565b9050919050565b6000602082019050818103600083015261368a8161324d565b9050919050565b600060208201905081810360008301526136aa81613270565b9050919050565b600060208201905081810360008301526136ca81613293565b9050919050565b600060208201905081810360008301526136ea816132b6565b9050919050565b6000602082019050818103600083015261370a816132fc565b9050919050565b6000602082019050818103600083015261372a8161331f565b9050919050565b6000602082019050818103600083015261374a81613342565b9050919050565b60006020820190506137666000830184613365565b92915050565b6000613776613787565b90506137828282613a3e565b919050565b6000604051905090565b600067ffffffffffffffff8211156137ac576137ab613b76565b5b6137b582613ba5565b9050602081019050919050565b600067ffffffffffffffff8211156137dd576137dc613b76565b5b6137e682613ba5565b9050602081019050919050565b600081519050919050565b600081519050919050565b600082825260208201905092915050565b600081905092915050565b600082825260208201905092915050565b600081905092915050565b600061384c826139c0565b9150613857836139c0565b9250827fffffffffffffffffffffffffffffffffffffffffffffffffffffffffffffffff0382111561388c5761388b613ae9565b5b828201905092915050565b60006138a2826139c0565b91506138ad836139c0565b9250826138bd576138bc613b18565b5b828204905092915050565b60006138d3826139c0565b91506138de836139c0565b9250817fffffffffffffffffffffffffffffffffffffffffffffffffffffffffffffffff048311821515161561391757613916613ae9565b5b828202905092915050565b600061392d826139c0565b9150613938836139c0565b92508282101561394b5761394a613ae9565b5b828203905092915050565b6000613961826139a0565b9050919050565b60008115159050919050565b60007fffffffff0000000000000000000000000000000000000000000000000000000082169050919050565b600073ffffffffffffffffffffffffffffffffffffffff82169050919050565b6000819050919050565b82818337600083830152505050565b60005b838110156139f75780820151818401526020810190506139dc565b83811115613a06576000848401525b50505050565b60006002820490506001821680613a2457607f821691505b60208210811415613a3857613a37613b47565b5b50919050565b613a4782613ba5565b810181811067ffffffffffffffff82111715613a6657613a65613b76565b5b80604052505050565b6000613a7a826139c0565b91507fffffffffffffffffffffffffffffffffffffffffffffffffffffffffffffffff821415613aad57613aac613ae9565b5b600182019050919050565b6000613ac3826139c0565b9150613ace836139c0565b925082613ade57613add613b18565b5b828206905092915050565b7f4e487b7100000000000000000000000000000000000000000000000000000000600052601160045260246000fd5b7f4e487b7100000000000000000000000000000000000000000000000000000000600052601260045260246000fd5b7f4e487b7100000000000000000000000000000000000000000000000000000000600052602260045260246000fd5b7f4e487b7100000000000000000000000000000000000000000000000000000000600052604160045260246000fd5b6000601f19601f8301169050919050565b7f4e6f7420656e6f756768204e465473206c65667420746f207265736572766500600082015250565b7f455243373231456e756d657261626c653a206f776e657220696e646578206f7560008201527f74206f6620626f756e6473000000000000000000000000000000000000000000602082015250565b7f4552433732313a207472616e7366657220746f206e6f6e20455243373231526560008201527f63656976657220696d706c656d656e7465720000000000000000000000000000602082015250565b7f4f776e61626c653a206e6577206f776e657220697320746865207a65726f206160008201527f6464726573730000000000000000000000000000000000000000000000000000602082015250565b7f4552433732313a207472616e736665722066726f6d20696e636f72726563742060008201527f6f776e6572000000000000000000000000000000000000000000000000000000602082015250565b7f4552433732313a20746f6b656e20616c7265616479206d696e74656400000000600082015250565b7f4552433732313a207472616e7366657220746f20746865207a65726f2061646460008201527f7265737300000000000000000000000000000000000000000000000000000000602082015250565b7f4552433732313a20617070726f766520746f2063616c6c657200000000000000600082015250565b7f4e6f7420656e6f75676820657468657220746f207075726368617365204e465460008201527f732e000000000000000000000000000000000000000000000000000000000000602082015250565b7f4e6f7420656e6f756768204e465473206c656674210000000000000000000000600082015250565b7f43616e6e6f74206d696e7420737065636966696564206e756d626572206f662060008201527f4e4654732e000000000000000000000000000000000000000000000000000000602082015250565b7f4552433732313a206f70657261746f7220717565727920666f72206e6f6e657860008201527f697374656e7420746f6b656e0000000000000000000000000000000000000000602082015250565b7f4552433732313a20617070726f76652063616c6c6572206973206e6f74206f7760008201527f6e6572206e6f7220617070726f76656420666f7220616c6c0000000000000000602082015250565b7f4552433732313a2062616c616e636520717565727920666f7220746865207a6560008201527f726f206164647265737300000000000000000000000000000000000000000000602082015250565b7f4552433732313a206f776e657220717565727920666f72206e6f6e657869737460008201527f656e7420746f6b656e0000000000000000000000000000000000000000000000602082015250565b7f4552433732313a206d696e7420746f20746865207a65726f2061646472657373600082015250565b7f4e6f206574686572206c65667420746f20776974686472617700000000000000600082015250565b7f4552433732313a20617070726f76656420717565727920666f72206e6f6e657860008201527f697374656e7420746f6b656e0000000000000000000000000000000000000000602082015250565b7f4f776e61626c653a2063616c6c6572206973206e6f7420746865206f776e6572600082015250565b7f4552433732314d657461646174613a2055524920717565727920666f72206e6f60008201527f6e6578697374656e7420746f6b656e0000000000000000000000000000000000602082015250565b7f4552433732313a20617070726f76616c20746f2063757272656e74206f776e6560008201527f7200000000000000000000000000000000000000000000000000000000000000602082015250565b50565b7f5472616e73666572206661696c65642e00000000000000000000000000000000600082015250565b7f4552433732313a207472616e736665722063616c6c6572206973206e6f74206f60008201527f776e6572206e6f7220617070726f766564000000000000000000000000000000602082015250565b7f455243373231456e756d657261626c653a20676c6f62616c20696e646578206f60008201527f7574206f6620626f756e64730000000000000000000000000000000000000000602082015250565b6141fa81613956565b811461420557600080fd5b50565b61421181613968565b811461421c57600080fd5b50565b61422881613974565b811461423357600080fd5b50565b61423f816139c0565b811461424a57600080fd5b5056fea264697066735822122097b82ebab2c6d58299231f06ad48aff24a32355575bc85f2a6be7f8f1515262364736f6c63430008040033",
  "linkReferences": {},
  "deployedLinkReferences": {}
}