{
  "_format": "hh-sol-artifact-1",
  "contractName": "AOTA",
  "sourceName": "contracts/AOTA.sol",
  "abi": [
    {
      "inputs": [
        {
          "internalType": "string",
          "name": "baseURI",
          "type": "string"
        },
        {
          "internalType": "string",
          "name": "mockImageLink",
          "type": "string"
        }
      ],
      "stateMutability": "nonpayable",
      "type": "constructor"
    },
    {
      "anonymous": false,
      "inputs": [
        {
          "indexed": true,
          "internalType": "address",
          "name": "owner",
          "type": "address"
        },
        {
          "indexed": true,
          "internalType": "address",
          "name": "approved",
          "type": "address"
        },
        {
          "indexed": true,
          "internalType": "uint256",
          "name": "tokenId",
          "type": "uint256"
        }
      ],
      "name": "Approval",
      "type": "event"
    },
    {
      "anonymous": false,
      "inputs": [
        {
          "indexed": true,
          "internalType": "address",
          "name": "owner",
          "type": "address"
        },
        {
          "indexed": true,
          "internalType": "address",
          "name": "operator",
          "type": "address"
        },
        {
          "indexed": false,
          "internalType": "bool",
          "name": "approved",
          "type": "bool"
        }
      ],
      "name": "ApprovalForAll",
      "type": "event"
    },
    {
      "anonymous": false,
      "inputs": [
        {
          "indexed": true,
          "internalType": "address",
          "name": "previousOwner",
          "type": "address"
        },
        {
          "indexed": true,
          "internalType": "address",
          "name": "newOwner",
          "type": "address"
        }
      ],
      "name": "OwnershipTransferred",
      "type": "event"
    },
    {
      "anonymous": false,
      "inputs": [
        {
          "indexed": true,
          "internalType": "address",
          "name": "from",
          "type": "address"
        },
        {
          "indexed": true,
          "internalType": "address",
          "name": "to",
          "type": "address"
        },
        {
          "indexed": true,
          "internalType": "uint256",
          "name": "tokenId",
          "type": "uint256"
        }
      ],
      "name": "Transfer",
      "type": "event"
    },
    {
      "inputs": [],
      "name": "MAX_PER_MINT",
      "outputs": [
        {
          "internalType": "uint256",
          "name": "",
          "type": "uint256"
        }
      ],
      "stateMutability": "view",
      "type": "function"
    },
    {
      "inputs": [],
      "name": "MAX_SUPPLY",
      "outputs": [
        {
          "internalType": "uint256",
          "name": "",
          "type": "uint256"
        }
      ],
      "stateMutability": "view",
      "type": "function"
    },
    {
      "inputs": [],
      "name": "PRI_PRICE",
      "outputs": [
        {
          "internalType": "uint256",
          "name": "",
          "type": "uint256"
        }
      ],
      "stateMutability": "view",
      "type": "function"
    },
    {
      "inputs": [],
      "name": "PUB_PRICE",
      "outputs": [
        {
          "internalType": "uint256",
          "name": "",
          "type": "uint256"
        }
      ],
      "stateMutability": "view",
      "type": "function"
    },
    {
      "inputs": [
        {
          "internalType": "address",
          "name": "to",
          "type": "address"
        },
        {
          "internalType": "uint256",
          "name": "tokenId",
          "type": "uint256"
        }
      ],
      "name": "approve",
      "outputs": [],
      "stateMutability": "nonpayable",
      "type": "function"
    },
    {
      "inputs": [
        {
          "internalType": "address",
          "name": "owner",
          "type": "address"
        }
      ],
      "name": "balanceOf",
      "outputs": [
        {
          "internalType": "uint256",
          "name": "",
          "type": "uint256"
        }
      ],
      "stateMutability": "view",
      "type": "function"
    },
    {
      "inputs": [],
      "name": "baseTokenURI",
      "outputs": [
        {
          "internalType": "string",
          "name": "",
          "type": "string"
        }
      ],
      "stateMutability": "view",
      "type": "function"
    },
    {
      "inputs": [
        {
          "internalType": "uint256",
          "name": "tokenId",
          "type": "uint256"
        }
      ],
      "name": "getApproved",
      "outputs": [
        {
          "internalType": "address",
          "name": "",
          "type": "address"
        }
      ],
      "stateMutability": "view",
      "type": "function"
    },
    {
      "inputs": [],
      "name": "getMyNFTs",
      "outputs": [
        {
          "internalType": "string[]",
          "name": "",
          "type": "string[]"
        }
      ],
      "stateMutability": "view",
      "type": "function"
    },
    {
      "inputs": [
        {
          "internalType": "address",
          "name": "owner",
          "type": "address"
        },
        {
          "internalType": "address",
          "name": "operator",
          "type": "address"
        }
      ],
      "name": "isApprovedForAll",
      "outputs": [
        {
          "internalType": "bool",
          "name": "",
          "type": "bool"
        }
      ],
      "stateMutability": "view",
      "type": "function"
    },
    {
      "inputs": [
        {
          "internalType": "uint256",
          "name": "_count",
          "type": "uint256"
        }
      ],
      "name": "mintPriNFTs",
      "outputs": [],
      "stateMutability": "payable",
      "type": "function"
    },
    {
      "inputs": [
        {
          "internalType": "uint256",
          "name": "_count",
          "type": "uint256"
        }
      ],
      "name": "mintPubNFTs",
      "outputs": [],
      "stateMutability": "payable",
      "type": "function"
    },
    {
      "inputs": [],
      "name": "name",
      "outputs": [
        {
          "internalType": "string",
          "name": "",
          "type": "string"
        }
      ],
      "stateMutability": "view",
      "type": "function"
    },
    {
      "inputs": [],
      "name": "owner",
      "outputs": [
        {
          "internalType": "address",
          "name": "",
          "type": "address"
        }
      ],
      "stateMutability": "view",
      "type": "function"
    },
    {
      "inputs": [
        {
          "internalType": "uint256",
          "name": "tokenId",
          "type": "uint256"
        }
      ],
      "name": "ownerOf",
      "outputs": [
        {
          "internalType": "address",
          "name": "",
          "type": "address"
        }
      ],
      "stateMutability": "view",
      "type": "function"
    },
    {
      "inputs": [],
      "name": "priPrice",
      "outputs": [
        {
          "internalType": "uint256",
          "name": "",
          "type": "uint256"
        }
      ],
      "stateMutability": "pure",
      "type": "function"
    },
    {
      "inputs": [],
      "name": "pubPrice",
      "outputs": [
        {
          "internalType": "uint256",
          "name": "",
          "type": "uint256"
        }
      ],
      "stateMutability": "pure",
      "type": "function"
    },
    {
      "inputs": [],
      "name": "renounceOwnership",
      "outputs": [],
      "stateMutability": "nonpayable",
      "type": "function"
    },
    {
      "inputs": [],
      "name": "reserveNFTs",
      "outputs": [],
      "stateMutability": "nonpayable",
      "type": "function"
    },
    {
      "inputs": [
        {
          "internalType": "address",
          "name": "to",
          "type": "address"
        },
        {
          "internalType": "uint256",
          "name": "tokenId",
          "type": "uint256"
        }
      ],
      "name": "safeTransfer",
      "outputs": [],
      "stateMutability": "nonpayable",
      "type": "function"
    },
    {
      "inputs": [
        {
          "internalType": "address",
          "name": "from",
          "type": "address"
        },
        {
          "internalType": "address",
          "name": "to",
          "type": "address"
        },
        {
          "internalType": "uint256",
          "name": "tokenId",
          "type": "uint256"
        }
      ],
      "name": "safeTransferFrom",
      "outputs": [],
      "stateMutability": "nonpayable",
      "type": "function"
    },
    {
      "inputs": [
        {
          "internalType": "address",
          "name": "from",
          "type": "address"
        },
        {
          "internalType": "address",
          "name": "to",
          "type": "address"
        },
        {
          "internalType": "uint256",
          "name": "tokenId",
          "type": "uint256"
        },
        {
          "internalType": "bytes",
          "name": "_data",
          "type": "bytes"
        }
      ],
      "name": "safeTransferFrom",
      "outputs": [],
      "stateMutability": "nonpayable",
      "type": "function"
    },
    {
      "inputs": [
        {
          "internalType": "address",
          "name": "operator",
          "type": "address"
        },
        {
          "internalType": "bool",
          "name": "approved",
          "type": "bool"
        }
      ],
      "name": "setApprovalForAll",
      "outputs": [],
      "stateMutability": "nonpayable",
      "type": "function"
    },
    {
      "inputs": [
        {
          "internalType": "string",
          "name": "_baseTokenURI",
          "type": "string"
        }
      ],
      "name": "setBaseURI",
      "outputs": [],
      "stateMutability": "nonpayable",
      "type": "function"
    },
    {
      "inputs": [
        {
          "internalType": "bytes4",
          "name": "interfaceId",
          "type": "bytes4"
        }
      ],
      "name": "supportsInterface",
      "outputs": [
        {
          "internalType": "bool",
          "name": "",
          "type": "bool"
        }
      ],
      "stateMutability": "view",
      "type": "function"
    },
    {
      "inputs": [],
      "name": "symbol",
      "outputs": [
        {
          "internalType": "string",
          "name": "",
          "type": "string"
        }
      ],
      "stateMutability": "view",
      "type": "function"
    },
    {
      "inputs": [
        {
          "internalType": "uint256",
          "name": "index",
          "type": "uint256"
        }
      ],
      "name": "tokenByIndex",
      "outputs": [
        {
          "internalType": "uint256",
          "name": "",
          "type": "uint256"
        }
      ],
      "stateMutability": "view",
      "type": "function"
    },
    {
      "inputs": [
        {
          "internalType": "address",
          "name": "owner",
          "type": "address"
        },
        {
          "internalType": "uint256",
          "name": "index",
          "type": "uint256"
        }
      ],
      "name": "tokenOfOwnerByIndex",
      "outputs": [
        {
          "internalType": "uint256",
          "name": "",
          "type": "uint256"
        }
      ],
      "stateMutability": "view",
      "type": "function"
    },
    {
      "inputs": [
        {
          "internalType": "uint256",
          "name": "tokenId",
          "type": "uint256"
        }
      ],
      "name": "tokenURI",
      "outputs": [
        {
          "internalType": "string",
          "name": "",
          "type": "string"
        }
      ],
      "stateMutability": "view",
      "type": "function"
    },
    {
      "inputs": [],
      "name": "totalSupply",
      "outputs": [
        {
          "internalType": "uint256",
          "name": "",
          "type": "uint256"
        }
      ],
      "stateMutability": "view",
      "type": "function"
    },
    {
      "inputs": [
        {
          "internalType": "address",
          "name": "from",
          "type": "address"
        },
        {
          "internalType": "address",
          "name": "to",
          "type": "address"
        },
        {
          "internalType": "uint256",
          "name": "tokenId",
          "type": "uint256"
        }
      ],
      "name": "transferFrom",
      "outputs": [],
      "stateMutability": "nonpayable",
      "type": "function"
    },
    {
      "inputs": [
        {
          "internalType": "address",
          "name": "newOwner",
          "type": "address"
        }
      ],
      "name": "transferOwnership",
      "outputs": [],
      "stateMutability": "nonpayable",
      "type": "function"
    }
  ],
  "bytecode": "0x60806040523480156200001157600080fd5b5060405162004be438038062004be48339818101604052810190620000379190620003f5565b6040518060400160405280601181526020017f416c69656e73204f6e20546865204176650000000000000000000000000000008152506040518060400160405280600481526020017f414f5441000000000000000000000000000000000000000000000000000000008152508160009080519060200190620000bb929190620002d3565b508060019080519060200190620000d4929190620002d3565b505050620000f7620000eb6200013060201b60201c565b6200013860201b60201c565b6200010882620001fe60201b60201c565b80600c908051906020019062000120929190620002d3565b5042600d8190555050506200065b565b600033905090565b6000600a60009054906101000a900473ffffffffffffffffffffffffffffffffffffffff16905081600a60006101000a81548173ffffffffffffffffffffffffffffffffffffffff021916908373ffffffffffffffffffffffffffffffffffffffff1602179055508173ffffffffffffffffffffffffffffffffffffffff168173ffffffffffffffffffffffffffffffffffffffff167f8be0079c531659141344cd1fd0a4f28419497f9722a3daafe3b4186f6b6457e060405160405180910390a35050565b6200020e6200013060201b60201c565b73ffffffffffffffffffffffffffffffffffffffff1662000234620002a960201b60201c565b73ffffffffffffffffffffffffffffffffffffffff16146200028d576040517f08c379a000000000000000000000000000000000000000000000000000000000815260040162000284906200048f565b60405180910390fd5b80600e9080519060200190620002a5929190620002d3565b5050565b6000600a60009054906101000a900473ffffffffffffffffffffffffffffffffffffffff16905090565b828054620002e19062000557565b90600052602060002090601f01602090048101928262000305576000855562000351565b82601f106200032057805160ff191683800117855562000351565b8280016001018555821562000351579182015b828111156200035057825182559160200191906001019062000333565b5b50905062000360919062000364565b5090565b5b808211156200037f57600081600090555060010162000365565b5090565b60006200039a6200039484620004da565b620004b1565b905082815260208101848484011115620003b357600080fd5b620003c084828562000521565b509392505050565b600082601f830112620003da57600080fd5b8151620003ec84826020860162000383565b91505092915050565b600080604083850312156200040957600080fd5b600083015167ffffffffffffffff8111156200042457600080fd5b6200043285828601620003c8565b925050602083015167ffffffffffffffff8111156200045057600080fd5b6200045e85828601620003c8565b9150509250929050565b60006200047760208362000510565b9150620004848262000632565b602082019050919050565b60006020820190508181036000830152620004aa8162000468565b9050919050565b6000620004bd620004d0565b9050620004cb82826200058d565b919050565b6000604051905090565b600067ffffffffffffffff821115620004f857620004f7620005f2565b5b620005038262000621565b9050602081019050919050565b600082825260208201905092915050565b60005b838110156200054157808201518184015260208101905062000524565b8381111562000551576000848401525b50505050565b600060028204905060018216806200057057607f821691505b60208210811415620005875762000586620005c3565b5b50919050565b620005988262000621565b810181811067ffffffffffffffff82111715620005ba57620005b9620005f2565b5b80604052505050565b7f4e487b7100000000000000000000000000000000000000000000000000000000600052602260045260246000fd5b7f4e487b7100000000000000000000000000000000000000000000000000000000600052604160045260246000fd5b6000601f19601f8301169050919050565b7f4f776e61626c653a2063616c6c6572206973206e6f7420746865206f776e6572600082015250565b614579806200066b6000396000f3fe6080604052600436106101e35760003560e01c8063634ccdfe11610102578063b7cca2d411610095578063d547cfb711610064578063d547cfb7146106d5578063e985e9c514610700578063eba1ce981461073d578063f2fde38b14610759576101e3565b8063b7cca2d414610619578063b88d4fde14610644578063bddb7be71461066d578063c87b56dd14610698576101e3565b80638da5cb5b116100d15780638da5cb5b1461056f57806395d89b411461059a578063a22cb465146105c5578063b472070f146105ee576101e3565b8063634ccdfe146104c25780636352211e146104de57806370a082311461051b578063715018a614610558576101e3565b806323b872dd1161017a57806342842e0e1161014957806342842e0e146104085780634f6ccce71461043157806355f804b31461046e578063629cb2e414610497576101e3565b806323b872dd1461034e5780632f745c591461037757806332cb6b0c146103b4578063423f6cef146103df576101e3565b806309d42b30116101b657806309d42b30146102b6578063144100c7146102e157806318160ddd146102f85780631e5f5dc014610323576101e3565b806301ffc9a7146101e857806306fdde0314610225578063081812fc14610250578063095ea7b31461028d575b600080fd5b3480156101f457600080fd5b5061020f600480360381019061020a91906130d1565b610782565b60405161021c91906136f1565b60405180910390f35b34801561023157600080fd5b5061023a6107fc565b604051610247919061370c565b60405180910390f35b34801561025c57600080fd5b5061027760048036038101906102729190613164565b61088e565b6040516102849190613668565b60405180910390f35b34801561029957600080fd5b506102b460048036038101906102af9190613095565b610913565b005b3480156102c257600080fd5b506102cb610a2b565b6040516102d89190613a0e565b60405180910390f35b3480156102ed57600080fd5b506102f6610a30565b005b34801561030457600080fd5b5061030d610b3c565b60405161031a9190613a0e565b60405180910390f35b34801561032f57600080fd5b50610338610b49565b6040516103459190613a0e565b60405180910390f35b34801561035a57600080fd5b5061037560048036038101906103709190612f8f565b610b54565b005b34801561038357600080fd5b5061039e60048036038101906103999190613095565b610bb4565b6040516103ab9190613a0e565b60405180910390f35b3480156103c057600080fd5b506103c9610c59565b6040516103d69190613a0e565b60405180910390f35b3480156103eb57600080fd5b5061040660048036038101906104019190613095565b610c5f565b005b34801561041457600080fd5b5061042f600480360381019061042a9190612f8f565b610cce565b005b34801561043d57600080fd5b5061045860048036038101906104539190613164565b610cee565b6040516104659190613a0e565b60405180910390f35b34801561047a57600080fd5b5061049560048036038101906104909190613123565b610d85565b005b3480156104a357600080fd5b506104ac610e1b565b6040516104b991906136cf565b60405180910390f35b6104dc60048036038101906104d79190613164565b610fd8565b005b3480156104ea57600080fd5b5061050560048036038101906105009190613164565b611163565b6040516105129190613668565b60405180910390f35b34801561052757600080fd5b50610542600480360381019061053d9190612f2a565b611215565b60405161054f9190613a0e565b60405180910390f35b34801561056457600080fd5b5061056d6112cd565b005b34801561057b57600080fd5b50610584611355565b6040516105919190613668565b60405180910390f35b3480156105a657600080fd5b506105af61137f565b6040516105bc919061370c565b60405180910390f35b3480156105d157600080fd5b506105ec60048036038101906105e79190613059565b611411565b005b3480156105fa57600080fd5b50610603611427565b6040516106109190613a0e565b60405180910390f35b34801561062557600080fd5b5061062e611433565b60405161063b9190613a0e565b60405180910390f35b34801561065057600080fd5b5061066b60048036038101906106669190612fde565b611442565b005b34801561067957600080fd5b506106826114a4565b60405161068f9190613a0e565b60405180910390f35b3480156106a457600080fd5b506106bf60048036038101906106ba9190613164565b6114b4565b6040516106cc919061370c565b60405180910390f35b3480156106e157600080fd5b506106ea61155b565b6040516106f7919061370c565b60405180910390f35b34801561070c57600080fd5b5061072760048036038101906107229190612f53565b6115e9565b60405161073491906136f1565b60405180910390f35b61075760048036038101906107529190613164565b61167d565b005b34801561076557600080fd5b50610780600480360381019061077b9190612f2a565b611807565b005b60007f780e9d63000000000000000000000000000000000000000000000000000000007bffffffffffffffffffffffffffffffffffffffffffffffffffffffff1916827bffffffffffffffffffffffffffffffffffffffffffffffffffffffff191614806107f557506107f4826118ff565b5b9050919050565b60606000805461080b90613d08565b80601f016020809104026020016040519081016040528092919081815260200182805461083790613d08565b80156108845780601f1061085957610100808354040283529160200191610884565b820191906000526020600020905b81548152906001019060200180831161086757829003601f168201915b5050505050905090565b6000610899826119e1565b6108d8576040517f08c379a00000000000000000000000000000000000000000000000000000000081526004016108cf9061394e565b60405180910390fd5b6004600083815260200190815260200160002060009054906101000a900473ffffffffffffffffffffffffffffffffffffffff169050919050565b600061091e82611163565b90508073ffffffffffffffffffffffffffffffffffffffff168373ffffffffffffffffffffffffffffffffffffffff16141561098f576040517f08c379a0000000000000000000000000000000000000000000000000000000008152600401610986906139ae565b60405180910390fd5b8073ffffffffffffffffffffffffffffffffffffffff166109ae611a4d565b73ffffffffffffffffffffffffffffffffffffffff1614806109dd57506109dc816109d7611a4d565b6115e9565b5b610a1c576040517f08c379a0000000000000000000000000000000000000000000000000000000008152600401610a13906138ae565b60405180910390fd5b610a268383611a55565b505050565b609281565b610a38611a4d565b73ffffffffffffffffffffffffffffffffffffffff16610a56611355565b73ffffffffffffffffffffffffffffffffffffffff1614610aac576040517f08c379a0000000000000000000000000000000000000000000000000000000008152600401610aa39061396e565b60405180910390fd5b6000610ab8600b611b0e565b9050611bea610ad1609283611b1c90919063ffffffff16565b10610b11576040517f08c379a0000000000000000000000000000000000000000000000000000000008152600401610b089061372e565b60405180910390fd5b60005b6092811015610b3857610b25611b32565b8080610b3090613d6b565b915050610b14565b5050565b6000600880549050905090565b66f8b0a10e47000081565b610b65610b5f611a4d565b82611b57565b610ba4576040517f08c379a0000000000000000000000000000000000000000000000000000000008152600401610b9b906139ce565b60405180910390fd5b610baf838383611c35565b505050565b6000610bbf83611215565b8210610c00576040517f08c379a0000000000000000000000000000000000000000000000000000000008152600401610bf79061374e565b60405180910390fd5b600660008473ffffffffffffffffffffffffffffffffffffffff1673ffffffffffffffffffffffffffffffffffffffff168152602001908152602001600020600083815260200190815260200160002054905092915050565b611bea81565b610c70610c6a611a4d565b82611b57565b610caf576040517f08c379a0000000000000000000000000000000000000000000000000000000008152600401610ca6906138ce565b60405180910390fd5b610cca33838360405180602001604052806000815250611e9c565b5050565b610ce983838360405180602001604052806000815250611442565b505050565b6000610cf8610b3c565b8210610d39576040517f08c379a0000000000000000000000000000000000000000000000000000000008152600401610d30906139ee565b60405180910390fd5b60088281548110610d73577f4e487b7100000000000000000000000000000000000000000000000000000000600052603260045260246000fd5b90600052602060002001549050919050565b610d8d611a4d565b73ffffffffffffffffffffffffffffffffffffffff16610dab611355565b73ffffffffffffffffffffffffffffffffffffffff1614610e01576040517f08c379a0000000000000000000000000000000000000000000000000000000008152600401610df89061396e565b60405180910390fd5b80600e9080519060200190610e17929190612d4e565b5050565b60606000806000905060005b610e31600b611b0e565b811015610e96573373ffffffffffffffffffffffffffffffffffffffff16610e5882611163565b73ffffffffffffffffffffffffffffffffffffffff161415610e83578280610e7f90613d6b565b9350505b8080610e8e90613d6b565b915050610e27565b5060008267ffffffffffffffff811115610ed9577f4e487b7100000000000000000000000000000000000000000000000000000000600052604160045260246000fd5b604051908082528060200260200182016040528015610f0c57816020015b6060815260200190600190039081610ef75790505b50905060005b610f1c600b611b0e565b811015610fce573373ffffffffffffffffffffffffffffffffffffffff16610f4382611163565b73ffffffffffffffffffffffffffffffffffffffff161415610fbb57610f68816114b4565b828481518110610fa1577f4e487b7100000000000000000000000000000000000000000000000000000000600052603260045260246000fd5b60200260200101819052508280610fb790613d6b565b9350505b8080610fc690613d6b565b915050610f12565b5080935050505090565b6000610fe4600b611b0e565b9050611bea610ffc8383611b1c90919063ffffffff16565b111561103d576040517f08c379a00000000000000000000000000000000000000000000000000000000081526004016110349061384e565b60405180910390fd5b60008211801561104e575060928211155b61108d576040517f08c379a00000000000000000000000000000000000000000000000000000000081526004016110849061386e565b60405180910390fd5b6110a88267013fbe85edc90000611ef890919063ffffffff16565b3410156110ea576040517f08c379a00000000000000000000000000000000000000000000000000000000081526004016110e19061382e565b60405180910390fd5b6110f2611355565b73ffffffffffffffffffffffffffffffffffffffff166108fc349081150290604051600060405180830381858888f19350505050158015611137573d6000803e3d6000fd5b5060005b8281101561115e5761114b611b32565b808061115690613d6b565b91505061113b565b505050565b6000806002600084815260200190815260200160002060009054906101000a900473ffffffffffffffffffffffffffffffffffffffff169050600073ffffffffffffffffffffffffffffffffffffffff168173ffffffffffffffffffffffffffffffffffffffff16141561120c576040517f08c379a00000000000000000000000000000000000000000000000000000000081526004016112039061390e565b60405180910390fd5b80915050919050565b60008073ffffffffffffffffffffffffffffffffffffffff168273ffffffffffffffffffffffffffffffffffffffff161415611286576040517f08c379a000000000000000000000000000000000000000000000000000000000815260040161127d906138ee565b60405180910390fd5b600360008373ffffffffffffffffffffffffffffffffffffffff1673ffffffffffffffffffffffffffffffffffffffff168152602001908152602001600020549050919050565b6112d5611a4d565b73ffffffffffffffffffffffffffffffffffffffff166112f3611355565b73ffffffffffffffffffffffffffffffffffffffff1614611349576040517f08c379a00000000000000000000000000000000000000000000000000000000081526004016113409061396e565b60405180910390fd5b6113536000611f0e565b565b6000600a60009054906101000a900473ffffffffffffffffffffffffffffffffffffffff16905090565b60606001805461138e90613d08565b80601f01602080910402602001604051908101604052809291908181526020018280546113ba90613d08565b80156114075780601f106113dc57610100808354040283529160200191611407565b820191906000526020600020905b8154815290600101906020018083116113ea57829003601f168201915b5050505050905090565b61142361141c611a4d565b8383611fd4565b5050565b67013fbe85edc9000081565b600066f8b0a10e470000905090565b61145361144d611a4d565b83611b57565b611492576040517f08c379a0000000000000000000000000000000000000000000000000000000008152600401611489906139ce565b60405180910390fd5b61149e84848484611e9c565b50505050565b600067013fbe85edc90000905090565b60606114bf826119e1565b6114fe576040517f08c379a00000000000000000000000000000000000000000000000000000000081526004016114f59061398e565b60405180910390fd5b6000611508612141565b905060008151116115285760405180602001604052806000815250611553565b806115328461227e565b604051602001611543929190613644565b6040516020818303038152906040525b915050919050565b600e805461156890613d08565b80601f016020809104026020016040519081016040528092919081815260200182805461159490613d08565b80156115e15780601f106115b6576101008083540402835291602001916115e1565b820191906000526020600020905b8154815290600101906020018083116115c457829003601f168201915b505050505081565b6000600560008473ffffffffffffffffffffffffffffffffffffffff1673ffffffffffffffffffffffffffffffffffffffff16815260200190815260200160002060008373ffffffffffffffffffffffffffffffffffffffff1673ffffffffffffffffffffffffffffffffffffffff16815260200190815260200160002060009054906101000a900460ff16905092915050565b6000611689600b611b0e565b9050611bea6116a18383611b1c90919063ffffffff16565b11156116e2576040517f08c379a00000000000000000000000000000000000000000000000000000000081526004016116d99061384e565b60405180910390fd5b6000821180156116f3575060928211155b611732576040517f08c379a00000000000000000000000000000000000000000000000000000000081526004016117299061386e565b60405180910390fd5b61174c8266f8b0a10e470000611ef890919063ffffffff16565b34101561178e576040517f08c379a00000000000000000000000000000000000000000000000000000000081526004016117859061382e565b60405180910390fd5b611796611355565b73ffffffffffffffffffffffffffffffffffffffff166108fc349081150290604051600060405180830381858888f193505050501580156117db573d6000803e3d6000fd5b5060005b82811015611802576117ef611b32565b80806117fa90613d6b565b9150506117df565b505050565b61180f611a4d565b73ffffffffffffffffffffffffffffffffffffffff1661182d611355565b73ffffffffffffffffffffffffffffffffffffffff1614611883576040517f08c379a000000000000000000000000000000000000000000000000000000000815260040161187a9061396e565b60405180910390fd5b600073ffffffffffffffffffffffffffffffffffffffff168173ffffffffffffffffffffffffffffffffffffffff1614156118f3576040517f08c379a00000000000000000000000000000000000000000000000000000000081526004016118ea9061378e565b60405180910390fd5b6118fc81611f0e565b50565b60007f80ac58cd000000000000000000000000000000000000000000000000000000007bffffffffffffffffffffffffffffffffffffffffffffffffffffffff1916827bffffffffffffffffffffffffffffffffffffffffffffffffffffffff191614806119ca57507f5b5e139f000000000000000000000000000000000000000000000000000000007bffffffffffffffffffffffffffffffffffffffffffffffffffffffff1916827bffffffffffffffffffffffffffffffffffffffffffffffffffffffff1916145b806119da57506119d98261242b565b5b9050919050565b60008073ffffffffffffffffffffffffffffffffffffffff166002600084815260200190815260200160002060009054906101000a900473ffffffffffffffffffffffffffffffffffffffff1673ffffffffffffffffffffffffffffffffffffffff1614159050919050565b600033905090565b816004600083815260200190815260200160002060006101000a81548173ffffffffffffffffffffffffffffffffffffffff021916908373ffffffffffffffffffffffffffffffffffffffff160217905550808273ffffffffffffffffffffffffffffffffffffffff16611ac883611163565b73ffffffffffffffffffffffffffffffffffffffff167f8c5be1e5ebec7d5bd14f71427d1e84f3dd0314c0f7b2291e5b200ac8c7c3b92560405160405180910390a45050565b600081600001549050919050565b60008183611b2a9190613b3d565b905092915050565b6000611b3e600b611b0e565b9050611b4a3382612495565b611b54600b6124b3565b50565b6000611b62826119e1565b611ba1576040517f08c379a0000000000000000000000000000000000000000000000000000000008152600401611b989061388e565b60405180910390fd5b6000611bac83611163565b90508073ffffffffffffffffffffffffffffffffffffffff168473ffffffffffffffffffffffffffffffffffffffff161480611bee5750611bed81856115e9565b5b80611c2c57508373ffffffffffffffffffffffffffffffffffffffff16611c148461088e565b73ffffffffffffffffffffffffffffffffffffffff16145b91505092915050565b8273ffffffffffffffffffffffffffffffffffffffff16611c5582611163565b73ffffffffffffffffffffffffffffffffffffffff1614611cab576040517f08c379a0000000000000000000000000000000000000000000000000000000008152600401611ca2906137ae565b60405180910390fd5b600073ffffffffffffffffffffffffffffffffffffffff168273ffffffffffffffffffffffffffffffffffffffff161415611d1b576040517f08c379a0000000000000000000000000000000000000000000000000000000008152600401611d12906137ee565b60405180910390fd5b611d268383836124c9565b611d31600082611a55565b6001600360008573ffffffffffffffffffffffffffffffffffffffff1673ffffffffffffffffffffffffffffffffffffffff1681526020019081526020016000206000828254611d819190613c1e565b925050819055506001600360008473ffffffffffffffffffffffffffffffffffffffff1673ffffffffffffffffffffffffffffffffffffffff1681526020019081526020016000206000828254611dd89190613b3d565b92505081905550816002600083815260200190815260200160002060006101000a81548173ffffffffffffffffffffffffffffffffffffffff021916908373ffffffffffffffffffffffffffffffffffffffff160217905550808273ffffffffffffffffffffffffffffffffffffffff168473ffffffffffffffffffffffffffffffffffffffff167fddf252ad1be2c89b69c2b068fc378daa952ba7f163c4a11628f55a4df523b3ef60405160405180910390a4611e978383836125dd565b505050565b611ea7848484611c35565b611eb3848484846125e2565b611ef2576040517f08c379a0000000000000000000000000000000000000000000000000000000008152600401611ee99061376e565b60405180910390fd5b50505050565b60008183611f069190613bc4565b905092915050565b6000600a60009054906101000a900473ffffffffffffffffffffffffffffffffffffffff16905081600a60006101000a81548173ffffffffffffffffffffffffffffffffffffffff021916908373ffffffffffffffffffffffffffffffffffffffff1602179055508173ffffffffffffffffffffffffffffffffffffffff168173ffffffffffffffffffffffffffffffffffffffff167f8be0079c531659141344cd1fd0a4f28419497f9722a3daafe3b4186f6b6457e060405160405180910390a35050565b8173ffffffffffffffffffffffffffffffffffffffff168373ffffffffffffffffffffffffffffffffffffffff161415612043576040517f08c379a000000000000000000000000000000000000000000000000000000000815260040161203a9061380e565b60405180910390fd5b80600560008573ffffffffffffffffffffffffffffffffffffffff1673ffffffffffffffffffffffffffffffffffffffff16815260200190815260200160002060008473ffffffffffffffffffffffffffffffffffffffff1673ffffffffffffffffffffffffffffffffffffffff16815260200190815260200160002060006101000a81548160ff0219169083151502179055508173ffffffffffffffffffffffffffffffffffffffff168373ffffffffffffffffffffffffffffffffffffffff167f17307eab39ab6107e8899845ad3d59bd9653f200f220920489ca2b5937696c318360405161213491906136f1565b60405180910390a3505050565b606062127500600d546121549190613b3d565b4211156121ed57600e805461216890613d08565b80601f016020809104026020016040519081016040528092919081815260200182805461219490613d08565b80156121e15780601f106121b6576101008083540402835291602001916121e1565b820191906000526020600020905b8154815290600101906020018083116121c457829003601f168201915b5050505050905061227b565b600c80546121fa90613d08565b80601f016020809104026020016040519081016040528092919081815260200182805461222690613d08565b80156122735780601f1061224857610100808354040283529160200191612273565b820191906000526020600020905b81548152906001019060200180831161225657829003601f168201915b505050505090505b90565b606060008214156122c6576040518060400160405280600181526020017f30000000000000000000000000000000000000000000000000000000000000008152509050612426565b600082905060005b600082146122f85780806122e190613d6b565b915050600a826122f19190613b93565b91506122ce565b60008167ffffffffffffffff81111561233a577f4e487b7100000000000000000000000000000000000000000000000000000000600052604160045260246000fd5b6040519080825280601f01601f19166020018201604052801561236c5781602001600182028036833780820191505090505b5090505b6000851461241f576001826123859190613c1e565b9150600a856123949190613db4565b60306123a09190613b3d565b60f81b8183815181106123dc577f4e487b7100000000000000000000000000000000000000000000000000000000600052603260045260246000fd5b60200101907effffffffffffffffffffffffffffffffffffffffffffffffffffffffffffff1916908160001a905350600a856124189190613b93565b9450612370565b8093505050505b919050565b60007f01ffc9a7000000000000000000000000000000000000000000000000000000007bffffffffffffffffffffffffffffffffffffffffffffffffffffffff1916827bffffffffffffffffffffffffffffffffffffffffffffffffffffffff1916149050919050565b6124af828260405180602001604052806000815250612779565b5050565b6001816000016000828254019250508190555050565b6124d48383836127d4565b600073ffffffffffffffffffffffffffffffffffffffff168373ffffffffffffffffffffffffffffffffffffffff16141561251757612512816127d9565b612556565b8173ffffffffffffffffffffffffffffffffffffffff168373ffffffffffffffffffffffffffffffffffffffff1614612555576125548382612822565b5b5b600073ffffffffffffffffffffffffffffffffffffffff168273ffffffffffffffffffffffffffffffffffffffff161415612599576125948161298f565b6125d8565b8273ffffffffffffffffffffffffffffffffffffffff168273ffffffffffffffffffffffffffffffffffffffff16146125d7576125d68282612ad2565b5b5b505050565b505050565b60006126038473ffffffffffffffffffffffffffffffffffffffff16612b51565b1561276c578373ffffffffffffffffffffffffffffffffffffffff1663150b7a0261262c611a4d565b8786866040518563ffffffff1660e01b815260040161264e9493929190613683565b602060405180830381600087803b15801561266857600080fd5b505af192505050801561269957506040513d601f19601f8201168201806040525081019061269691906130fa565b60015b61271c573d80600081146126c9576040519150601f19603f3d011682016040523d82523d6000602084013e6126ce565b606091505b50600081511415612714576040517f08c379a000000000000000000000000000000000000000000000000000000000815260040161270b9061376e565b60405180910390fd5b805181602001fd5b63150b7a0260e01b7bffffffffffffffffffffffffffffffffffffffffffffffffffffffff1916817bffffffffffffffffffffffffffffffffffffffffffffffffffffffff191614915050612771565b600190505b949350505050565b6127838383612b74565b61279060008484846125e2565b6127cf576040517f08c379a00000000000000000000000000000000000000000000000000000000081526004016127c69061376e565b60405180910390fd5b505050565b505050565b6008805490506009600083815260200190815260200160002081905550600881908060018154018082558091505060019003906000526020600020016000909190919091505550565b6000600161282f84611215565b6128399190613c1e565b905060006007600084815260200190815260200160002054905081811461291e576000600660008673ffffffffffffffffffffffffffffffffffffffff1673ffffffffffffffffffffffffffffffffffffffff168152602001908152602001600020600084815260200190815260200160002054905080600660008773ffffffffffffffffffffffffffffffffffffffff1673ffffffffffffffffffffffffffffffffffffffff168152602001908152602001600020600084815260200190815260200160002081905550816007600083815260200190815260200160002081905550505b6007600084815260200190815260200160002060009055600660008573ffffffffffffffffffffffffffffffffffffffff1673ffffffffffffffffffffffffffffffffffffffff16815260200190815260200160002060008381526020019081526020016000206000905550505050565b600060016008805490506129a39190613c1e565b90506000600960008481526020019081526020016000205490506000600883815481106129f9577f4e487b7100000000000000000000000000000000000000000000000000000000600052603260045260246000fd5b906000526020600020015490508060088381548110612a41577f4e487b7100000000000000000000000000000000000000000000000000000000600052603260045260246000fd5b906000526020600020018190555081600960008381526020019081526020016000208190555060096000858152602001908152602001600020600090556008805480612ab6577f4e487b7100000000000000000000000000000000000000000000000000000000600052603160045260246000fd5b6001900381819060005260206000200160009055905550505050565b6000612add83611215565b905081600660008573ffffffffffffffffffffffffffffffffffffffff1673ffffffffffffffffffffffffffffffffffffffff168152602001908152602001600020600083815260200190815260200160002081905550806007600084815260200190815260200160002081905550505050565b6000808273ffffffffffffffffffffffffffffffffffffffff163b119050919050565b600073ffffffffffffffffffffffffffffffffffffffff168273ffffffffffffffffffffffffffffffffffffffff161415612be4576040517f08c379a0000000000000000000000000000000000000000000000000000000008152600401612bdb9061392e565b60405180910390fd5b612bed816119e1565b15612c2d576040517f08c379a0000000000000000000000000000000000000000000000000000000008152600401612c24906137ce565b60405180910390fd5b612c39600083836124c9565b6001600360008473ffffffffffffffffffffffffffffffffffffffff1673ffffffffffffffffffffffffffffffffffffffff1681526020019081526020016000206000828254612c899190613b3d565b92505081905550816002600083815260200190815260200160002060006101000a81548173ffffffffffffffffffffffffffffffffffffffff021916908373ffffffffffffffffffffffffffffffffffffffff160217905550808273ffffffffffffffffffffffffffffffffffffffff16600073ffffffffffffffffffffffffffffffffffffffff167fddf252ad1be2c89b69c2b068fc378daa952ba7f163c4a11628f55a4df523b3ef60405160405180910390a4612d4a600083836125dd565b5050565b828054612d5a90613d08565b90600052602060002090601f016020900481019282612d7c5760008555612dc3565b82601f10612d9557805160ff1916838001178555612dc3565b82800160010185558215612dc3579182015b82811115612dc2578251825591602001919060010190612da7565b5b509050612dd09190612dd4565b5090565b5b80821115612ded576000816000905550600101612dd5565b5090565b6000612e04612dff84613a4e565b613a29565b905082815260208101848484011115612e1c57600080fd5b612e27848285613cc6565b509392505050565b6000612e42612e3d84613a7f565b613a29565b905082815260208101848484011115612e5a57600080fd5b612e65848285613cc6565b509392505050565b600081359050612e7c816144e7565b92915050565b600081359050612e91816144fe565b92915050565b600081359050612ea681614515565b92915050565b600081519050612ebb81614515565b92915050565b600082601f830112612ed257600080fd5b8135612ee2848260208601612df1565b91505092915050565b600082601f830112612efc57600080fd5b8135612f0c848260208601612e2f565b91505092915050565b600081359050612f248161452c565b92915050565b600060208284031215612f3c57600080fd5b6000612f4a84828501612e6d565b91505092915050565b60008060408385031215612f6657600080fd5b6000612f7485828601612e6d565b9250506020612f8585828601612e6d565b9150509250929050565b600080600060608486031215612fa457600080fd5b6000612fb286828701612e6d565b9350506020612fc386828701612e6d565b9250506040612fd486828701612f15565b9150509250925092565b60008060008060808587031215612ff457600080fd5b600061300287828801612e6d565b945050602061301387828801612e6d565b935050604061302487828801612f15565b925050606085013567ffffffffffffffff81111561304157600080fd5b61304d87828801612ec1565b91505092959194509250565b6000806040838503121561306c57600080fd5b600061307a85828601612e6d565b925050602061308b85828601612e82565b9150509250929050565b600080604083850312156130a857600080fd5b60006130b685828601612e6d565b92505060206130c785828601612f15565b9150509250929050565b6000602082840312156130e357600080fd5b60006130f184828501612e97565b91505092915050565b60006020828403121561310c57600080fd5b600061311a84828501612eac565b91505092915050565b60006020828403121561313557600080fd5b600082013567ffffffffffffffff81111561314f57600080fd5b61315b84828501612eeb565b91505092915050565b60006020828403121561317657600080fd5b600061318484828501612f15565b91505092915050565b6000613199838361326d565b905092915050565b6131aa81613c52565b82525050565b60006131bb82613ac0565b6131c58185613aee565b9350836020820285016131d785613ab0565b8060005b8581101561321357848403895281516131f4858261318d565b94506131ff83613ae1565b925060208a019950506001810190506131db565b50829750879550505050505092915050565b61322e81613c64565b82525050565b600061323f82613acb565b6132498185613aff565b9350613259818560208601613cd5565b61326281613ea1565b840191505092915050565b600061327882613ad6565b6132828185613b10565b9350613292818560208601613cd5565b61329b81613ea1565b840191505092915050565b60006132b182613ad6565b6132bb8185613b21565b93506132cb818560208601613cd5565b6132d481613ea1565b840191505092915050565b60006132ea82613ad6565b6132f48185613b32565b9350613304818560208601613cd5565b80840191505092915050565b600061331d601f83613b21565b915061332882613eb2565b602082019050919050565b6000613340602b83613b21565b915061334b82613edb565b604082019050919050565b6000613363603283613b21565b915061336e82613f2a565b604082019050919050565b6000613386602683613b21565b915061339182613f79565b604082019050919050565b60006133a9602583613b21565b91506133b482613fc8565b604082019050919050565b60006133cc601c83613b21565b91506133d782614017565b602082019050919050565b60006133ef602483613b21565b91506133fa82614040565b604082019050919050565b6000613412601983613b21565b915061341d8261408f565b602082019050919050565b6000613435602283613b21565b9150613440826140b8565b604082019050919050565b6000613458601583613b21565b915061346382614107565b602082019050919050565b600061347b602583613b21565b915061348682614130565b604082019050919050565b600061349e602c83613b21565b91506134a98261417f565b604082019050919050565b60006134c1603883613b21565b91506134cc826141ce565b604082019050919050565b60006134e4603083613b21565b91506134ef8261421d565b604082019050919050565b6000613507602a83613b21565b91506135128261426c565b604082019050919050565b600061352a602983613b21565b9150613535826142bb565b604082019050919050565b600061354d602083613b21565b91506135588261430a565b602082019050919050565b6000613570602c83613b21565b915061357b82614333565b604082019050919050565b6000613593602083613b21565b915061359e82614382565b602082019050919050565b60006135b6602f83613b21565b91506135c1826143ab565b604082019050919050565b60006135d9602183613b21565b91506135e4826143fa565b604082019050919050565b60006135fc603183613b21565b915061360782614449565b604082019050919050565b600061361f602c83613b21565b915061362a82614498565b604082019050919050565b61363e81613cbc565b82525050565b600061365082856132df565b915061365c82846132df565b91508190509392505050565b600060208201905061367d60008301846131a1565b92915050565b600060808201905061369860008301876131a1565b6136a560208301866131a1565b6136b26040830185613635565b81810360608301526136c48184613234565b905095945050505050565b600060208201905081810360008301526136e981846131b0565b905092915050565b60006020820190506137066000830184613225565b92915050565b6000602082019050818103600083015261372681846132a6565b905092915050565b6000602082019050818103600083015261374781613310565b9050919050565b6000602082019050818103600083015261376781613333565b9050919050565b6000602082019050818103600083015261378781613356565b9050919050565b600060208201905081810360008301526137a781613379565b9050919050565b600060208201905081810360008301526137c78161339c565b9050919050565b600060208201905081810360008301526137e7816133bf565b9050919050565b60006020820190508181036000830152613807816133e2565b9050919050565b6000602082019050818103600083015261382781613405565b9050919050565b6000602082019050818103600083015261384781613428565b9050919050565b600060208201905081810360008301526138678161344b565b9050919050565b600060208201905081810360008301526138878161346e565b9050919050565b600060208201905081810360008301526138a781613491565b9050919050565b600060208201905081810360008301526138c7816134b4565b9050919050565b600060208201905081810360008301526138e7816134d7565b9050919050565b60006020820190508181036000830152613907816134fa565b9050919050565b600060208201905081810360008301526139278161351d565b9050919050565b6000602082019050818103600083015261394781613540565b9050919050565b6000602082019050818103600083015261396781613563565b9050919050565b6000602082019050818103600083015261398781613586565b9050919050565b600060208201905081810360008301526139a7816135a9565b9050919050565b600060208201905081810360008301526139c7816135cc565b9050919050565b600060208201905081810360008301526139e7816135ef565b9050919050565b60006020820190508181036000830152613a0781613612565b9050919050565b6000602082019050613a236000830184613635565b92915050565b6000613a33613a44565b9050613a3f8282613d3a565b919050565b6000604051905090565b600067ffffffffffffffff821115613a6957613a68613e72565b5b613a7282613ea1565b9050602081019050919050565b600067ffffffffffffffff821115613a9a57613a99613e72565b5b613aa382613ea1565b9050602081019050919050565b6000819050602082019050919050565b600081519050919050565b600081519050919050565b600081519050919050565b6000602082019050919050565b600082825260208201905092915050565b600082825260208201905092915050565b600082825260208201905092915050565b600082825260208201905092915050565b600081905092915050565b6000613b4882613cbc565b9150613b5383613cbc565b9250827fffffffffffffffffffffffffffffffffffffffffffffffffffffffffffffffff03821115613b8857613b87613de5565b5b828201905092915050565b6000613b9e82613cbc565b9150613ba983613cbc565b925082613bb957613bb8613e14565b5b828204905092915050565b6000613bcf82613cbc565b9150613bda83613cbc565b9250817fffffffffffffffffffffffffffffffffffffffffffffffffffffffffffffffff0483118215151615613c1357613c12613de5565b5b828202905092915050565b6000613c2982613cbc565b9150613c3483613cbc565b925082821015613c4757613c46613de5565b5b828203905092915050565b6000613c5d82613c9c565b9050919050565b60008115159050919050565b60007fffffffff0000000000000000000000000000000000000000000000000000000082169050919050565b600073ffffffffffffffffffffffffffffffffffffffff82169050919050565b6000819050919050565b82818337600083830152505050565b60005b83811015613cf3578082015181840152602081019050613cd8565b83811115613d02576000848401525b50505050565b60006002820490506001821680613d2057607f821691505b60208210811415613d3457613d33613e43565b5b50919050565b613d4382613ea1565b810181811067ffffffffffffffff82111715613d6257613d61613e72565b5b80604052505050565b6000613d7682613cbc565b91507fffffffffffffffffffffffffffffffffffffffffffffffffffffffffffffffff821415613da957613da8613de5565b5b600182019050919050565b6000613dbf82613cbc565b9150613dca83613cbc565b925082613dda57613dd9613e14565b5b828206905092915050565b7f4e487b7100000000000000000000000000000000000000000000000000000000600052601160045260246000fd5b7f4e487b7100000000000000000000000000000000000000000000000000000000600052601260045260246000fd5b7f4e487b7100000000000000000000000000000000000000000000000000000000600052602260045260246000fd5b7f4e487b7100000000000000000000000000000000000000000000000000000000600052604160045260246000fd5b6000601f19601f8301169050919050565b7f4e6f7420656e6f756768204e465473206c65667420746f207265736572766500600082015250565b7f455243373231456e756d657261626c653a206f776e657220696e646578206f7560008201527f74206f6620626f756e6473000000000000000000000000000000000000000000602082015250565b7f4552433732313a207472616e7366657220746f206e6f6e20455243373231526560008201527f63656976657220696d706c656d656e7465720000000000000000000000000000602082015250565b7f4f776e61626c653a206e6577206f776e657220697320746865207a65726f206160008201527f6464726573730000000000000000000000000000000000000000000000000000602082015250565b7f4552433732313a207472616e736665722066726f6d20696e636f72726563742060008201527f6f776e6572000000000000000000000000000000000000000000000000000000602082015250565b7f4552433732313a20746f6b656e20616c7265616479206d696e74656400000000600082015250565b7f4552433732313a207472616e7366657220746f20746865207a65726f2061646460008201527f7265737300000000000000000000000000000000000000000000000000000000602082015250565b7f4552433732313a20617070726f766520746f2063616c6c657200000000000000600082015250565b7f4e6f7420656e6f75676820657468657220746f207075726368617365204e465460008201527f732e000000000000000000000000000000000000000000000000000000000000602082015250565b7f4e6f7420656e6f756768204e465473206c656674210000000000000000000000600082015250565b7f43616e6e6f74206d696e7420737065636966696564206e756d626572206f662060008201527f4e4654732e000000000000000000000000000000000000000000000000000000602082015250565b7f4552433732313a206f70657261746f7220717565727920666f72206e6f6e657860008201527f697374656e7420746f6b656e0000000000000000000000000000000000000000602082015250565b7f4552433732313a20617070726f76652063616c6c6572206973206e6f74206f7760008201527f6e6572206e6f7220617070726f76656420666f7220616c6c0000000000000000602082015250565b7f414f54413a3a536166655472616e736665723a207472616e736665722063616c60008201527f6c6572206973206e6f74206f776e657200000000000000000000000000000000602082015250565b7f4552433732313a2062616c616e636520717565727920666f7220746865207a6560008201527f726f206164647265737300000000000000000000000000000000000000000000602082015250565b7f4552433732313a206f776e657220717565727920666f72206e6f6e657869737460008201527f656e7420746f6b656e0000000000000000000000000000000000000000000000602082015250565b7f4552433732313a206d696e7420746f20746865207a65726f2061646472657373600082015250565b7f4552433732313a20617070726f76656420717565727920666f72206e6f6e657860008201527f697374656e7420746f6b656e0000000000000000000000000000000000000000602082015250565b7f4f776e61626c653a2063616c6c6572206973206e6f7420746865206f776e6572600082015250565b7f4552433732314d657461646174613a2055524920717565727920666f72206e6f60008201527f6e6578697374656e7420746f6b656e0000000000000000000000000000000000602082015250565b7f4552433732313a20617070726f76616c20746f2063757272656e74206f776e6560008201527f7200000000000000000000000000000000000000000000000000000000000000602082015250565b7f4552433732313a207472616e736665722063616c6c6572206973206e6f74206f60008201527f776e6572206e6f7220617070726f766564000000000000000000000000000000602082015250565b7f455243373231456e756d657261626c653a20676c6f62616c20696e646578206f60008201527f7574206f6620626f756e64730000000000000000000000000000000000000000602082015250565b6144f081613c52565b81146144fb57600080fd5b50565b61450781613c64565b811461451257600080fd5b50565b61451e81613c70565b811461452957600080fd5b50565b61453581613cbc565b811461454057600080fd5b5056fea2646970667358221220dba9e456df911cdff65e069f63dc738da791f152702a1315af9f9bbe24eb961f64736f6c63430008040033",
  "linkReferences": {},
  "deployedLinkReferences": {}
}