{
  "_format": "hh-sol-artifact-1",
  "contractName": "AOTAUpgraded",
  "sourceName": "contracts/AOTA.sol",
  "abi": [
    {
      "inputs": [
        {
          "internalType": "string",
          "name": "baseURI",
          "type": "string"
        },
        {
          "internalType": "string",
          "name": "mockImageLink",
          "type": "string"
        }
      ],
      "stateMutability": "nonpayable",
      "type": "constructor"
    },
    {
      "anonymous": false,
      "inputs": [
        {
          "indexed": true,
          "internalType": "address",
          "name": "owner",
          "type": "address"
        },
        {
          "indexed": true,
          "internalType": "address",
          "name": "approved",
          "type": "address"
        },
        {
          "indexed": true,
          "internalType": "uint256",
          "name": "tokenId",
          "type": "uint256"
        }
      ],
      "name": "Approval",
      "type": "event"
    },
    {
      "anonymous": false,
      "inputs": [
        {
          "indexed": true,
          "internalType": "address",
          "name": "owner",
          "type": "address"
        },
        {
          "indexed": true,
          "internalType": "address",
          "name": "operator",
          "type": "address"
        },
        {
          "indexed": false,
          "internalType": "bool",
          "name": "approved",
          "type": "bool"
        }
      ],
      "name": "ApprovalForAll",
      "type": "event"
    },
    {
      "anonymous": false,
      "inputs": [
        {
          "indexed": true,
          "internalType": "address",
          "name": "previousOwner",
          "type": "address"
        },
        {
          "indexed": true,
          "internalType": "address",
          "name": "newOwner",
          "type": "address"
        }
      ],
      "name": "OwnershipTransferred",
      "type": "event"
    },
    {
      "anonymous": false,
      "inputs": [
        {
          "indexed": true,
          "internalType": "address",
          "name": "from",
          "type": "address"
        },
        {
          "indexed": true,
          "internalType": "address",
          "name": "to",
          "type": "address"
        },
        {
          "indexed": true,
          "internalType": "uint256",
          "name": "tokenId",
          "type": "uint256"
        }
      ],
      "name": "Transfer",
      "type": "event"
    },
    {
      "inputs": [],
      "name": "MAX_PER_MINT",
      "outputs": [
        {
          "internalType": "uint256",
          "name": "",
          "type": "uint256"
        }
      ],
      "stateMutability": "view",
      "type": "function"
    },
    {
      "inputs": [],
      "name": "MAX_SUPPLY",
      "outputs": [
        {
          "internalType": "uint256",
          "name": "",
          "type": "uint256"
        }
      ],
      "stateMutability": "view",
      "type": "function"
    },
    {
      "inputs": [],
      "name": "PRI_PRICE",
      "outputs": [
        {
          "internalType": "uint256",
          "name": "",
          "type": "uint256"
        }
      ],
      "stateMutability": "view",
      "type": "function"
    },
    {
      "inputs": [],
      "name": "PUB_PRICE",
      "outputs": [
        {
          "internalType": "uint256",
          "name": "",
          "type": "uint256"
        }
      ],
      "stateMutability": "view",
      "type": "function"
    },
    {
      "inputs": [
        {
          "internalType": "address[]",
          "name": "listOfUsers",
          "type": "address[]"
        }
      ],
      "name": "addUsersToWhitelist",
      "outputs": [],
      "stateMutability": "nonpayable",
      "type": "function"
    },
    {
      "inputs": [
        {
          "internalType": "address",
          "name": "to",
          "type": "address"
        },
        {
          "internalType": "uint256",
          "name": "tokenId",
          "type": "uint256"
        }
      ],
      "name": "approve",
      "outputs": [],
      "stateMutability": "nonpayable",
      "type": "function"
    },
    {
      "inputs": [
        {
          "internalType": "address",
          "name": "owner",
          "type": "address"
        }
      ],
      "name": "balanceOf",
      "outputs": [
        {
          "internalType": "uint256",
          "name": "",
          "type": "uint256"
        }
      ],
      "stateMutability": "view",
      "type": "function"
    },
    {
      "inputs": [],
      "name": "baseExtension",
      "outputs": [
        {
          "internalType": "string",
          "name": "",
          "type": "string"
        }
      ],
      "stateMutability": "view",
      "type": "function"
    },
    {
      "inputs": [],
      "name": "baseTokenURI",
      "outputs": [
        {
          "internalType": "string",
          "name": "",
          "type": "string"
        }
      ],
      "stateMutability": "view",
      "type": "function"
    },
    {
      "inputs": [],
      "name": "checkStatus",
      "outputs": [
        {
          "internalType": "enum AOTAUpgraded.SalesStatus",
          "name": "",
          "type": "uint8"
        }
      ],
      "stateMutability": "view",
      "type": "function"
    },
    {
      "inputs": [
        {
          "internalType": "uint256",
          "name": "tokenId",
          "type": "uint256"
        }
      ],
      "name": "getApproved",
      "outputs": [
        {
          "internalType": "address",
          "name": "",
          "type": "address"
        }
      ],
      "stateMutability": "view",
      "type": "function"
    },
    {
      "inputs": [],
      "name": "getMyNFTs",
      "outputs": [
        {
          "internalType": "string[]",
          "name": "",
          "type": "string[]"
        }
      ],
      "stateMutability": "view",
      "type": "function"
    },
    {
      "inputs": [
        {
          "internalType": "address",
          "name": "owner",
          "type": "address"
        },
        {
          "internalType": "address",
          "name": "operator",
          "type": "address"
        }
      ],
      "name": "isApprovedForAll",
      "outputs": [
        {
          "internalType": "bool",
          "name": "",
          "type": "bool"
        }
      ],
      "stateMutability": "view",
      "type": "function"
    },
    {
      "inputs": [
        {
          "internalType": "address",
          "name": "",
          "type": "address"
        }
      ],
      "name": "isWhitelisted",
      "outputs": [
        {
          "internalType": "bool",
          "name": "",
          "type": "bool"
        }
      ],
      "stateMutability": "view",
      "type": "function"
    },
    {
      "inputs": [],
      "name": "maxSupply",
      "outputs": [
        {
          "internalType": "uint256",
          "name": "",
          "type": "uint256"
        }
      ],
      "stateMutability": "view",
      "type": "function"
    },
    {
      "inputs": [
        {
          "internalType": "uint256",
          "name": "_count",
          "type": "uint256"
        }
      ],
      "name": "mint",
      "outputs": [],
      "stateMutability": "payable",
      "type": "function"
    },
    {
      "inputs": [],
      "name": "name",
      "outputs": [
        {
          "internalType": "string",
          "name": "",
          "type": "string"
        }
      ],
      "stateMutability": "view",
      "type": "function"
    },
    {
      "inputs": [],
      "name": "owner",
      "outputs": [
        {
          "internalType": "address",
          "name": "",
          "type": "address"
        }
      ],
      "stateMutability": "view",
      "type": "function"
    },
    {
      "inputs": [
        {
          "internalType": "uint256",
          "name": "tokenId",
          "type": "uint256"
        }
      ],
      "name": "ownerOf",
      "outputs": [
        {
          "internalType": "address",
          "name": "",
          "type": "address"
        }
      ],
      "stateMutability": "view",
      "type": "function"
    },
    {
      "inputs": [],
      "name": "priPrice",
      "outputs": [
        {
          "internalType": "uint256",
          "name": "",
          "type": "uint256"
        }
      ],
      "stateMutability": "pure",
      "type": "function"
    },
    {
      "inputs": [],
      "name": "pubPrice",
      "outputs": [
        {
          "internalType": "uint256",
          "name": "",
          "type": "uint256"
        }
      ],
      "stateMutability": "pure",
      "type": "function"
    },
    {
      "inputs": [],
      "name": "renounceOwnership",
      "outputs": [],
      "stateMutability": "nonpayable",
      "type": "function"
    },
    {
      "inputs": [],
      "name": "reserveNFTs",
      "outputs": [],
      "stateMutability": "nonpayable",
      "type": "function"
    },
    {
      "inputs": [
        {
          "internalType": "address",
          "name": "to",
          "type": "address"
        },
        {
          "internalType": "uint256",
          "name": "tokenId",
          "type": "uint256"
        }
      ],
      "name": "safeTransfer",
      "outputs": [],
      "stateMutability": "nonpayable",
      "type": "function"
    },
    {
      "inputs": [
        {
          "internalType": "address",
          "name": "from",
          "type": "address"
        },
        {
          "internalType": "address",
          "name": "to",
          "type": "address"
        },
        {
          "internalType": "uint256",
          "name": "tokenId",
          "type": "uint256"
        }
      ],
      "name": "safeTransferFrom",
      "outputs": [],
      "stateMutability": "nonpayable",
      "type": "function"
    },
    {
      "inputs": [
        {
          "internalType": "address",
          "name": "from",
          "type": "address"
        },
        {
          "internalType": "address",
          "name": "to",
          "type": "address"
        },
        {
          "internalType": "uint256",
          "name": "tokenId",
          "type": "uint256"
        },
        {
          "internalType": "bytes",
          "name": "_data",
          "type": "bytes"
        }
      ],
      "name": "safeTransferFrom",
      "outputs": [],
      "stateMutability": "nonpayable",
      "type": "function"
    },
    {
      "inputs": [
        {
          "internalType": "address",
          "name": "operator",
          "type": "address"
        },
        {
          "internalType": "bool",
          "name": "approved",
          "type": "bool"
        }
      ],
      "name": "setApprovalForAll",
      "outputs": [],
      "stateMutability": "nonpayable",
      "type": "function"
    },
    {
      "inputs": [
        {
          "internalType": "string",
          "name": "_baseTokenURI",
          "type": "string"
        }
      ],
      "name": "setBaseURI",
      "outputs": [],
      "stateMutability": "nonpayable",
      "type": "function"
    },
    {
      "inputs": [
        {
          "internalType": "enum AOTAUpgraded.SalesStatus",
          "name": "status",
          "type": "uint8"
        }
      ],
      "name": "setSalesStatus",
      "outputs": [],
      "stateMutability": "nonpayable",
      "type": "function"
    },
    {
      "inputs": [
        {
          "internalType": "bytes4",
          "name": "interfaceId",
          "type": "bytes4"
        }
      ],
      "name": "supportsInterface",
      "outputs": [
        {
          "internalType": "bool",
          "name": "",
          "type": "bool"
        }
      ],
      "stateMutability": "view",
      "type": "function"
    },
    {
      "inputs": [],
      "name": "symbol",
      "outputs": [
        {
          "internalType": "string",
          "name": "",
          "type": "string"
        }
      ],
      "stateMutability": "view",
      "type": "function"
    },
    {
      "inputs": [
        {
          "internalType": "uint256",
          "name": "tokenId",
          "type": "uint256"
        }
      ],
      "name": "tokenURI",
      "outputs": [
        {
          "internalType": "string",
          "name": "",
          "type": "string"
        }
      ],
      "stateMutability": "view",
      "type": "function"
    },
    {
      "inputs": [],
      "name": "totalSupply",
      "outputs": [
        {
          "internalType": "uint256",
          "name": "",
          "type": "uint256"
        }
      ],
      "stateMutability": "view",
      "type": "function"
    },
    {
      "inputs": [
        {
          "internalType": "address",
          "name": "from",
          "type": "address"
        },
        {
          "internalType": "address",
          "name": "to",
          "type": "address"
        },
        {
          "internalType": "uint256",
          "name": "tokenId",
          "type": "uint256"
        }
      ],
      "name": "transferFrom",
      "outputs": [],
      "stateMutability": "nonpayable",
      "type": "function"
    },
    {
      "inputs": [
        {
          "internalType": "address",
          "name": "newOwner",
          "type": "address"
        }
      ],
      "name": "transferOwnership",
      "outputs": [],
      "stateMutability": "nonpayable",
      "type": "function"
    },
    {
      "inputs": [
        {
          "internalType": "address",
          "name": "",
          "type": "address"
        },
        {
          "internalType": "uint256",
          "name": "",
          "type": "uint256"
        }
      ],
      "name": "userTokens",
      "outputs": [
        {
          "internalType": "uint256",
          "name": "",
          "type": "uint256"
        }
      ],
      "stateMutability": "view",
      "type": "function"
    },
    {
      "inputs": [
        {
          "internalType": "uint256",
          "name": "",
          "type": "uint256"
        }
      ],
      "name": "whitelist",
      "outputs": [
        {
          "internalType": "address",
          "name": "",
          "type": "address"
        }
      ],
      "stateMutability": "view",
      "type": "function"
    }
  ],
  "bytecode": "0x60a06040526040518060400160405280600581526020017f2e6a736f6e000000000000000000000000000000000000000000000000000000815250600e90805190602001906200005192919062000a17565b503480156200005f57600080fd5b506040516200670938038062006709833981810160405281019062000085919062000b39565b6040518060400160405280601181526020017f416c69656e73204f6e20546865204176650000000000000000000000000000008152506040518060400160405280600481526020017f414f544100000000000000000000000000000000000000000000000000000000815250611beb82600090805190602001906200010c92919062000a17565b5081600190805190602001906200012592919062000a17565b50806080818152505080600381905550505050620001586200014c6200087460201b60201c565b6200087c60201b60201c565b6000604051806101c0016040528073819eec2c66a512ef94f3a9ac3f7f5d0fdbc2cc6473ffffffffffffffffffffffffffffffffffffffff1673ffffffffffffffffffffffffffffffffffffffff1681526020017316653d0fc9a2da314b2733511556113ddb23a87c73ffffffffffffffffffffffffffffffffffffffff1673ffffffffffffffffffffffffffffffffffffffff16815260200173b087df8742909dde2a73c88bf197237c33ba71ed73ffffffffffffffffffffffffffffffffffffffff1673ffffffffffffffffffffffffffffffffffffffff16815260200173fa0de223b0588e185cac2fed85db73cb9cd71eab73ffffffffffffffffffffffffffffffffffffffff1673ffffffffffffffffffffffffffffffffffffffff1681526020017352914a37a4e8c7a6bb97c92d2ab7ce00285f64fb73ffffffffffffffffffffffffffffffffffffffff1673ffffffffffffffffffffffffffffffffffffffff16815260200173d472de4a85134a838b1dd4b7dfe6f02a28e71d2b73ffffffffffffffffffffffffffffffffffffffff1673ffffffffffffffffffffffffffffffffffffffff16815260200173b4c3c40728a5da172bb264d1f8587661a10c5f2673ffffffffffffffffffffffffffffffffffffffff1673ffffffffffffffffffffffffffffffffffffffff168152602001733f3323b2c02160a69ff6ac83612384906ff9fd7873ffffffffffffffffffffffffffffffffffffffff1673ffffffffffffffffffffffffffffffffffffffff16815260200173cabc2eebd715b8064c66a9bd2ab0b15efdee58fa73ffffffffffffffffffffffffffffffffffffffff1673ffffffffffffffffffffffffffffffffffffffff16815260200173cb4560ce663d65b9117fef1965c302d9e42d524773ffffffffffffffffffffffffffffffffffffffff1673ffffffffffffffffffffffffffffffffffffffff16815260200173633536ef4ff01ccec5d8414d89a45fc63e27c68373ffffffffffffffffffffffffffffffffffffffff1673ffffffffffffffffffffffffffffffffffffffff16815260200173e419c69d17183a69f6cd2bbf233e629fc6768c4b73ffffffffffffffffffffffffffffffffffffffff1673ffffffffffffffffffffffffffffffffffffffff1681526020017311f262897b3f083c9ad3965dbbeaf888f336f8d673ffffffffffffffffffffffffffffffffffffffff1673ffffffffffffffffffffffffffffffffffffffff168152602001735f9ce815fd9e566fac3d866ed4db418270bc132573ffffffffffffffffffffffffffffffffffffffff1673ffffffffffffffffffffffffffffffffffffffff1681525090506000600e141562000582576040517f08c379a0000000000000000000000000000000000000000000000000000000008152600401620005799062000bfa565b60405180910390fd5b62000593836200094260201b60201c565b8160099080519060200190620005ab92919062000a17565b5042600a819055506000600f60006101000a81548160ff0219169083600281111562000600577f4e487b7100000000000000000000000000000000000000000000000000000000600052602160045260246000fd5b021790555060005b600e8110156200086a57600073ffffffffffffffffffffffffffffffffffffffff168282600e811062000664577f4e487b7100000000000000000000000000000000000000000000000000000000600052603260045260246000fd5b602002015173ffffffffffffffffffffffffffffffffffffffff1614158015620007165750600c60008383600e8110620006c7577f4e487b7100000000000000000000000000000000000000000000000000000000600052603260045260246000fd5b602002015173ffffffffffffffffffffffffffffffffffffffff1673ffffffffffffffffffffffffffffffffffffffff16815260200190815260200160002060009054906101000a900460ff16155b156200085457600b8282600e811062000758577f4e487b7100000000000000000000000000000000000000000000000000000000600052603260045260246000fd5b60200201519080600181540180825580915050600190039060005260206000200160009091909190916101000a81548173ffffffffffffffffffffffffffffffffffffffff021916908373ffffffffffffffffffffffffffffffffffffffff1602179055506001600c60008484600e8110620007fd577f4e487b7100000000000000000000000000000000000000000000000000000000600052603260045260246000fd5b602002015173ffffffffffffffffffffffffffffffffffffffff1673ffffffffffffffffffffffffffffffffffffffff16815260200190815260200160002060006101000a81548160ff0219169083151502179055505b8080620008619062000d5a565b91505062000608565b5050505062000e98565b600033905090565b6000600860009054906101000a900473ffffffffffffffffffffffffffffffffffffffff16905081600860006101000a81548173ffffffffffffffffffffffffffffffffffffffff021916908373ffffffffffffffffffffffffffffffffffffffff1602179055508173ffffffffffffffffffffffffffffffffffffffff168173ffffffffffffffffffffffffffffffffffffffff167f8be0079c531659141344cd1fd0a4f28419497f9722a3daafe3b4186f6b6457e060405160405180910390a35050565b620009526200087460201b60201c565b73ffffffffffffffffffffffffffffffffffffffff1662000978620009ed60201b60201c565b73ffffffffffffffffffffffffffffffffffffffff1614620009d1576040517f08c379a0000000000000000000000000000000000000000000000000000000008152600401620009c89062000c1c565b60405180910390fd5b80600d9080519060200190620009e992919062000a17565b5050565b6000600860009054906101000a900473ffffffffffffffffffffffffffffffffffffffff16905090565b82805462000a259062000cee565b90600052602060002090601f01602090048101928262000a49576000855562000a95565b82601f1062000a6457805160ff191683800117855562000a95565b8280016001018555821562000a95579182015b8281111562000a9457825182559160200191906001019062000a77565b5b50905062000aa4919062000aa8565b5090565b5b8082111562000ac357600081600090555060010162000aa9565b5090565b600062000ade62000ad88462000c67565b62000c3e565b90508281526020810184848401111562000af757600080fd5b62000b0484828562000cb8565b509392505050565b600082601f83011262000b1e57600080fd5b815162000b3084826020860162000ac7565b91505092915050565b6000806040838503121562000b4d57600080fd5b600083015167ffffffffffffffff81111562000b6857600080fd5b62000b768582860162000b0c565b925050602083015167ffffffffffffffff81111562000b9457600080fd5b62000ba28582860162000b0c565b9150509250929050565b600062000bbb60208362000c9d565b915062000bc88262000e46565b602082019050919050565b600062000be260208362000c9d565b915062000bef8262000e6f565b602082019050919050565b6000602082019050818103600083015262000c158162000bac565b9050919050565b6000602082019050818103600083015262000c378162000bd3565b9050919050565b600062000c4a62000c5d565b905062000c58828262000d24565b919050565b6000604051905090565b600067ffffffffffffffff82111562000c855762000c8462000e06565b5b62000c908262000e35565b9050602081019050919050565b600082825260208201905092915050565b6000819050919050565b60005b8381101562000cd857808201518184015260208101905062000cbb565b8381111562000ce8576000848401525b50505050565b6000600282049050600182168062000d0757607f821691505b6020821081141562000d1e5762000d1d62000dd7565b5b50919050565b62000d2f8262000e35565b810181811067ffffffffffffffff8211171562000d515762000d5062000e06565b5b80604052505050565b600062000d678262000cae565b91507fffffffffffffffffffffffffffffffffffffffffffffffffffffffffffffffff82141562000d9d5762000d9c62000da8565b5b600182019050919050565b7f4e487b7100000000000000000000000000000000000000000000000000000000600052601160045260246000fd5b7f4e487b7100000000000000000000000000000000000000000000000000000000600052602260045260246000fd5b7f4e487b7100000000000000000000000000000000000000000000000000000000600052604160045260246000fd5b6000601f19601f8301169050919050565b7f6c697374206f662077686974656c69737420757365727320697320656d707479600082015250565b7f4f776e61626c653a2063616c6c6572206973206e6f7420746865206f776e6572600082015250565b60805161584e62000ebb600039600081816114b201526127fd015261584e6000f3fe60806040526004361061021a5760003560e01c806370a0823111610123578063b7cca2d4116100ab578063d547cfb71161006f578063d547cfb7146107b4578063d5abeb01146107df578063e985e9c51461080a578063f2fde38b14610847578063f9f411d8146108705761021a565b8063b7cca2d4146106cd578063b88d4fde146106f8578063bddb7be714610721578063c66828621461074c578063c87b56dd146107775761021a565b80638da5cb5b116100f25780638da5cb5b1461060757806395d89b4114610632578063a0712d681461065d578063a22cb46514610679578063b472070f146106a25761021a565b806370a082311461054d578063715018a61461058a57806371860d7d146105a15780637ebd1b30146105ca5761021a565b806332cb6b0c116101a657806342842e0e1161017557806342842e0e1461046a57806355f804b3146104935780635ae698ff146104bc578063629cb2e4146104e55780636352211e146105105761021a565b806332cb6b0c146103ae5780633af32abf146103d95780633b7104f214610416578063423f6cef146104415761021a565b806309d42b30116101ed57806309d42b30146102ed578063144100c71461031857806318160ddd1461032f5780631e5f5dc01461035a57806323b872dd146103855761021a565b806301ffc9a71461021f57806306fdde031461025c578063081812fc14610287578063095ea7b3146102c4575b600080fd5b34801561022b57600080fd5b5061024660048036038101906102419190614107565b6108ad565b604051610253919061489b565b60405180910390f35b34801561026857600080fd5b5061027161098f565b60405161027e91906148d1565b60405180910390f35b34801561029357600080fd5b506102ae60048036038101906102a991906141c3565b610a21565b6040516102bb9190614794565b60405180910390f35b3480156102d057600080fd5b506102eb60048036038101906102e6919061408a565b610aa6565b005b3480156102f957600080fd5b50610302610bbe565b60405161030f9190614bf3565b60405180910390f35b34801561032457600080fd5b5061032d610bc3565b005b34801561033b57600080fd5b506103446114ab565b6040516103519190614bf3565b60405180910390f35b34801561036657600080fd5b5061036f6114e0565b60405161037c9190614bf3565b60405180910390f35b34801561039157600080fd5b506103ac60048036038101906103a79190613f84565b6114eb565b005b3480156103ba57600080fd5b506103c361154b565b6040516103d09190614bf3565b60405180910390f35b3480156103e557600080fd5b5061040060048036038101906103fb9190613f1f565b611551565b60405161040d919061489b565b60405180910390f35b34801561042257600080fd5b5061042b611571565b60405161043891906148b6565b60405180910390f35b34801561044d57600080fd5b506104686004803603810190610463919061408a565b611588565b005b34801561047657600080fd5b50610491600480360381019061048c9190613f84565b6115f7565b005b34801561049f57600080fd5b506104ba60048036038101906104b59190614182565b611617565b005b3480156104c857600080fd5b506104e360048036038101906104de91906140c6565b6116ad565b005b3480156104f157600080fd5b506104fa6119d9565b6040516105079190614879565b60405180910390f35b34801561051c57600080fd5b50610537600480360381019061053291906141c3565b611d87565b6040516105449190614794565b60405180910390f35b34801561055957600080fd5b50610574600480360381019061056f9190613f1f565b611e39565b6040516105819190614bf3565b60405180910390f35b34801561059657600080fd5b5061059f611ef1565b005b3480156105ad57600080fd5b506105c860048036038101906105c39190614159565b611f79565b005b3480156105d657600080fd5b506105f160048036038101906105ec91906141c3565b612048565b6040516105fe9190614794565b60405180910390f35b34801561061357600080fd5b5061061c612087565b6040516106299190614794565b60405180910390f35b34801561063e57600080fd5b506106476120b1565b60405161065491906148d1565b60405180910390f35b610677600480360381019061067291906141c3565b612143565b005b34801561068557600080fd5b506106a0600480360381019061069b919061404e565b612590565b005b3480156106ae57600080fd5b506106b76125a6565b6040516106c49190614bf3565b60405180910390f35b3480156106d957600080fd5b506106e26125b2565b6040516106ef9190614bf3565b60405180910390f35b34801561070457600080fd5b5061071f600480360381019061071a9190613fd3565b6125c1565b005b34801561072d57600080fd5b50610736612623565b6040516107439190614bf3565b60405180910390f35b34801561075857600080fd5b50610761612633565b60405161076e91906148d1565b60405180910390f35b34801561078357600080fd5b5061079e600480360381019061079991906141c3565b6126c1565b6040516107ab91906148d1565b60405180910390f35b3480156107c057600080fd5b506107c961276b565b6040516107d691906148d1565b60405180910390f35b3480156107eb57600080fd5b506107f46127f9565b6040516108019190614bf3565b60405180910390f35b34801561081657600080fd5b50610831600480360381019061082c9190613f48565b612821565b60405161083e919061489b565b60405180910390f35b34801561085357600080fd5b5061086e60048036038101906108699190613f1f565b6128b5565b005b34801561087c57600080fd5b506108976004803603810190610892919061408a565b6129ad565b6040516108a49190614bf3565b60405180910390f35b60007f80ac58cd000000000000000000000000000000000000000000000000000000007bffffffffffffffffffffffffffffffffffffffffffffffffffffffff1916827bffffffffffffffffffffffffffffffffffffffffffffffffffffffff1916148061097857507f5b5e139f000000000000000000000000000000000000000000000000000000007bffffffffffffffffffffffffffffffffffffffffffffffffffffffff1916827bffffffffffffffffffffffffffffffffffffffffffffffffffffffff1916145b806109885750610987826129de565b5b9050919050565b60606000805461099e90614f87565b80601f01602080910402602001604051908101604052809291908181526020018280546109ca90614f87565b8015610a175780601f106109ec57610100808354040283529160200191610a17565b820191906000526020600020905b8154815290600101906020018083116109fa57829003601f168201915b5050505050905090565b6000610a2c82612a48565b610a6b576040517f08c379a0000000000000000000000000000000000000000000000000000000008152600401610a6290614b33565b60405180910390fd5b6006600083815260200190815260200160002060009054906101000a900473ffffffffffffffffffffffffffffffffffffffff169050919050565b6000610ab182611d87565b90508073ffffffffffffffffffffffffffffffffffffffff168373ffffffffffffffffffffffffffffffffffffffff161415610b22576040517f08c379a0000000000000000000000000000000000000000000000000000000008152600401610b1990614b93565b60405180910390fd5b8073ffffffffffffffffffffffffffffffffffffffff16610b41612ab4565b73ffffffffffffffffffffffffffffffffffffffff161480610b705750610b6f81610b6a612ab4565b612821565b5b610baf576040517f08c379a0000000000000000000000000000000000000000000000000000000008152600401610ba690614a53565b60405180910390fd5b610bb98383612abc565b505050565b609281565b610bcb612ab4565b73ffffffffffffffffffffffffffffffffffffffff16610be9612087565b73ffffffffffffffffffffffffffffffffffffffff1614610c3f576040517f08c379a0000000000000000000000000000000000000000000000000000000008152600401610c3690614b53565b60405180910390fd5b601160009054906101000a900460ff1615610c8f576040517f08c379a0000000000000000000000000000000000000000000000000000000008152600401610c8690614ad3565b60405180910390fd5b6000604051806112600160405280611b8d61ffff168152602001611b5b61ffff168152602001611b3a61ffff168152602001611acd61ffff168152602001611ab361ffff168152602001611aad61ffff168152602001611aa061ffff168152602001611a8361ffff168152602001611a5561ffff168152602001611a3261ffff1681526020016119ea61ffff16815260200161194561ffff1681526020016118dd61ffff1681526020016118d061ffff16815260200161188d61ffff16815260200161187061ffff16815260200161185b61ffff16815260200161181861ffff1681526020016117fc61ffff1681526020016117f061ffff1681526020016117ba61ffff1681526020016117b961ffff16815260200161170461ffff1681526020016116da61ffff1681526020016116c461ffff16815260200161169061ffff16815260200161160561ffff1681526020016115f561ffff1681526020016115cf61ffff1681526020016115c761ffff16815260200161159961ffff16815260200161158461ffff16815260200161153561ffff1681526020016114d061ffff1681526020016114cb61ffff16815260200161149961ffff16815260200161143f61ffff16815260200161139961ffff16815260200161134561ffff16815260200161132161ffff16815260200161131e61ffff16815260200161131161ffff16815260200161130f61ffff1681526020016112e861ffff16815260200161127061ffff16815260200161125061ffff16815260200161121261ffff1681526020016111f261ffff16815260200161119761ffff16815260200161117461ffff16815260200161116d61ffff1681526020016110ed61ffff16815260200161107b61ffff16815260200161105c61ffff16815260200161105761ffff168152602001610fa061ffff168152602001610ef461ffff168152602001610ea861ffff168152602001610ea561ffff168152602001610ea461ffff168152602001610e9261ffff168152602001610db661ffff168152602001610da761ffff168152602001610d3261ffff168152602001610d1261ffff168152602001610d1061ffff168152602001610ca861ffff168152602001610c5161ffff168152602001610c4661ffff168152602001610c2a61ffff168152602001610c2261ffff168152602001610c0a61ffff168152602001610bfc61ffff168152602001610bf361ffff168152602001610bd561ffff168152602001610b5761ffff168152602001610b3661ffff168152602001610b1a61ffff168152602001610b0c61ffff168152602001610b0961ffff168152602001610ac561ffff168152602001610a2c61ffff1681526020016109ec61ffff16815260200161092961ffff16815260200161090261ffff1681526020016108e961ffff1681526020016108b361ffff1681526020016108a761ffff16815260200161086661ffff16815260200161085661ffff16815260200161080a61ffff1681526020016107d061ffff1681526020016107a361ffff16815260200161078d61ffff16815260200161076861ffff16815260200161075661ffff16815260200161075261ffff16815260200161071d61ffff1681526020016106bf61ffff1681526020016106b261ffff1681526020016106af61ffff16815260200161067d61ffff16815260200161067861ffff16815260200161061061ffff1681526020016105f361ffff1681526020016105a261ffff16815260200161051261ffff1681526020016104de61ffff1681526020016104dc61ffff16815260200161049761ffff16815260200161049161ffff16815260200161045961ffff16815260200161043c61ffff16815260200161043b61ffff16815260200161040e61ffff1681526020016103fb61ffff1681526020016103e761ffff1681526020016103e361ffff1681526020016103d461ffff1681526020016103d161ffff16815260200161033661ffff16815260200161031f61ffff1681526020016102eb61ffff1681526020016102e061ffff1681526020016102de61ffff1681526020016102da61ffff1681526020016102a861ffff16815260200161028361ffff16815260200161025261ffff16815260200161024f61ffff16815260200161024061ffff16815260200161020861ffff1681526020016101f161ffff1681526020016101c661ffff16815260200161018d61ffff16815260200161017361ffff16815260200161017261ffff16815260200161014a61ffff16815260200161013661ffff16815260200161011d61ffff16815260200161010961ffff16815260200160c661ffff16815260200160b161ffff168152602001609061ffff168152602001603e61ffff168152602001600c61ffff168152602001600061ffff16815250905060005b609381101561148c576113d2338383609381106113c4577f4e487b7100000000000000000000000000000000000000000000000000000000600052603260045260246000fd5b602002015161ffff16612b75565b601060003373ffffffffffffffffffffffffffffffffffffffff1673ffffffffffffffffffffffffffffffffffffffff16815260200190815260200160002082826093811061144a577f4e487b7100000000000000000000000000000000000000000000000000000000600052603260045260246000fd5b6020020151908060018154018082558091505060019003906000526020600020016000909161ffff16909190915055808061148490614fea565b91505061137e565b506001601160006101000a81548160ff02191690831515021790555050565b60006003547f00000000000000000000000000000000000000000000000000000000000000006114db9190614e44565b905090565b66f8b0a10e47000081565b6114fc6114f6612ab4565b82612d2c565b61153b576040517f08c379a000000000000000000000000000000000000000000000000000000000815260040161153290614bd3565b60405180910390fd5b611546838383612e0a565b505050565b611beb81565b600c6020528060005260406000206000915054906101000a900460ff1681565b6000600f60009054906101000a900460ff16905090565b611599611593612ab4565b82612d2c565b6115d8576040517f08c379a00000000000000000000000000000000000000000000000000000000081526004016115cf90614a73565b60405180910390fd5b6115f333838360405180602001604052806000815250613071565b5050565b611612838383604051806020016040528060008152506125c1565b505050565b61161f612ab4565b73ffffffffffffffffffffffffffffffffffffffff1661163d612087565b73ffffffffffffffffffffffffffffffffffffffff1614611693576040517f08c379a000000000000000000000000000000000000000000000000000000000815260040161168a90614b53565b60405180910390fd5b80600d90805190602001906116a9929190613c98565b5050565b6116b5612ab4565b73ffffffffffffffffffffffffffffffffffffffff166116d3612087565b73ffffffffffffffffffffffffffffffffffffffff1614611729576040517f08c379a000000000000000000000000000000000000000000000000000000000815260040161172090614b53565b60405180910390fd5b60008151141561176e576040517f08c379a000000000000000000000000000000000000000000000000000000000815260040161176590614a33565b60405180910390fd5b60005b81518110156119d557600073ffffffffffffffffffffffffffffffffffffffff168282815181106117cb577f4e487b7100000000000000000000000000000000000000000000000000000000600052603260045260246000fd5b602002602001015173ffffffffffffffffffffffffffffffffffffffff16141580156118815750600c600083838151811061182f577f4e487b7100000000000000000000000000000000000000000000000000000000600052603260045260246000fd5b602002602001015173ffffffffffffffffffffffffffffffffffffffff1673ffffffffffffffffffffffffffffffffffffffff16815260200190815260200160002060009054906101000a900460ff16155b156119c257600b8282815181106118c1577f4e487b7100000000000000000000000000000000000000000000000000000000600052603260045260246000fd5b60200260200101519080600181540180825580915050600190039060005260206000200160009091909190916101000a81548173ffffffffffffffffffffffffffffffffffffffff021916908373ffffffffffffffffffffffffffffffffffffffff1602179055506001600c6000848481518110611968577f4e487b7100000000000000000000000000000000000000000000000000000000600052603260045260246000fd5b602002602001015173ffffffffffffffffffffffffffffffffffffffff1673ffffffffffffffffffffffffffffffffffffffff16815260200190815260200160002060006101000a81548160ff0219169083151502179055505b80806119cd90614fea565b915050611771565b5050565b606060008060005b601060003373ffffffffffffffffffffffffffffffffffffffff1673ffffffffffffffffffffffffffffffffffffffff16815260200190815260200160002080549050811015611b0a573373ffffffffffffffffffffffffffffffffffffffff16611acc601060003373ffffffffffffffffffffffffffffffffffffffff1673ffffffffffffffffffffffffffffffffffffffff1681526020019081526020016000208381548110611abc577f4e487b7100000000000000000000000000000000000000000000000000000000600052603260045260246000fd5b9060005260206000200154611d87565b73ffffffffffffffffffffffffffffffffffffffff161415611af7578280611af390614fea565b9350505b8080611b0290614fea565b9150506119e1565b5060008267ffffffffffffffff811115611b4d577f4e487b7100000000000000000000000000000000000000000000000000000000600052604160045260246000fd5b604051908082528060200260200182016040528015611b8057816020015b6060815260200190600190039081611b6b5790505b50905060005b601060003373ffffffffffffffffffffffffffffffffffffffff1673ffffffffffffffffffffffffffffffffffffffff16815260200190815260200160002080549050811015611d7d573373ffffffffffffffffffffffffffffffffffffffff16611c71601060003373ffffffffffffffffffffffffffffffffffffffff1673ffffffffffffffffffffffffffffffffffffffff1681526020019081526020016000208381548110611c61577f4e487b7100000000000000000000000000000000000000000000000000000000600052603260045260246000fd5b9060005260206000200154611d87565b73ffffffffffffffffffffffffffffffffffffffff161415611d6a57611d17601060003373ffffffffffffffffffffffffffffffffffffffff1673ffffffffffffffffffffffffffffffffffffffff1681526020019081526020016000208281548110611d07577f4e487b7100000000000000000000000000000000000000000000000000000000600052603260045260246000fd5b90600052602060002001546126c1565b828481518110611d50577f4e487b7100000000000000000000000000000000000000000000000000000000600052603260045260246000fd5b60200260200101819052508280611d6690614fea565b9350505b8080611d7590614fea565b915050611b86565b5080935050505090565b6000806004600084815260200190815260200160002060009054906101000a900473ffffffffffffffffffffffffffffffffffffffff169050600073ffffffffffffffffffffffffffffffffffffffff168173ffffffffffffffffffffffffffffffffffffffff161415611e30576040517f08c379a0000000000000000000000000000000000000000000000000000000008152600401611e2790614ab3565b60405180910390fd5b80915050919050565b60008073ffffffffffffffffffffffffffffffffffffffff168273ffffffffffffffffffffffffffffffffffffffff161415611eaa576040517f08c379a0000000000000000000000000000000000000000000000000000000008152600401611ea190614a93565b60405180910390fd5b600560008373ffffffffffffffffffffffffffffffffffffffff1673ffffffffffffffffffffffffffffffffffffffff168152602001908152602001600020549050919050565b611ef9612ab4565b73ffffffffffffffffffffffffffffffffffffffff16611f17612087565b73ffffffffffffffffffffffffffffffffffffffff1614611f6d576040517f08c379a0000000000000000000000000000000000000000000000000000000008152600401611f6490614b53565b60405180910390fd5b611f7760006130cd565b565b611f81612ab4565b73ffffffffffffffffffffffffffffffffffffffff16611f9f612087565b73ffffffffffffffffffffffffffffffffffffffff1614611ff5576040517f08c379a0000000000000000000000000000000000000000000000000000000008152600401611fec90614b53565b60405180910390fd5b80600f60006101000a81548160ff02191690836002811115612040577f4e487b7100000000000000000000000000000000000000000000000000000000600052602160045260246000fd5b021790555050565b600b818154811061205857600080fd5b906000526020600020016000915054906101000a900473ffffffffffffffffffffffffffffffffffffffff1681565b6000600860009054906101000a900473ffffffffffffffffffffffffffffffffffffffff16905090565b6060600180546120c090614f87565b80601f01602080910402602001604051908101604052809291908181526020018280546120ec90614f87565b80156121395780601f1061210e57610100808354040283529160200191612139565b820191906000526020600020905b81548152906001019060200180831161211c57829003601f168201915b5050505050905090565b6092811115612187576040517f08c379a000000000000000000000000000000000000000000000000000000000815260040161217e90614913565b60405180910390fd5b600060028111156121c1577f4e487b7100000000000000000000000000000000000000000000000000000000600052602160045260246000fd5b600f60009054906101000a900460ff166002811115612209577f4e487b7100000000000000000000000000000000000000000000000000000000600052602160045260246000fd5b141561221457600080fd5b6001600281111561224e577f4e487b7100000000000000000000000000000000000000000000000000000000600052602160045260246000fd5b600f60009054906101000a900460ff166002811115612296577f4e487b7100000000000000000000000000000000000000000000000000000000600052602160045260246000fd5b1415612385576122b68166f8b0a10e47000061319390919063ffffffff16565b3410156122f8576040517f08c379a00000000000000000000000000000000000000000000000000000000081526004016122ef906149f3565b60405180910390fd5b600c60003373ffffffffffffffffffffffffffffffffffffffff1673ffffffffffffffffffffffffffffffffffffffff16815260200190815260200160002060009054906101000a900460ff16612384576040517f08c379a000000000000000000000000000000000000000000000000000000000815260040161237b90614973565b60405180910390fd5b5b6002808111156123be577f4e487b7100000000000000000000000000000000000000000000000000000000600052602160045260246000fd5b600f60009054906101000a900460ff166002811115612406577f4e487b7100000000000000000000000000000000000000000000000000000000600052602160045260246000fd5b141561246a576124278167013fbe85edc9000061319390919063ffffffff16565b341015612469576040517f08c379a0000000000000000000000000000000000000000000000000000000008152600401612460906149f3565b60405180910390fd5b5b612472612087565b73ffffffffffffffffffffffffffffffffffffffff166108fc349081150290604051600060405180830381858888f193505050501580156124b7573d6000803e3d6000fd5b5060006124c433836131a9565b905060005b815181101561258b57601060003373ffffffffffffffffffffffffffffffffffffffff1673ffffffffffffffffffffffffffffffffffffffff16815260200190815260200160002082828151811061254a577f4e487b7100000000000000000000000000000000000000000000000000000000600052603260045260246000fd5b60200260200101519080600181540180825580915050600190039060005260206000200160009091909190915055808061258390614fea565b9150506124c9565b505050565b6125a261259b612ab4565b8383613482565b5050565b67013fbe85edc9000081565b600066f8b0a10e470000905090565b6125d26125cc612ab4565b83612d2c565b612611576040517f08c379a000000000000000000000000000000000000000000000000000000000815260040161260890614bd3565b60405180910390fd5b61261d84848484613071565b50505050565b600067013fbe85edc90000905090565b600e805461264090614f87565b80601f016020809104026020016040519081016040528092919081815260200182805461266c90614f87565b80156126b95780601f1061268e576101008083540402835291602001916126b9565b820191906000526020600020905b81548152906001019060200180831161269c57829003601f168201915b505050505081565b60606126cc82612a48565b61270b576040517f08c379a000000000000000000000000000000000000000000000000000000000815260040161270290614b73565b60405180910390fd5b60006127156135ef565b905060008151116127355760405180602001604052806000815250612763565b8061273f8461372c565b600e60405160200161275393929190614763565b6040516020818303038152906040525b915050919050565b600d805461277890614f87565b80601f01602080910402602001604051908101604052809291908181526020018280546127a490614f87565b80156127f15780601f106127c6576101008083540402835291602001916127f1565b820191906000526020600020905b8154815290600101906020018083116127d457829003601f168201915b505050505081565b60007f0000000000000000000000000000000000000000000000000000000000000000905090565b6000600760008473ffffffffffffffffffffffffffffffffffffffff1673ffffffffffffffffffffffffffffffffffffffff16815260200190815260200160002060008373ffffffffffffffffffffffffffffffffffffffff1673ffffffffffffffffffffffffffffffffffffffff16815260200190815260200160002060009054906101000a900460ff16905092915050565b6128bd612ab4565b73ffffffffffffffffffffffffffffffffffffffff166128db612087565b73ffffffffffffffffffffffffffffffffffffffff1614612931576040517f08c379a000000000000000000000000000000000000000000000000000000000815260040161292890614b53565b60405180910390fd5b600073ffffffffffffffffffffffffffffffffffffffff168173ffffffffffffffffffffffffffffffffffffffff1614156129a1576040517f08c379a000000000000000000000000000000000000000000000000000000000815260040161299890614933565b60405180910390fd5b6129aa816130cd565b50565b601060205281600052604060002081815481106129c957600080fd5b90600052602060002001600091509150505481565b60007f01ffc9a7000000000000000000000000000000000000000000000000000000007bffffffffffffffffffffffffffffffffffffffffffffffffffffffff1916827bffffffffffffffffffffffffffffffffffffffffffffffffffffffff1916149050919050565b60008073ffffffffffffffffffffffffffffffffffffffff166004600084815260200190815260200160002060009054906101000a900473ffffffffffffffffffffffffffffffffffffffff1673ffffffffffffffffffffffffffffffffffffffff1614159050919050565b600033905090565b816006600083815260200190815260200160002060006101000a81548173ffffffffffffffffffffffffffffffffffffffff021916908373ffffffffffffffffffffffffffffffffffffffff160217905550808273ffffffffffffffffffffffffffffffffffffffff16612b2f83611d87565b73ffffffffffffffffffffffffffffffffffffffff167f8c5be1e5ebec7d5bd14f71427d1e84f3dd0314c0f7b2291e5b200ac8c7c3b92560405160405180910390a45050565b3273ffffffffffffffffffffffffffffffffffffffff16612b94612ab4565b73ffffffffffffffffffffffffffffffffffffffff1614612bea576040517f08c379a0000000000000000000000000000000000000000000000000000000008152600401612be190614993565b60405180910390fd5b600073ffffffffffffffffffffffffffffffffffffffff168273ffffffffffffffffffffffffffffffffffffffff161415612c5a576040517f08c379a0000000000000000000000000000000000000000000000000000000008152600401612c5190614af3565b60405180910390fd5b60016003541015612ca0576040517f08c379a0000000000000000000000000000000000000000000000000000000008152600401612c9790614b13565b60405180910390fd5b6000612cae826003546138d9565b9050600360008154612cbf90614f5d565b91905081905550612cd0838261399c565b6001600560008573ffffffffffffffffffffffffffffffffffffffff1673ffffffffffffffffffffffffffffffffffffffff1681526020019081526020016000206000828254612d209190614d63565b92505081905550505050565b6000612d3782612a48565b612d76576040517f08c379a0000000000000000000000000000000000000000000000000000000008152600401612d6d90614a13565b60405180910390fd5b6000612d8183611d87565b90508073ffffffffffffffffffffffffffffffffffffffff168473ffffffffffffffffffffffffffffffffffffffff161480612df057508373ffffffffffffffffffffffffffffffffffffffff16612dd884610a21565b73ffffffffffffffffffffffffffffffffffffffff16145b80612e015750612e008185612821565b5b91505092915050565b8273ffffffffffffffffffffffffffffffffffffffff16612e2a82611d87565b73ffffffffffffffffffffffffffffffffffffffff1614612e80576040517f08c379a0000000000000000000000000000000000000000000000000000000008152600401612e7790614953565b60405180910390fd5b600073ffffffffffffffffffffffffffffffffffffffff168273ffffffffffffffffffffffffffffffffffffffff161415612ef0576040517f08c379a0000000000000000000000000000000000000000000000000000000008152600401612ee7906149b3565b60405180910390fd5b612efb838383613a66565b612f06600082612abc565b6001600560008573ffffffffffffffffffffffffffffffffffffffff1673ffffffffffffffffffffffffffffffffffffffff1681526020019081526020016000206000828254612f569190614e44565b925050819055506001600560008473ffffffffffffffffffffffffffffffffffffffff1673ffffffffffffffffffffffffffffffffffffffff1681526020019081526020016000206000828254612fad9190614d63565b92505081905550816004600083815260200190815260200160002060006101000a81548173ffffffffffffffffffffffffffffffffffffffff021916908373ffffffffffffffffffffffffffffffffffffffff160217905550808273ffffffffffffffffffffffffffffffffffffffff168473ffffffffffffffffffffffffffffffffffffffff167fddf252ad1be2c89b69c2b068fc378daa952ba7f163c4a11628f55a4df523b3ef60405160405180910390a461306c838383613a6b565b505050565b61307c848484612e0a565b61308884848484613a70565b6130c7576040517f08c379a00000000000000000000000000000000000000000000000000000000081526004016130be906148f3565b60405180910390fd5b50505050565b6000600860009054906101000a900473ffffffffffffffffffffffffffffffffffffffff16905081600860006101000a81548173ffffffffffffffffffffffffffffffffffffffff021916908373ffffffffffffffffffffffffffffffffffffffff1602179055508173ffffffffffffffffffffffffffffffffffffffff168173ffffffffffffffffffffffffffffffffffffffff167f8be0079c531659141344cd1fd0a4f28419497f9722a3daafe3b4186f6b6457e060405160405180910390a35050565b600081836131a19190614dea565b905092915050565b60603273ffffffffffffffffffffffffffffffffffffffff166131ca612ab4565b73ffffffffffffffffffffffffffffffffffffffff1614613220576040517f08c379a000000000000000000000000000000000000000000000000000000000815260040161321790614993565b60405180910390fd5b600073ffffffffffffffffffffffffffffffffffffffff168373ffffffffffffffffffffffffffffffffffffffff161415613290576040517f08c379a000000000000000000000000000000000000000000000000000000000815260040161328790614af3565b60405180910390fd5b600082116132d3576040517f08c379a00000000000000000000000000000000000000000000000000000000081526004016132ca90614bb3565b60405180910390fd5b816003541015613318576040517f08c379a000000000000000000000000000000000000000000000000000000000815260040161330f90614b13565b60405180910390fd5b6000600354905060008367ffffffffffffffff811115613361577f4e487b7100000000000000000000000000000000000000000000000000000000600052604160045260246000fd5b60405190808252806020026020018201604052801561338f5781602001602082028036833780820191505090505b50905060005b848110156134195760006133a98785613c07565b90506133b5878261399c565b808383815181106133ef577f4e487b7100000000000000000000000000000000000000000000000000000000600052603260045260246000fd5b6020026020010181815250508361340590614f5d565b9350508061341290614fea565b9050613395565b508160038190555083600560008773ffffffffffffffffffffffffffffffffffffffff1673ffffffffffffffffffffffffffffffffffffffff16815260200190815260200160002060008282546134709190614d63565b92505081905550809250505092915050565b8173ffffffffffffffffffffffffffffffffffffffff168373ffffffffffffffffffffffffffffffffffffffff1614156134f1576040517f08c379a00000000000000000000000000000000000000000000000000000000081526004016134e8906149d3565b60405180910390fd5b80600760008573ffffffffffffffffffffffffffffffffffffffff1673ffffffffffffffffffffffffffffffffffffffff16815260200190815260200160002060008473ffffffffffffffffffffffffffffffffffffffff1673ffffffffffffffffffffffffffffffffffffffff16815260200190815260200160002060006101000a81548160ff0219169083151502179055508173ffffffffffffffffffffffffffffffffffffffff168373ffffffffffffffffffffffffffffffffffffffff167f17307eab39ab6107e8899845ad3d59bd9653f200f220920489ca2b5937696c31836040516135e2919061489b565b60405180910390a3505050565b606062127500600a546136029190614d63565b42111561369b57600d805461361690614f87565b80601f016020809104026020016040519081016040528092919081815260200182805461364290614f87565b801561368f5780601f106136645761010080835404028352916020019161368f565b820191906000526020600020905b81548152906001019060200180831161367257829003601f168201915b50505050509050613729565b600980546136a890614f87565b80601f01602080910402602001604051908101604052809291908181526020018280546136d490614f87565b80156137215780601f106136f657610100808354040283529160200191613721565b820191906000526020600020905b81548152906001019060200180831161370457829003601f168201915b505050505090505b90565b60606000821415613774576040518060400160405280600181526020017f300000000000000000000000000000000000000000000000000000000000000081525090506138d4565b600082905060005b600082146137a657808061378f90614fea565b915050600a8261379f9190614db9565b915061377c565b60008167ffffffffffffffff8111156137e8577f4e487b7100000000000000000000000000000000000000000000000000000000600052604160045260246000fd5b6040519080825280601f01601f19166020018201604052801561381a5781602001600182028036833780820191505090505b5090505b600085146138cd576001826138339190614e44565b9150600a856138429190615033565b603061384e9190614d63565b60f81b81838151811061388a577f4e487b7100000000000000000000000000000000000000000000000000000000600052603260045260246000fd5b60200101907effffffffffffffffffffffffffffffffffffffffffffffffffffffffffffff1916908160001a905350600a856138c69190614db9565b945061381e565b8093505050505b919050565b6000806002600085815260200190815260200160002054905060008082141561390457849050613908565b8190505b60006001856139179190614e44565b905080861461399057600060026000838152602001908152602001600020549050600081141561395e5781600260008981526020019081526020016000208190555061398e565b80600260008981526020019081526020016000208190555060026000838152602001908152602001600020600090555b505b81935050505092915050565b6139a860008383613a66565b816004600083815260200190815260200160002060006101000a81548173ffffffffffffffffffffffffffffffffffffffff021916908373ffffffffffffffffffffffffffffffffffffffff160217905550808273ffffffffffffffffffffffffffffffffffffffff16600073ffffffffffffffffffffffffffffffffffffffff167fddf252ad1be2c89b69c2b068fc378daa952ba7f163c4a11628f55a4df523b3ef60405160405180910390a4613a6260008383613a6b565b5050565b505050565b505050565b6000613a918473ffffffffffffffffffffffffffffffffffffffff16613c75565b15613bfa578373ffffffffffffffffffffffffffffffffffffffff1663150b7a02613aba612ab4565b8786866040518563ffffffff1660e01b8152600401613adc94939291906147af565b602060405180830381600087803b158015613af657600080fd5b505af1925050508015613b2757506040513d601f19601f82011682018060405250810190613b249190614130565b60015b613baa573d8060008114613b57576040519150601f19603f3d011682016040523d82523d6000602084013e613b5c565b606091505b50600081511415613ba2576040517f08c379a0000000000000000000000000000000000000000000000000000000008152600401613b99906148f3565b60405180910390fd5b805181602001fd5b63150b7a0260e01b7bffffffffffffffffffffffffffffffffffffffffffffffffffffffff1916817bffffffffffffffffffffffffffffffffffffffffffffffffffffffff191614915050613bff565b600190505b949350505050565b600080833a434244600143613c1c9190614e44565b403089604051602001613c369897969594939291906147fb565b6040516020818303038152906040528051906020012060001c905060008382613c5f9190615033565b9050613c6b81856138d9565b9250505092915050565b6000808273ffffffffffffffffffffffffffffffffffffffff163b119050919050565b828054613ca490614f87565b90600052602060002090601f016020900481019282613cc65760008555613d0d565b82601f10613cdf57805160ff1916838001178555613d0d565b82800160010185558215613d0d579182015b82811115613d0c578251825591602001919060010190613cf1565b5b509050613d1a9190613d1e565b5090565b5b80821115613d37576000816000905550600101613d1f565b5090565b6000613d4e613d4984614c33565b614c0e565b90508083825260208201905082856020860282011115613d6d57600080fd5b60005b85811015613d9d5781613d838882613e23565b845260208401935060208301925050600181019050613d70565b5050509392505050565b6000613dba613db584614c5f565b614c0e565b905082815260208101848484011115613dd257600080fd5b613ddd848285614f1b565b509392505050565b6000613df8613df384614c90565b614c0e565b905082815260208101848484011115613e1057600080fd5b613e1b848285614f1b565b509392505050565b600081359050613e32816157ac565b92915050565b600082601f830112613e4957600080fd5b8135613e59848260208601613d3b565b91505092915050565b600081359050613e71816157c3565b92915050565b600081359050613e86816157da565b92915050565b600081519050613e9b816157da565b92915050565b600082601f830112613eb257600080fd5b8135613ec2848260208601613da7565b91505092915050565b600081359050613eda816157f1565b92915050565b600082601f830112613ef157600080fd5b8135613f01848260208601613de5565b91505092915050565b600081359050613f1981615801565b92915050565b600060208284031215613f3157600080fd5b6000613f3f84828501613e23565b91505092915050565b60008060408385031215613f5b57600080fd5b6000613f6985828601613e23565b9250506020613f7a85828601613e23565b9150509250929050565b600080600060608486031215613f9957600080fd5b6000613fa786828701613e23565b9350506020613fb886828701613e23565b9250506040613fc986828701613f0a565b9150509250925092565b60008060008060808587031215613fe957600080fd5b6000613ff787828801613e23565b945050602061400887828801613e23565b935050604061401987828801613f0a565b925050606085013567ffffffffffffffff81111561403657600080fd5b61404287828801613ea1565b91505092959194509250565b6000806040838503121561406157600080fd5b600061406f85828601613e23565b925050602061408085828601613e62565b9150509250929050565b6000806040838503121561409d57600080fd5b60006140ab85828601613e23565b92505060206140bc85828601613f0a565b9150509250929050565b6000602082840312156140d857600080fd5b600082013567ffffffffffffffff8111156140f257600080fd5b6140fe84828501613e38565b91505092915050565b60006020828403121561411957600080fd5b600061412784828501613e77565b91505092915050565b60006020828403121561414257600080fd5b600061415084828501613e8c565b91505092915050565b60006020828403121561416b57600080fd5b600061417984828501613ecb565b91505092915050565b60006020828403121561419457600080fd5b600082013567ffffffffffffffff8111156141ae57600080fd5b6141ba84828501613ee0565b91505092915050565b6000602082840312156141d557600080fd5b60006141e384828501613f0a565b91505092915050565b60006141f883836142ea565b905092915050565b61420981614e78565b82525050565b600061421a82614ce6565b6142248185614d14565b93508360208202850161423685614cc1565b8060005b85811015614272578484038952815161425385826141ec565b945061425e83614d07565b925060208a0199505060018101905061423a565b50829750879550505050505092915050565b61428d81614e8a565b82525050565b61429c81614e96565b82525050565b60006142ad82614cf1565b6142b78185614d25565b93506142c7818560208601614f2a565b6142d08161514f565b840191505092915050565b6142e481614f09565b82525050565b60006142f582614cfc565b6142ff8185614d36565b935061430f818560208601614f2a565b6143188161514f565b840191505092915050565b600061432e82614cfc565b6143388185614d47565b9350614348818560208601614f2a565b6143518161514f565b840191505092915050565b600061436782614cfc565b6143718185614d58565b9350614381818560208601614f2a565b80840191505092915050565b6000815461439a81614f87565b6143a48186614d58565b945060018216600081146143bf57600181146143d057614403565b60ff19831686528186019350614403565b6143d985614cd1565b60005b838110156143fb578154818901526001820191506020810190506143dc565b838801955050505b50505092915050565b6000614419603283614d47565b915061442482615160565b604082019050919050565b600061443c601e83614d47565b9150614447826151af565b602082019050919050565b600061445f602683614d47565b915061446a826151d8565b604082019050919050565b6000614482602583614d47565b915061448d82615227565b604082019050919050565b60006144a5601683614d47565b91506144b082615276565b602082019050919050565b60006144c8601583614d47565b91506144d38261529f565b602082019050919050565b60006144eb602483614d47565b91506144f6826152c8565b604082019050919050565b600061450e601983614d47565b915061451982615317565b602082019050919050565b6000614531602283614d47565b915061453c82615340565b604082019050919050565b6000614554602c83614d47565b915061455f8261538f565b604082019050919050565b6000614577602083614d47565b9150614582826153de565b602082019050919050565b600061459a603883614d47565b91506145a582615407565b604082019050919050565b60006145bd603083614d47565b91506145c882615456565b604082019050919050565b60006145e0602a83614d47565b91506145eb826154a5565b604082019050919050565b6000614603602983614d47565b915061460e826154f4565b604082019050919050565b6000614626602083614d47565b915061463182615543565b602082019050919050565b6000614649602083614d47565b91506146548261556c565b602082019050919050565b600061466c602b83614d47565b915061467782615595565b604082019050919050565b600061468f602c83614d47565b915061469a826155e4565b604082019050919050565b60006146b2602083614d47565b91506146bd82615633565b602082019050919050565b60006146d5602f83614d47565b91506146e08261565c565b604082019050919050565b60006146f8602183614d47565b9150614703826156ab565b604082019050919050565b600061471b602883614d47565b9150614726826156fa565b604082019050919050565b600061473e603183614d47565b915061474982615749565b604082019050919050565b61475d81614eff565b82525050565b600061476f828661435c565b915061477b828561435c565b9150614787828461438d565b9150819050949350505050565b60006020820190506147a96000830184614200565b92915050565b60006080820190506147c46000830187614200565b6147d16020830186614200565b6147de6040830185614754565b81810360608301526147f081846142a2565b905095945050505050565b600061010082019050614811600083018b614200565b61481e602083018a614754565b61482b6040830189614754565b6148386060830188614754565b6148456080830187614754565b61485260a0830186614293565b61485f60c0830185614200565b61486c60e0830184614754565b9998505050505050505050565b60006020820190508181036000830152614893818461420f565b905092915050565b60006020820190506148b06000830184614284565b92915050565b60006020820190506148cb60008301846142db565b92915050565b600060208201905081810360008301526148eb8184614323565b905092915050565b6000602082019050818103600083015261490c8161440c565b9050919050565b6000602082019050818103600083015261492c8161442f565b9050919050565b6000602082019050818103600083015261494c81614452565b9050919050565b6000602082019050818103600083015261496c81614475565b9050919050565b6000602082019050818103600083015261498c81614498565b9050919050565b600060208201905081810360008301526149ac816144bb565b9050919050565b600060208201905081810360008301526149cc816144de565b9050919050565b600060208201905081810360008301526149ec81614501565b9050919050565b60006020820190508181036000830152614a0c81614524565b9050919050565b60006020820190508181036000830152614a2c81614547565b9050919050565b60006020820190508181036000830152614a4c8161456a565b9050919050565b60006020820190508181036000830152614a6c8161458d565b9050919050565b60006020820190508181036000830152614a8c816145b0565b9050919050565b60006020820190508181036000830152614aac816145d3565b9050919050565b60006020820190508181036000830152614acc816145f6565b9050919050565b60006020820190508181036000830152614aec81614619565b9050919050565b60006020820190508181036000830152614b0c8161463c565b9050919050565b60006020820190508181036000830152614b2c8161465f565b9050919050565b60006020820190508181036000830152614b4c81614682565b9050919050565b60006020820190508181036000830152614b6c816146a5565b9050919050565b60006020820190508181036000830152614b8c816146c8565b9050919050565b60006020820190508181036000830152614bac816146eb565b9050919050565b60006020820190508181036000830152614bcc8161470e565b9050919050565b60006020820190508181036000830152614bec81614731565b9050919050565b6000602082019050614c086000830184614754565b92915050565b6000614c18614c29565b9050614c248282614fb9565b919050565b6000604051905090565b600067ffffffffffffffff821115614c4e57614c4d615120565b5b602082029050602081019050919050565b600067ffffffffffffffff821115614c7a57614c79615120565b5b614c838261514f565b9050602081019050919050565b600067ffffffffffffffff821115614cab57614caa615120565b5b614cb48261514f565b9050602081019050919050565b6000819050602082019050919050565b60008190508160005260206000209050919050565b600081519050919050565b600081519050919050565b600081519050919050565b6000602082019050919050565b600082825260208201905092915050565b600082825260208201905092915050565b600082825260208201905092915050565b600082825260208201905092915050565b600081905092915050565b6000614d6e82614eff565b9150614d7983614eff565b9250827fffffffffffffffffffffffffffffffffffffffffffffffffffffffffffffffff03821115614dae57614dad615064565b5b828201905092915050565b6000614dc482614eff565b9150614dcf83614eff565b925082614ddf57614dde615093565b5b828204905092915050565b6000614df582614eff565b9150614e0083614eff565b9250817fffffffffffffffffffffffffffffffffffffffffffffffffffffffffffffffff0483118215151615614e3957614e38615064565b5b828202905092915050565b6000614e4f82614eff565b9150614e5a83614eff565b925082821015614e6d57614e6c615064565b5b828203905092915050565b6000614e8382614edf565b9050919050565b60008115159050919050565b6000819050919050565b60007fffffffff0000000000000000000000000000000000000000000000000000000082169050919050565b6000819050614eda82615798565b919050565b600073ffffffffffffffffffffffffffffffffffffffff82169050919050565b6000819050919050565b6000614f1482614ecc565b9050919050565b82818337600083830152505050565b60005b83811015614f48578082015181840152602081019050614f2d565b83811115614f57576000848401525b50505050565b6000614f6882614eff565b91506000821415614f7c57614f7b615064565b5b600182039050919050565b60006002820490506001821680614f9f57607f821691505b60208210811415614fb357614fb26150f1565b5b50919050565b614fc28261514f565b810181811067ffffffffffffffff82111715614fe157614fe0615120565b5b80604052505050565b6000614ff582614eff565b91507fffffffffffffffffffffffffffffffffffffffffffffffffffffffffffffffff82141561502857615027615064565b5b600182019050919050565b600061503e82614eff565b915061504983614eff565b92508261505957615058615093565b5b828206905092915050565b7f4e487b7100000000000000000000000000000000000000000000000000000000600052601160045260246000fd5b7f4e487b7100000000000000000000000000000000000000000000000000000000600052601260045260246000fd5b7f4e487b7100000000000000000000000000000000000000000000000000000000600052602160045260246000fd5b7f4e487b7100000000000000000000000000000000000000000000000000000000600052602260045260246000fd5b7f4e487b7100000000000000000000000000000000000000000000000000000000600052604160045260246000fd5b6000601f19601f8301169050919050565b7f4552433732313a207472616e7366657220746f206e6f6e20455243373231526560008201527f63656976657220696d706c656d656e7465720000000000000000000000000000602082015250565b7f596f752068617665206578636565646564206d617820706572206d696e740000600082015250565b7f4f776e61626c653a206e6577206f776e657220697320746865207a65726f206160008201527f6464726573730000000000000000000000000000000000000000000000000000602082015250565b7f4552433732313a207472616e736665722066726f6d20696e636f72726563742060008201527f6f776e6572000000000000000000000000000000000000000000000000000000602082015250565b7f596f75277265206e6f742077686974656c697374656400000000000000000000600082015250565b7f436f6e7472616374732063616e6e6f74206d696e740000000000000000000000600082015250565b7f4552433732313a207472616e7366657220746f20746865207a65726f2061646460008201527f7265737300000000000000000000000000000000000000000000000000000000602082015250565b7f4552433732313a20617070726f766520746f2063616c6c657200000000000000600082015250565b7f4e6f7420656e6f75676820657468657220746f207075726368617365204e465460008201527f732e000000000000000000000000000000000000000000000000000000000000602082015250565b7f4552433732313a206f70657261746f7220717565727920666f72206e6f6e657860008201527f697374656e7420746f6b656e0000000000000000000000000000000000000000602082015250565b7f6c697374206f662077686974656c69737420757365727320697320656d707479600082015250565b7f4552433732313a20617070726f76652063616c6c6572206973206e6f74206f7760008201527f6e6572206e6f7220617070726f76656420666f7220616c6c0000000000000000602082015250565b7f414f54413a3a536166655472616e736665723a207472616e736665722063616c60008201527f6c6572206973206e6f74206f776e657200000000000000000000000000000000602082015250565b7f4552433732313a2062616c616e636520717565727920666f7220746865207a6560008201527f726f206164647265737300000000000000000000000000000000000000000000602082015250565b7f4552433732313a206f776e657220717565727920666f72206e6f6e657869737460008201527f656e7420746f6b656e0000000000000000000000000000000000000000000000602082015250565b7f526573657276652068617320616c7265616479206265656e206d696e74656421600082015250565b7f4552433732313a206d696e7420746f20746865207a65726f2061646472657373600082015250565b7f455243373231723a206d696e74696e67206d6f726520746f6b656e732074686160008201527f6e20617661696c61626c65000000000000000000000000000000000000000000602082015250565b7f4552433732313a20617070726f76656420717565727920666f72206e6f6e657860008201527f697374656e7420746f6b656e0000000000000000000000000000000000000000602082015250565b7f4f776e61626c653a2063616c6c6572206973206e6f7420746865206f776e6572600082015250565b7f4552433732314d657461646174613a2055524920717565727920666f72206e6f60008201527f6e6578697374656e7420746f6b656e0000000000000000000000000000000000602082015250565b7f4552433732313a20617070726f76616c20746f2063757272656e74206f776e6560008201527f7200000000000000000000000000000000000000000000000000000000000000602082015250565b7f455243373231723a206e65656420746f206d696e74206174206c65617374206f60008201527f6e6520746f6b656e000000000000000000000000000000000000000000000000602082015250565b7f4552433732313a207472616e736665722063616c6c6572206973206e6f74206f60008201527f776e6572206e6f7220617070726f766564000000000000000000000000000000602082015250565b600381106157a9576157a86150c2565b5b50565b6157b581614e78565b81146157c057600080fd5b50565b6157cc81614e8a565b81146157d757600080fd5b50565b6157e381614ea0565b81146157ee57600080fd5b50565b600381106157fe57600080fd5b50565b61580a81614eff565b811461581557600080fd5b5056fea2646970667358221220969772fbb1065b4ac075ced2bc40f873f36d006d2677ddc98783bca0a3f6dbf764736f6c63430008040033",
  "linkReferences": {},
  "deployedLinkReferences": {}
}