{
  "_format": "hh-sol-artifact-1",
  "contractName": "ERC721r",
  "sourceName": "contracts/ERC721r.sol",
  "abi": [
    {
      "inputs": [
        {
          "internalType": "string",
          "name": "name_",
          "type": "string"
        },
        {
          "internalType": "string",
          "name": "symbol_",
          "type": "string"
        },
        {
          "internalType": "uint256",
          "name": "maxSupply_",
          "type": "uint256"
        }
      ],
      "stateMutability": "nonpayable",
      "type": "constructor"
    },
    {
      "anonymous": false,
      "inputs": [
        {
          "indexed": true,
          "internalType": "address",
          "name": "owner",
          "type": "address"
        },
        {
          "indexed": true,
          "internalType": "address",
          "name": "approved",
          "type": "address"
        },
        {
          "indexed": true,
          "internalType": "uint256",
          "name": "tokenId",
          "type": "uint256"
        }
      ],
      "name": "Approval",
      "type": "event"
    },
    {
      "anonymous": false,
      "inputs": [
        {
          "indexed": true,
          "internalType": "address",
          "name": "owner",
          "type": "address"
        },
        {
          "indexed": true,
          "internalType": "address",
          "name": "operator",
          "type": "address"
        },
        {
          "indexed": false,
          "internalType": "bool",
          "name": "approved",
          "type": "bool"
        }
      ],
      "name": "ApprovalForAll",
      "type": "event"
    },
    {
      "anonymous": false,
      "inputs": [
        {
          "indexed": true,
          "internalType": "address",
          "name": "from",
          "type": "address"
        },
        {
          "indexed": true,
          "internalType": "address",
          "name": "to",
          "type": "address"
        },
        {
          "indexed": true,
          "internalType": "uint256",
          "name": "tokenId",
          "type": "uint256"
        }
      ],
      "name": "Transfer",
      "type": "event"
    },
    {
      "inputs": [
        {
          "internalType": "address",
          "name": "to",
          "type": "address"
        },
        {
          "internalType": "uint256",
          "name": "tokenId",
          "type": "uint256"
        }
      ],
      "name": "approve",
      "outputs": [],
      "stateMutability": "nonpayable",
      "type": "function"
    },
    {
      "inputs": [
        {
          "internalType": "address",
          "name": "owner",
          "type": "address"
        }
      ],
      "name": "balanceOf",
      "outputs": [
        {
          "internalType": "uint256",
          "name": "",
          "type": "uint256"
        }
      ],
      "stateMutability": "view",
      "type": "function"
    },
    {
      "inputs": [
        {
          "internalType": "uint256",
          "name": "tokenId",
          "type": "uint256"
        }
      ],
      "name": "getApproved",
      "outputs": [
        {
          "internalType": "address",
          "name": "",
          "type": "address"
        }
      ],
      "stateMutability": "view",
      "type": "function"
    },
    {
      "inputs": [
        {
          "internalType": "address",
          "name": "owner",
          "type": "address"
        },
        {
          "internalType": "address",
          "name": "operator",
          "type": "address"
        }
      ],
      "name": "isApprovedForAll",
      "outputs": [
        {
          "internalType": "bool",
          "name": "",
          "type": "bool"
        }
      ],
      "stateMutability": "view",
      "type": "function"
    },
    {
      "inputs": [],
      "name": "maxSupply",
      "outputs": [
        {
          "internalType": "uint256",
          "name": "",
          "type": "uint256"
        }
      ],
      "stateMutability": "view",
      "type": "function"
    },
    {
      "inputs": [],
      "name": "name",
      "outputs": [
        {
          "internalType": "string",
          "name": "",
          "type": "string"
        }
      ],
      "stateMutability": "view",
      "type": "function"
    },
    {
      "inputs": [
        {
          "internalType": "uint256",
          "name": "tokenId",
          "type": "uint256"
        }
      ],
      "name": "ownerOf",
      "outputs": [
        {
          "internalType": "address",
          "name": "",
          "type": "address"
        }
      ],
      "stateMutability": "view",
      "type": "function"
    },
    {
      "inputs": [
        {
          "internalType": "address",
          "name": "from",
          "type": "address"
        },
        {
          "internalType": "address",
          "name": "to",
          "type": "address"
        },
        {
          "internalType": "uint256",
          "name": "tokenId",
          "type": "uint256"
        }
      ],
      "name": "safeTransferFrom",
      "outputs": [],
      "stateMutability": "nonpayable",
      "type": "function"
    },
    {
      "inputs": [
        {
          "internalType": "address",
          "name": "from",
          "type": "address"
        },
        {
          "internalType": "address",
          "name": "to",
          "type": "address"
        },
        {
          "internalType": "uint256",
          "name": "tokenId",
          "type": "uint256"
        },
        {
          "internalType": "bytes",
          "name": "_data",
          "type": "bytes"
        }
      ],
      "name": "safeTransferFrom",
      "outputs": [],
      "stateMutability": "nonpayable",
      "type": "function"
    },
    {
      "inputs": [
        {
          "internalType": "address",
          "name": "operator",
          "type": "address"
        },
        {
          "internalType": "bool",
          "name": "approved",
          "type": "bool"
        }
      ],
      "name": "setApprovalForAll",
      "outputs": [],
      "stateMutability": "nonpayable",
      "type": "function"
    },
    {
      "inputs": [
        {
          "internalType": "bytes4",
          "name": "interfaceId",
          "type": "bytes4"
        }
      ],
      "name": "supportsInterface",
      "outputs": [
        {
          "internalType": "bool",
          "name": "",
          "type": "bool"
        }
      ],
      "stateMutability": "view",
      "type": "function"
    },
    {
      "inputs": [],
      "name": "symbol",
      "outputs": [
        {
          "internalType": "string",
          "name": "",
          "type": "string"
        }
      ],
      "stateMutability": "view",
      "type": "function"
    },
    {
      "inputs": [
        {
          "internalType": "uint256",
          "name": "tokenId",
          "type": "uint256"
        }
      ],
      "name": "tokenURI",
      "outputs": [
        {
          "internalType": "string",
          "name": "",
          "type": "string"
        }
      ],
      "stateMutability": "view",
      "type": "function"
    },
    {
      "inputs": [],
      "name": "totalSupply",
      "outputs": [
        {
          "internalType": "uint256",
          "name": "",
          "type": "uint256"
        }
      ],
      "stateMutability": "view",
      "type": "function"
    },
    {
      "inputs": [
        {
          "internalType": "address",
          "name": "from",
          "type": "address"
        },
        {
          "internalType": "address",
          "name": "to",
          "type": "address"
        },
        {
          "internalType": "uint256",
          "name": "tokenId",
          "type": "uint256"
        }
      ],
      "name": "transferFrom",
      "outputs": [],
      "stateMutability": "nonpayable",
      "type": "function"
    }
  ],
  "bytecode": "0x60a06040523480156200001157600080fd5b506040516200287f3803806200287f8339818101604052810190620000379190620001ba565b82600090805190602001906200004f92919062000081565b5081600190805190602001906200006892919062000081565b50806080818152505080600381905550505050620003d6565b8280546200008f90620002e1565b90600052602060002090601f016020900481019282620000b35760008555620000ff565b82601f10620000ce57805160ff1916838001178555620000ff565b82800160010185558215620000ff579182015b82811115620000fe578251825591602001919060010190620000e1565b5b5090506200010e919062000112565b5090565b5b808211156200012d57600081600090555060010162000113565b5090565b60006200014862000142846200026b565b62000242565b9050828152602081018484840111156200016157600080fd5b6200016e848285620002ab565b509392505050565b600082601f8301126200018857600080fd5b81516200019a84826020860162000131565b91505092915050565b600081519050620001b481620003bc565b92915050565b600080600060608486031215620001d057600080fd5b600084015167ffffffffffffffff811115620001eb57600080fd5b620001f98682870162000176565b935050602084015167ffffffffffffffff8111156200021757600080fd5b620002258682870162000176565b92505060406200023886828701620001a3565b9150509250925092565b60006200024e62000261565b90506200025c828262000317565b919050565b6000604051905090565b600067ffffffffffffffff8211156200028957620002886200037c565b5b6200029482620003ab565b9050602081019050919050565b6000819050919050565b60005b83811015620002cb578082015181840152602081019050620002ae565b83811115620002db576000848401525b50505050565b60006002820490506001821680620002fa57607f821691505b602082108114156200031157620003106200034d565b5b50919050565b6200032282620003ab565b810181811067ffffffffffffffff821117156200034457620003436200037c565b5b80604052505050565b7f4e487b7100000000000000000000000000000000000000000000000000000000600052602260045260246000fd5b7f4e487b7100000000000000000000000000000000000000000000000000000000600052604160045260246000fd5b6000601f19601f8301169050919050565b620003c781620002a1565b8114620003d357600080fd5b50565b608051612486620003f9600039600081816106360152610a0301526124866000f3fe608060405234801561001057600080fd5b50600436106100f55760003560e01c80636352211e11610097578063b88d4fde11610066578063b88d4fde14610284578063c87b56dd146102a0578063d5abeb01146102d0578063e985e9c5146102ee576100f5565b80636352211e146101ea57806370a082311461021a57806395d89b411461024a578063a22cb46514610268576100f5565b8063095ea7b3116100d3578063095ea7b31461017857806318160ddd1461019457806323b872dd146101b257806342842e0e146101ce576100f5565b806301ffc9a7146100fa57806306fdde031461012a578063081812fc14610148575b600080fd5b610114600480360381019061010f9190611760565b61031e565b6040516101219190611ada565b60405180910390f35b610132610400565b60405161013f9190611af5565b60405180910390f35b610162600480360381019061015d91906117b2565b610492565b60405161016f9190611a73565b60405180910390f35b610192600480360381019061018d9190611724565b610517565b005b61019c61062f565b6040516101a99190611c97565b60405180910390f35b6101cc60048036038101906101c7919061161e565b610664565b005b6101e860048036038101906101e3919061161e565b6106c4565b005b61020460048036038101906101ff91906117b2565b6106e4565b6040516102119190611a73565b60405180910390f35b610234600480360381019061022f91906115b9565b610796565b6040516102419190611c97565b60405180910390f35b61025261084e565b60405161025f9190611af5565b60405180910390f35b610282600480360381019061027d91906116e8565b6108e0565b005b61029e6004803603810190610299919061166d565b6108f6565b005b6102ba60048036038101906102b591906117b2565b610958565b6040516102c79190611af5565b60405180910390f35b6102d86109ff565b6040516102e59190611c97565b60405180910390f35b610308600480360381019061030391906115e2565b610a27565b6040516103159190611ada565b60405180910390f35b60007f80ac58cd000000000000000000000000000000000000000000000000000000007bffffffffffffffffffffffffffffffffffffffffffffffffffffffff1916827bffffffffffffffffffffffffffffffffffffffffffffffffffffffff191614806103e957507f5b5e139f000000000000000000000000000000000000000000000000000000007bffffffffffffffffffffffffffffffffffffffffffffffffffffffff1916827bffffffffffffffffffffffffffffffffffffffffffffffffffffffff1916145b806103f957506103f882610abb565b5b9050919050565b60606000805461040f90611ebc565b80601f016020809104026020016040519081016040528092919081815260200182805461043b90611ebc565b80156104885780601f1061045d57610100808354040283529160200191610488565b820191906000526020600020905b81548152906001019060200180831161046b57829003601f168201915b5050505050905090565b600061049d82610b25565b6104dc576040517f08c379a00000000000000000000000000000000000000000000000000000000081526004016104d390611c17565b60405180910390fd5b6006600083815260200190815260200160002060009054906101000a900473ffffffffffffffffffffffffffffffffffffffff169050919050565b6000610522826106e4565b90508073ffffffffffffffffffffffffffffffffffffffff168373ffffffffffffffffffffffffffffffffffffffff161415610593576040517f08c379a000000000000000000000000000000000000000000000000000000000815260040161058a90611c57565b60405180910390fd5b8073ffffffffffffffffffffffffffffffffffffffff166105b2610b91565b73ffffffffffffffffffffffffffffffffffffffff1614806105e157506105e0816105db610b91565b610a27565b5b610620576040517f08c379a000000000000000000000000000000000000000000000000000000000815260040161061790611bb7565b60405180910390fd5b61062a8383610b99565b505050565b60006003547f000000000000000000000000000000000000000000000000000000000000000061065f9190611dd2565b905090565b61067561066f610b91565b82610c52565b6106b4576040517f08c379a00000000000000000000000000000000000000000000000000000000081526004016106ab90611c77565b60405180910390fd5b6106bf838383610d30565b505050565b6106df838383604051806020016040528060008152506108f6565b505050565b6000806004600084815260200190815260200160002060009054906101000a900473ffffffffffffffffffffffffffffffffffffffff169050600073ffffffffffffffffffffffffffffffffffffffff168173ffffffffffffffffffffffffffffffffffffffff16141561078d576040517f08c379a000000000000000000000000000000000000000000000000000000000815260040161078490611bf7565b60405180910390fd5b80915050919050565b60008073ffffffffffffffffffffffffffffffffffffffff168273ffffffffffffffffffffffffffffffffffffffff161415610807576040517f08c379a00000000000000000000000000000000000000000000000000000000081526004016107fe90611bd7565b60405180910390fd5b600560008373ffffffffffffffffffffffffffffffffffffffff1673ffffffffffffffffffffffffffffffffffffffff168152602001908152602001600020549050919050565b60606001805461085d90611ebc565b80601f016020809104026020016040519081016040528092919081815260200182805461088990611ebc565b80156108d65780601f106108ab576101008083540402835291602001916108d6565b820191906000526020600020905b8154815290600101906020018083116108b957829003601f168201915b5050505050905090565b6108f26108eb610b91565b8383610f97565b5050565b610907610901610b91565b83610c52565b610946576040517f08c379a000000000000000000000000000000000000000000000000000000000815260040161093d90611c77565b60405180910390fd5b61095284848484611104565b50505050565b606061096382610b25565b6109a2576040517f08c379a000000000000000000000000000000000000000000000000000000000815260040161099990611c37565b60405180910390fd5b60006109ac611160565b905060008151116109cc57604051806020016040528060008152506109f7565b806109d684611177565b6040516020016109e7929190611a4f565b6040516020818303038152906040525b915050919050565b60007f0000000000000000000000000000000000000000000000000000000000000000905090565b6000600760008473ffffffffffffffffffffffffffffffffffffffff1673ffffffffffffffffffffffffffffffffffffffff16815260200190815260200160002060008373ffffffffffffffffffffffffffffffffffffffff1673ffffffffffffffffffffffffffffffffffffffff16815260200190815260200160002060009054906101000a900460ff16905092915050565b60007f01ffc9a7000000000000000000000000000000000000000000000000000000007bffffffffffffffffffffffffffffffffffffffffffffffffffffffff1916827bffffffffffffffffffffffffffffffffffffffffffffffffffffffff1916149050919050565b60008073ffffffffffffffffffffffffffffffffffffffff166004600084815260200190815260200160002060009054906101000a900473ffffffffffffffffffffffffffffffffffffffff1673ffffffffffffffffffffffffffffffffffffffff1614159050919050565b600033905090565b816006600083815260200190815260200160002060006101000a81548173ffffffffffffffffffffffffffffffffffffffff021916908373ffffffffffffffffffffffffffffffffffffffff160217905550808273ffffffffffffffffffffffffffffffffffffffff16610c0c836106e4565b73ffffffffffffffffffffffffffffffffffffffff167f8c5be1e5ebec7d5bd14f71427d1e84f3dd0314c0f7b2291e5b200ac8c7c3b92560405160405180910390a45050565b6000610c5d82610b25565b610c9c576040517f08c379a0000000000000000000000000000000000000000000000000000000008152600401610c9390611b97565b60405180910390fd5b6000610ca7836106e4565b90508073ffffffffffffffffffffffffffffffffffffffff168473ffffffffffffffffffffffffffffffffffffffff161480610d1657508373ffffffffffffffffffffffffffffffffffffffff16610cfe84610492565b73ffffffffffffffffffffffffffffffffffffffff16145b80610d275750610d268185610a27565b5b91505092915050565b8273ffffffffffffffffffffffffffffffffffffffff16610d50826106e4565b73ffffffffffffffffffffffffffffffffffffffff1614610da6576040517f08c379a0000000000000000000000000000000000000000000000000000000008152600401610d9d90611b37565b60405180910390fd5b600073ffffffffffffffffffffffffffffffffffffffff168273ffffffffffffffffffffffffffffffffffffffff161415610e16576040517f08c379a0000000000000000000000000000000000000000000000000000000008152600401610e0d90611b57565b60405180910390fd5b610e21838383611324565b610e2c600082610b99565b6001600560008573ffffffffffffffffffffffffffffffffffffffff1673ffffffffffffffffffffffffffffffffffffffff1681526020019081526020016000206000828254610e7c9190611dd2565b925050819055506001600560008473ffffffffffffffffffffffffffffffffffffffff1673ffffffffffffffffffffffffffffffffffffffff1681526020019081526020016000206000828254610ed39190611d4b565b92505081905550816004600083815260200190815260200160002060006101000a81548173ffffffffffffffffffffffffffffffffffffffff021916908373ffffffffffffffffffffffffffffffffffffffff160217905550808273ffffffffffffffffffffffffffffffffffffffff168473ffffffffffffffffffffffffffffffffffffffff167fddf252ad1be2c89b69c2b068fc378daa952ba7f163c4a11628f55a4df523b3ef60405160405180910390a4610f92838383611329565b505050565b8173ffffffffffffffffffffffffffffffffffffffff168373ffffffffffffffffffffffffffffffffffffffff161415611006576040517f08c379a0000000000000000000000000000000000000000000000000000000008152600401610ffd90611b77565b60405180910390fd5b80600760008573ffffffffffffffffffffffffffffffffffffffff1673ffffffffffffffffffffffffffffffffffffffff16815260200190815260200160002060008473ffffffffffffffffffffffffffffffffffffffff1673ffffffffffffffffffffffffffffffffffffffff16815260200190815260200160002060006101000a81548160ff0219169083151502179055508173ffffffffffffffffffffffffffffffffffffffff168373ffffffffffffffffffffffffffffffffffffffff167f17307eab39ab6107e8899845ad3d59bd9653f200f220920489ca2b5937696c31836040516110f79190611ada565b60405180910390a3505050565b61110f848484610d30565b61111b8484848461132e565b61115a576040517f08c379a000000000000000000000000000000000000000000000000000000000815260040161115190611b17565b60405180910390fd5b50505050565b606060405180602001604052806000815250905090565b606060008214156111bf576040518060400160405280600181526020017f3000000000000000000000000000000000000000000000000000000000000000815250905061131f565b600082905060005b600082146111f15780806111da90611f1f565b915050600a826111ea9190611da1565b91506111c7565b60008167ffffffffffffffff811115611233577f4e487b7100000000000000000000000000000000000000000000000000000000600052604160045260246000fd5b6040519080825280601f01601f1916602001820160405280156112655781602001600182028036833780820191505090505b5090505b600085146113185760018261127e9190611dd2565b9150600a8561128d9190611f68565b60306112999190611d4b565b60f81b8183815181106112d5577f4e487b7100000000000000000000000000000000000000000000000000000000600052603260045260246000fd5b60200101907effffffffffffffffffffffffffffffffffffffffffffffffffffffffffffff1916908160001a905350600a856113119190611da1565b9450611269565b8093505050505b919050565b505050565b505050565b600061134f8473ffffffffffffffffffffffffffffffffffffffff166114c5565b156114b8578373ffffffffffffffffffffffffffffffffffffffff1663150b7a02611378610b91565b8786866040518563ffffffff1660e01b815260040161139a9493929190611a8e565b602060405180830381600087803b1580156113b457600080fd5b505af19250505080156113e557506040513d601f19601f820116820180604052508101906113e29190611789565b60015b611468573d8060008114611415576040519150601f19603f3d011682016040523d82523d6000602084013e61141a565b606091505b50600081511415611460576040517f08c379a000000000000000000000000000000000000000000000000000000000815260040161145790611b17565b60405180910390fd5b805181602001fd5b63150b7a0260e01b7bffffffffffffffffffffffffffffffffffffffffffffffffffffffff1916817bffffffffffffffffffffffffffffffffffffffffffffffffffffffff1916149150506114bd565b600190505b949350505050565b6000808273ffffffffffffffffffffffffffffffffffffffff163b119050919050565b60006114fb6114f684611cd7565b611cb2565b90508281526020810184848401111561151357600080fd5b61151e848285611e7a565b509392505050565b600081359050611535816123f4565b92915050565b60008135905061154a8161240b565b92915050565b60008135905061155f81612422565b92915050565b60008151905061157481612422565b92915050565b600082601f83011261158b57600080fd5b813561159b8482602086016114e8565b91505092915050565b6000813590506115b381612439565b92915050565b6000602082840312156115cb57600080fd5b60006115d984828501611526565b91505092915050565b600080604083850312156115f557600080fd5b600061160385828601611526565b925050602061161485828601611526565b9150509250929050565b60008060006060848603121561163357600080fd5b600061164186828701611526565b935050602061165286828701611526565b9250506040611663868287016115a4565b9150509250925092565b6000806000806080858703121561168357600080fd5b600061169187828801611526565b94505060206116a287828801611526565b93505060406116b3878288016115a4565b925050606085013567ffffffffffffffff8111156116d057600080fd5b6116dc8782880161157a565b91505092959194509250565b600080604083850312156116fb57600080fd5b600061170985828601611526565b925050602061171a8582860161153b565b9150509250929050565b6000806040838503121561173757600080fd5b600061174585828601611526565b9250506020611756858286016115a4565b9150509250929050565b60006020828403121561177257600080fd5b600061178084828501611550565b91505092915050565b60006020828403121561179b57600080fd5b60006117a984828501611565565b91505092915050565b6000602082840312156117c457600080fd5b60006117d2848285016115a4565b91505092915050565b6117e481611e06565b82525050565b6117f381611e18565b82525050565b600061180482611d08565b61180e8185611d1e565b935061181e818560208601611e89565b61182781612055565b840191505092915050565b600061183d82611d13565b6118478185611d2f565b9350611857818560208601611e89565b61186081612055565b840191505092915050565b600061187682611d13565b6118808185611d40565b9350611890818560208601611e89565b80840191505092915050565b60006118a9603283611d2f565b91506118b482612066565b604082019050919050565b60006118cc602583611d2f565b91506118d7826120b5565b604082019050919050565b60006118ef602483611d2f565b91506118fa82612104565b604082019050919050565b6000611912601983611d2f565b915061191d82612153565b602082019050919050565b6000611935602c83611d2f565b91506119408261217c565b604082019050919050565b6000611958603883611d2f565b9150611963826121cb565b604082019050919050565b600061197b602a83611d2f565b91506119868261221a565b604082019050919050565b600061199e602983611d2f565b91506119a982612269565b604082019050919050565b60006119c1602c83611d2f565b91506119cc826122b8565b604082019050919050565b60006119e4602f83611d2f565b91506119ef82612307565b604082019050919050565b6000611a07602183611d2f565b9150611a1282612356565b604082019050919050565b6000611a2a603183611d2f565b9150611a35826123a5565b604082019050919050565b611a4981611e70565b82525050565b6000611a5b828561186b565b9150611a67828461186b565b91508190509392505050565b6000602082019050611a8860008301846117db565b92915050565b6000608082019050611aa360008301876117db565b611ab060208301866117db565b611abd6040830185611a40565b8181036060830152611acf81846117f9565b905095945050505050565b6000602082019050611aef60008301846117ea565b92915050565b60006020820190508181036000830152611b0f8184611832565b905092915050565b60006020820190508181036000830152611b308161189c565b9050919050565b60006020820190508181036000830152611b50816118bf565b9050919050565b60006020820190508181036000830152611b70816118e2565b9050919050565b60006020820190508181036000830152611b9081611905565b9050919050565b60006020820190508181036000830152611bb081611928565b9050919050565b60006020820190508181036000830152611bd08161194b565b9050919050565b60006020820190508181036000830152611bf08161196e565b9050919050565b60006020820190508181036000830152611c1081611991565b9050919050565b60006020820190508181036000830152611c30816119b4565b9050919050565b60006020820190508181036000830152611c50816119d7565b9050919050565b60006020820190508181036000830152611c70816119fa565b9050919050565b60006020820190508181036000830152611c9081611a1d565b9050919050565b6000602082019050611cac6000830184611a40565b92915050565b6000611cbc611ccd565b9050611cc88282611eee565b919050565b6000604051905090565b600067ffffffffffffffff821115611cf257611cf1612026565b5b611cfb82612055565b9050602081019050919050565b600081519050919050565b600081519050919050565b600082825260208201905092915050565b600082825260208201905092915050565b600081905092915050565b6000611d5682611e70565b9150611d6183611e70565b9250827fffffffffffffffffffffffffffffffffffffffffffffffffffffffffffffffff03821115611d9657611d95611f99565b5b828201905092915050565b6000611dac82611e70565b9150611db783611e70565b925082611dc757611dc6611fc8565b5b828204905092915050565b6000611ddd82611e70565b9150611de883611e70565b925082821015611dfb57611dfa611f99565b5b828203905092915050565b6000611e1182611e50565b9050919050565b60008115159050919050565b60007fffffffff0000000000000000000000000000000000000000000000000000000082169050919050565b600073ffffffffffffffffffffffffffffffffffffffff82169050919050565b6000819050919050565b82818337600083830152505050565b60005b83811015611ea7578082015181840152602081019050611e8c565b83811115611eb6576000848401525b50505050565b60006002820490506001821680611ed457607f821691505b60208210811415611ee857611ee7611ff7565b5b50919050565b611ef782612055565b810181811067ffffffffffffffff82111715611f1657611f15612026565b5b80604052505050565b6000611f2a82611e70565b91507fffffffffffffffffffffffffffffffffffffffffffffffffffffffffffffffff821415611f5d57611f5c611f99565b5b600182019050919050565b6000611f7382611e70565b9150611f7e83611e70565b925082611f8e57611f8d611fc8565b5b828206905092915050565b7f4e487b7100000000000000000000000000000000000000000000000000000000600052601160045260246000fd5b7f4e487b7100000000000000000000000000000000000000000000000000000000600052601260045260246000fd5b7f4e487b7100000000000000000000000000000000000000000000000000000000600052602260045260246000fd5b7f4e487b7100000000000000000000000000000000000000000000000000000000600052604160045260246000fd5b6000601f19601f8301169050919050565b7f4552433732313a207472616e7366657220746f206e6f6e20455243373231526560008201527f63656976657220696d706c656d656e7465720000000000000000000000000000602082015250565b7f4552433732313a207472616e736665722066726f6d20696e636f72726563742060008201527f6f776e6572000000000000000000000000000000000000000000000000000000602082015250565b7f4552433732313a207472616e7366657220746f20746865207a65726f2061646460008201527f7265737300000000000000000000000000000000000000000000000000000000602082015250565b7f4552433732313a20617070726f766520746f2063616c6c657200000000000000600082015250565b7f4552433732313a206f70657261746f7220717565727920666f72206e6f6e657860008201527f697374656e7420746f6b656e0000000000000000000000000000000000000000602082015250565b7f4552433732313a20617070726f76652063616c6c6572206973206e6f74206f7760008201527f6e6572206e6f7220617070726f76656420666f7220616c6c0000000000000000602082015250565b7f4552433732313a2062616c616e636520717565727920666f7220746865207a6560008201527f726f206164647265737300000000000000000000000000000000000000000000602082015250565b7f4552433732313a206f776e657220717565727920666f72206e6f6e657869737460008201527f656e7420746f6b656e0000000000000000000000000000000000000000000000602082015250565b7f4552433732313a20617070726f76656420717565727920666f72206e6f6e657860008201527f697374656e7420746f6b656e0000000000000000000000000000000000000000602082015250565b7f4552433732314d657461646174613a2055524920717565727920666f72206e6f60008201527f6e6578697374656e7420746f6b656e0000000000000000000000000000000000602082015250565b7f4552433732313a20617070726f76616c20746f2063757272656e74206f776e6560008201527f7200000000000000000000000000000000000000000000000000000000000000602082015250565b7f4552433732313a207472616e736665722063616c6c6572206973206e6f74206f60008201527f776e6572206e6f7220617070726f766564000000000000000000000000000000602082015250565b6123fd81611e06565b811461240857600080fd5b50565b61241481611e18565b811461241f57600080fd5b50565b61242b81611e24565b811461243657600080fd5b50565b61244281611e70565b811461244d57600080fd5b5056fea26469706673582212205d29cf40df55570cc20617277e2e4bd38b77a58b9b0adf47a4b3477874ed57f864736f6c63430008040033",
  "linkReferences": {},
  "deployedLinkReferences": {}
}